:020000040800F2
:100000007809002029020008E52B00083F26000897
:10001000E12B000825060008B532000800000000AA
:10002000000000000000000000000000EB2B0008B2
:10003000F307000800000000E92B0008ED2B000882
:10004000430200084302000843020008430200087C
:10005000430200084302000843020008430200086C
:10006000430200084302000843020008430200085C
:10007000430200084302000843020008430200084C
:10008000430200084302000843020008430200083C
:10009000430200084302000843020008430200082C
:1000A000430200084302000843020008430200081C
:1000B00043020008BD2C0008430200084302000868
:1000C00043020008430200084302000843020008FC
:1000D0004302000895320008A532000843020008D8
:1000E00043020008430200084302000843020008DC
:1000F00043020008430200084302000843020008CC
:1001000043020008430200084302000843020008BB
:1001100043020008430200084302000843020008AB
:10012000C906000843020008430200084302000811
:10013000430200084302000843020008430200088B
:10014000430200084302000843020008430200087B
:100150004302000843020008D906000843020008D1
:10016000430200084302000843020008430200085B
:100170004302000843020008430200080000000098
:10018000430200084302000800F002F800F03CF8C7
:100190000AA090E8000C82448344AAF10107DA45E2
:1001A00001D100F031F8AFF2090EBAE80F0013F0F8
:1001B000010F18BFFB1A43F0010318475832000023
:1001C00078320000103A24BF78C878C1FAD85207B4
:1001D00024BF30C830C144BF04680C6070470000C1
:1001E0000023002400250026103A28BF78C1FBD840
:1001F000520728BF30C148BF0B6070471FB503F0DE
:10020000F3F81FBD10B510BD00F0CFF81146FFF791
:10021000F5FF03F06DF800F0EDF803B4FFF7F2FF1F
:1002200003BC00F0F5F80000094880470948004782
:10023000FEE7FEE7FEE7FEE7FEE7FEE7FEE7FEE796
:10024000FEE7FEE704480549054A064B70470000F3
:10025000A92C0008890100087803002078090020F3
:10026000780500207805002053EA020C00F0698030
:100270002DE9F04B4FF00006002B1FBFB3FA83F5BA
:1002800003FA05F424FA05F65E4012BF1643B2FAEB
:1002900082F502FA05F4C5F120051EBF22FA05FC1D
:1002A00044EA0C04203556EA044C4FEA144418BFC3
:1002B000641C4FF000084FF00009904271EB030CF2
:1002C00039D3002919BFB1FA81F701FA07F6B0FA5C
:1002D00080F700FA07F6C7F120071EBF20FA07FCD7
:1002E00046EA0C062037B6FBF4FCA7EB0507103FE7
:1002F00007F01F0BCBF120060CFA0BFB2CFA06F6CD
:1003000044BFB3460026202FA4BF5E464FF0000B2B
:100310005BEA060C08BF4FF0010B19EB0B09ABFBB6
:10032000027C48EB0608C01B06FB02CC0BFB03CC8F
:1003300071EB0C01C1E70B46024641464846BDE859
:10034000F08B13B54FF000004FF00001AFF30080C9
:10035000BDE81C4070474FF0000200B513469446BC
:100360009646203922BFA0E80C50A0E80C50B1F10D
:100370002001BFF4F7AF090728BFA0E80C5048BF21
:100380000CC05DF804EB890028BF40F8042B08BFBF
:10039000704748BF20F8022B11F0804F18BF00F8BB
:1003A000012B7047704770477047754600F02CF876
:1003B000AE4605006946534620F00700854618B052
:1003C00020B5FFF73FFFBDE820404FF000064FF09B
:1003D00000074FF000084FF0000B21F00701AC467A
:1003E000ACE8C009ACE8C009ACE8C009ACE8C00999
:1003F0008D46704710B50446AFF300802046BDE837
:100400001040FFF70ABF00000048704718030020A3
:1004100001491820ABBEFEE726000200704770B508
:100420000546AC6B206C00F0500050BB206C40F4D3
:10043000007020642068806800F04050E8B9207E99
:10044000D8B92068C06A00F4700020B120688068C4
:1004500000F4806088B92068406820F0200021689E
:100460004860206C20F480702064206C00F4805080
:1004700018B9206C40F001002064204600F084FA96
:100480000BE0206C00F0100018B1204600F07EFA5E
:1004900003E0A06BC16C2846884770BD70B5054667
:1004A000AC6B40202064606C40F004006064204627
:1004B00000F06CFA70BD70B50446A56B284600F0DC
:1004C00064FA70BD55494A6822F440324A604A686D
:1004D00043681A434A600268526822F480720368D3
:1004E0005A6002685368026943EA022203685A604C
:1004F0000268526822F0407203685A6002685268CB
:1005000083681A4303685A600268926822F40062A2
:1005100003689A6002689268C3681A4303689A6025
:100520003F4B826A9A4218D00268926822F0706249
:1005300003689A6002689268836A1A4303689A6043
:100540000268926822F0405203689A6002689268DA
:10055000C36A1A4303689A600BE00268926822F04B
:10056000706203689A600268926822F040520368E1
:100570009A600268926822F0020203689A60026838
:100580009368027E43EA420203689A602022125C6A
:10059000A2B10268526842F4006203685A600268BD
:1005A000526822F4604203685A6002685368426AE3
:1005B000521E43EA423203685A6005E002685268FC
:1005C00022F4006203685A600268D26A22F4700260
:1005D0000368DA620268D36A828B521E43EA0252CF
:1005E0000368DA620268926822F4007203689A6013
:1005F0000268936890F8302043EA422203689A60C8
:100600000268926822F4806203689A6002689368C4
:10061000426943EA822203689A60704700230140DE
:100620000100000F00BFFEE700B50023002000F02E
:1006300035F808B143F00103012000F02FF808B1AC
:1006400043F00203022000F029F808B143F004034C
:10065000032000F023F808B143F00803184600BD5A
:100660000146002005E0044A32F8102021F810204D
:10067000401C0428F7DB70476C00002010B50448CC
:1006800001F0B6FB04220349034800F033FA10BD21
:10069000240100206C0000207C0000200146042979
:1006A00001DB00207047064830F81100054A32F897
:1006B0001120904201DA0120F4E70020F2E7000067
:1006C0006C0000207400002010B5024800F056FBBA
:1006D00010BD0000C400002010B5024800F04EFB21
:1006E00010BD0000FC0100200146087810381823D6
:1006F000B0FBF3F20848805CC865032A05D9086896
:100700006FF30900001D886503E008686FF30900B6
:100710008865886D70470000F233000801460020AC
:100720008A6A8B69CBB932B1012A0DD0022A03D073
:10073000032A10D10EE000BFCB6A03F08073B3F13F
:10074000807F00D1012007E0CB6AB3F1C07F00D1E8
:10075000012001E000E000BF34E08B69B3F5005FE9
:100760001AD132B1012A07D0022A03D0032A11D1AB
:100770000AE000BF01200EE0CB6A03F08073B3F102
:10078000807F00D1012006E0CB6AB3F1C07F00D1A9
:10079000012000E000BF15E032B1012A05D0022A95
:1007A00004D0032A0CD103E000BF00BF012008E001
:1007B000CB6A03F08073B3F1807F00D1012000E0A9
:1007C00000BF00BF704730B50468246824F480245B
:1007D00005682C60046863608468402C04D1046858
:1007E000A2600468E16003E00468A1600468E2605C
:1007F00030BD704772B600BFFEE7000038B5024654
:100800000020009000BF92F83C00012801D1022096
:1008100038BD012082F83C0000BF0868092816D9BD
:100820001068C0680C780A3C04EB44050724AC400F
:10083000A0431468E0600C780A3C04EB4404886828
:10084000A0401468E46820431468E06013E0106876
:1008500000690C7804EB44050724AC40A0431468FD
:1008600020610C7804EB44048868A0401468246973
:100870002043146820614868072817D21068406B2D
:100880000C79641E04EB84051F24AC40A04314685B
:100890006063088880B20C79641E04EB8404A04075
:1008A0001468646B20431468606331E048680D2865
:1008B00017D21068006B0C79E41F04EB84051F2429
:1008C000AC40A04314682063088880B20C79E41F10
:1008D00004EB8404A0401468246B20431468206354
:1008E00016E01068C06A0C790D3C04EB84051F24E7
:1008F000AC40A0431468E062088880B20C790D3CDB
:1009000004EB8404A0401468E46A20431468E062A5
:10091000194B1A4C1068A04206D10868122803D15E
:10092000586840F480005860144C1068A0421CD1F4
:100930000868102802D00868112816D1586840F4B9
:1009400000005860086810280FD10D4800680D4C51
:10095000B0FBF4F000EB80004000009002E0009853
:10096000401E009000980028F9D100BF002082F8B6
:100970003C0000BF00BF4BE70023014000200140C6
:100980006400002040420F0070477047704700002D
:1009900070B5044600250CB9012070BD1549A06A48
:1009A000884200D000BF206C30B9204600F024F807
:1009B0000020606484F83C00206C00F0100088B9CE
:1009C000206C20F4885040F0020020642046FFF79D
:1009D00079FD00206064206C20F0020040F00100EE
:1009E000206400E0012500BF002084F83C0000BF27
:1009F0002846D2E70100000F10B586B00446142146
:100A000001A8FFF7A8FC35492068884263D100BFE0
:100A1000002000903248006840F48070304908603F
:100A20000846006800F48070009000BF00BF00BF5F
:100A3000002000902A481438006840F0040028493B
:100A4000143908600846006800F00400009000BFF8
:100A500000BF00BF002000900846006840F0020080
:100A600008600846006800F00200009000BF00BF68
:100A70001C200190032002900020039001A9194836
:100A800000F070FB012001900320029000200390F1
:100A900001A9154800F066FB1448154908600020BC
:100AA0004860002112488160C1604FF4806101619B
:100AB00049004161890081614911C16100210162E0
:100AC000416200F07BFA08B1FFF794FE00BF0848CE
:100AD000A063846300BF06B010BD00000020014089
:100AE0004438024000080240000402401064024002
:100AF000C4000020F8B504460D46164600200090BC
:100B000000BF94F83C00012801D10220F8BD01206B
:100B100084F83C0000BF2068806800F00100A0B9A4
:100B20002068806840F001002168886055480068AE
:100B30005549B0FBF1F000EB4000009002E0009856
:100B4000401E009000980028F9D12068806800F4C9
:100B50008070B0F5807F05D12068806820F48070B7
:100B6000216888602068806800F0010000287ED03D
:100B7000206C40F20161884340F48070206420685A
:100B8000406800F4806028B1206C20F4005040F4EC
:100B900080502064206C00F48050B0F5805F04D158
:100BA000606C20F00600606401E00020606400BF1B
:100BB000002084F83C0000BF344F3548A16BC86367
:100BC0003448A16B08643448A16BC8646FF02200FC
:100BD000216808602068406840F0806021684860B3
:100BE0002068806840F4807021688860226802F183
:100BF0004C0133462A46A06B00F056FA786800F0A4
:100C00001F0018BB25492068884213D0244920685A
:100C1000884204D1381D006800F01F0050B12149FE
:100C2000206888422BD11948001D006800F01F0081
:100C3000102824D22068806800F04050F8B920685D
:100C4000806840F080402168886018E0134920687F
:100C5000884214D12068806800F0405078B920683C
:100C6000806840F080402168886008E0FFE7206CE1
:100C700040F010002064606C40F0010060640020CF
:100C800044E700006400002040420F0000230140C0
:100C90001F040008B70400089D040008002001405C
:100CA000002101400022014070B50446A56D00F00E
:100CB00063FB064694F83500022808D08020606562
:100CC00000BF002084F8340000BF012070BD206800
:100CD000006820F01600216808602068406920F054
:100CE000800021684861206C08B9A06C28B1206898
:100CF000006820F00800216808602068006820F083
:100D000001002168086010E000F036FB801B052818
:100D10000BD920206065032084F8350000BF002037
:100D200084F8340000BF0320D0E72068006800F09A
:100D300001000028E8D194F85C103F208840A860AA
:100D4000012084F8350000BF002084F8340000BF83
:100D500000BFBBE7014691F83500022803D0802090
:100D6000486501207047052081F835000868006853
:100D700020F001000A6810600020F3E7F8B504468F
:100D8000002000908C4800684FF41651B0FBF1F73A
:100D9000A56D2E6894F85C1008208840304098B10A
:100DA0002068006800F0040070B12068006820F03E
:100DB00004002168086094F85C1008208840A8604E
:100DC000606D40F00100606594F85C10012088407F
:100DD000304068B12068406900F0800040B194F86C
:100DE0005C1001208840A860606D40F002006065E2
:100DF00094F85C1004208840304068B12068006896
:100E000000F0020040B194F85C1004208840A86013
:100E1000606D40F00400606594F85C10102088401C
:100E2000304078B32068006800F0080050B394F8B0
:100E30005C1010208840A8602068006800F48020C2
:100E400080B12068006800F4002028B9206CC8B187
:100E50002046216C884715E0A06C98B12046A16C13
:100E600088470FE02068006800F4807028B9206887
:100E7000006820F0080021680860206C10B120464E
:100E8000216C884794F85C1020208840304000286E
:100E900065D02068006800F0100000285FD094F84A
:100EA0005C1020208840A86094F83500052828D1DF
:100EB0002068006820F016002168086020684069FA
:100EC00020F0800021684861206C08B9A06C28B12E
:100ED0002068006820F008002168086094F85C1021
:100EE0003F208840A860012084F8350000BF002022
:100EF00084F8340000BF206D10B12046216D884772
:100F0000F8BD2068006800F4802080B12068006887
:100F100000F4002028B9606C10B12046616C88474D
:100F20001DE0E06BD8B12046E16B884717E02068F0
:100F3000006800F4807068B92068006820F0100034
:100F400021680860012084F8350000BF002084F883
:100F5000340000BFE06B10B12046E16B8847606D44
:100F600038B3606D00F00100F0B1052084F8350061
:100F70002068006820F001002168086000BF009828
:100F8000401C0090B84200D905E02068006800F0DD
:100F900001000028F3D100BF012084F8350000BF14
:100FA000002084F8340000BFE06C10B12046E16CF2
:100FB000884700BFA4E70000640000202DE9F0414D
:100FC0000446002500F0D8F9074614B90120BDE811
:100FD000F081606A00B100BF022084F8350000BFD4
:100FE000002084F8340000BF2068006820F0010071
:100FF000216808600AE000F0BFF9C01B052805D988
:1010000020206065032084F83500E0E72068006850
:1010100000F001000028EED1206805682148054055
:10102000D4E901010843E168084321690843616983
:101030000843A1690843E1690843216A084305435D
:10104000606A042803D1D4E90B01084305432068F2
:1010500005602068456925F00705606A0543606AF8
:1010600004280DD1A06A0543E06A48B12046FFF785
:1010700055FB28B140206065012084F83500A6E7C3
:10108000206845612046FFF72FFB064694F85C1068
:101090003F208840B06000206065012084F8350062
:1010A000002094E73F8010F02DE9F04704460D46FC
:1010B00016461F464FF00008D4F8589000BF94F829
:1010C0003400012802D10220BDE8F087012084F815
:1010D000340000BF94F83500012825D1022084F89F
:1010E0003500002060653B46324629462046FFF722
:1010F0006AFB94F85C103F208840C9F8080020681B
:10110000006840F0160021680860206C28B1206853
:10111000006840F00800216808602068006840F01E
:1011200001002168086006E000BF002084F8340058
:1011300000BF4FF002084046C6E7000070B5044605
:1011400000F01AF906462546681C10B104480078DC
:10115000054400BF00F010F9801BA842FAD370BD0F
:1011600060000020F8B502460B4600250024002050
:101170000021D6E0012606FA01F51E6806EA0504FC
:10118000AC4274D11E7906F00306012E04D01E79FC
:1011900006F00306022E13D190684F000326BE40CE
:1011A000B0434F00DE68BE40304390605068012677
:1011B0008E40B0431E79C6F300168E403043506017
:1011C0001E7906F00306032E09D0D0684F000326CF
:1011D000BE40B0434F009E68BE403043D0601E7991
:1011E00006F00306022E13D1CF0802F1200656F8AE
:1011F00027004E07F70E0F26BE40B0434F07FF0EE5
:101200001E69BE403043CF0802F1200646F8270091
:1012100010684F000326BE40B0431E7906F0030657
:101220004F00BE40304310605E6806F44036002E2A
:1012300076D000BF002600963C4E366846F48046C5
:101240003A4F3E603E46366806F48046009600BF40
:1012500000BF374E8F0856F827008E07370F0F262E
:10126000BE40B043334EB24202D1002624E057E0E4
:10127000314EB24201D101261EE0304EB24201D1C0
:10128000022619E02E4EB24201D1032614E02D4E63
:10129000B24201D104260FE02B4EB24201D1052605
:1012A0000AE02A4EB24201D1062605E0284EB2429B
:1012B00001D1072600E008268F073F0FBE403043CC
:1012C0001B4E8F0846F82700224E3068A0435E6808
:1012D00006F4801606B120431E4E3060361D30687D
:1012E000A0435E6806F4001606B12043194E361D71
:1012F0003060184E361F3068A0435E6806F4003632
:1013000006B12043134E361F3060361F3068A043AD
:101310005E6806F4803606B120430E4E083E30600B
:10132000491C1029FFF426AFF8BD000044380240E4
:10133000083801400000024000040240000802405A
:10134000000C02400010024000140240001802404D
:10135000001C0240083C014010B5426921EA02032A
:1013600002EA010443EA0443836110BD0AB18161CA
:1013700001E00B048361704701480068704700007A
:1013800058000020034800680349097808440149CF
:1013900008607047580000206000002010B50D481C
:1013A000006840F400700B4908600846006840F48B
:1013B000806008600846006840F480700860032080
:1013C00000F0A6F80F2000F007F800F02BF800203E
:1013D00010BD0000003C024070B504460E48007885
:1013E0004FF47A71B1FBF0F00C490968B1FBF0F5EC
:1013F000284600F02FFC08B1012070BD102C07D248
:1014000000222146501E00F045F80548046001E026
:101410000120F2E70020F0E76000002064000020D7
:101420005C00002008B500BF002000900E48006856
:1014300040F480400C4908600846006800F4804091
:10144000009000BF00BF00BF00200090081F006890
:1014500040F08050091F08600846006800F0805086
:10146000009000BF00BF08BD443802400146084656
:1014700000280DDB00BF00BF00F01F0301229A40CF
:1014800043099B0003F1E023C3F8002100BF00BF24
:1014900000BF70472DE9F05F80460D4616460027D5
:1014A00001F00AFF074639462A46334601F0070095
:1014B000C0F1070ABAF1040F02D94FF0040A01E0A3
:1014C000C0F1070AD14600F1040ABAF1070F02D2AF
:1014D0004FF0000A01E0A0F1030AD4464FF0010AE0
:1014E0000AFA09FAAAF1010A0AEA020A0AFA0CFA45
:1014F0004FF0010B0BFA0CFBABF1010B0BEA030BEA
:101500004AEA0B042146404601F0DEFEBDE8F09FAA
:1015100000BF00F00702064B19684FF6FF031940A1
:10152000044B0B4343EA0221014B196000BF704793
:101530000CED00E00000FA0570B504460D460CB94C
:10154000012070BD5848006800F00700A84209D289
:1015500055490D700846006800F00700A84201D008
:101560000120EEE7207800F0020002281DD120784B
:1015700000F00400042805D14C48006840F4E05015
:101580004A490860207800F00800082805D147483B
:10159000006840F46040454908604448006820F015
:1015A000F000A168084341490860207800F001007C
:1015B000A8B36068012807D13C4808380068C0F328
:1015C0004040B8B90120BCE76068022802D06068DA
:1015D000032807D1354808380068C0F3406048B98F
:1015E0000120AEE7314808380068C0F3400008B970
:1015F0000120A6E72D48006820F003006168084339
:101600002A490860FFF7B8FE064609E0FFF7B4FE76
:10161000801B41F28831884202D9032091E707E01C
:101620002248006800F00C006168B0EB810FEDD13A
:101630001D48006800F00700A84209D91A490D703A
:101640000846006800F00700A84201D0012078E7B2
:10165000207800F00400042807D11448006820F422
:10166000E050E168084311490860207800F0080064
:10167000082808D10D48006820F46040216940EA3C
:10168000C1000A49086000F03FF808490968C1F341
:101690000311074A515CC8400649086006480068C3
:1016A000FFF79AFE00204CE7003C02400838024059
:1016B000FA330008640000205C0000200148006844
:1016C000704700006400002000B5FFF7F7FF0449F1
:1016D0000968C1F38221034A515CC84000BD000083
:1016E000083802400A34000800B5FFF7E7FF044954
:1016F0000968C1F34231034A515CC84000BD000093
:10170000083802400A3400082DE9F047002400257B
:101710000026A1462548006800F00C0020B10428EE
:1017200005D008283AD105E0DFF8849039E0DFF8E9
:10173000849036E01D48001F006800F03F041B48FD
:10174000001F006800F4800078B11A481749091F8B
:101750000968C1F38811A0FB0170014622460023ED
:101760003846FEF781FD05460EE011480F49091F76
:101770000968C1F38811A0FB0170014622460023CD
:101780003846FEF771FD05460848001F0068C0F3A3
:101790000140401C4600B5FBF6F902E0DFF810906E
:1017A00000BF00BF4846BDE8F0870000083802408F
:1017B0000024F40000127A00F8B504460CB90120A8
:1017C000F8BD207800F00100002874D0F9480068C6
:1017D00000F00C0004280DD0F648006800F00C0062
:1017E000082813D1F348001F006800F48000B0F50A
:1017F000800F0BD1EF4808380068C0F34040002844
:1018000059D06068002856D10120D9E700BF606830
:10181000B0F5803F08D1E7480838006840F48030D0
:10182000E449083908601EE06068B0F5A02F0DD1CA
:10183000E0480838006840F48020DE490839086034
:101840000846006840F4803008600CE0D948083849
:10185000006820F48030D7490839086008460068DD
:1018600020F48020086000BF606890B1FFF784FD1D
:10187000054606E0FFF780FD401B642801D90320E0
:101880009EE7CC4808380068C0F340400028F1D0FB
:1018900011E0FFF771FD054606E0FFF76DFD401B07
:1018A000642801D903208BE7C24808380068C0F3D8
:1018B00040400028F1D1207800F0020002285FD1DA
:1018C000BC48006800F00C0058B1BA48006800F04D
:1018D0000C0008281CD1B748001F006800F48000E5
:1018E000B0B9B44808380068C0F3400020B1E068DF
:1018F000012801D0012063E7AE480838006820F0D5
:10190000F800216940EAC100AA490839086037E0B7
:10191000E06800B30120A8490860FFF72DFD0546E7
:1019200006E0FFF729FD401B022801D9032047E705
:10193000A04808380068C0F340000028F1D09D4856
:101940000838006820F0F800216940EAC100994990
:101950000839086014E0002097490860FFF70CFD83
:10196000054606E0FFF708FD401B022801D90320C9
:1019700026E7904808380068C0F340000028F1D1FD
:10198000207800F0080008282CD16069A8B1012057
:101990008A490860FFF7F0FC054606E0FFF7ECFC1B
:1019A000401B022801D903200AE782486C300068F6
:1019B000C0F340000028F1D014E000207F49086007
:1019C000FFF7DAFC054606E0FFF7D6FC401B0228CD
:1019D00001D90320F4E677486C300068C0F340007A
:1019E0000028F1D1207800F00400042870D10027ED
:1019F00070483830006800F0805090B900BF002077
:101A000000906C483830006840F0805069493831A7
:101A100008600846006800F08050009000BF00BFDA
:101A200001276748006800F48070B0B96448006816
:101A300040F4807062490860FFF79EFC054606E0AE
:101A4000FFF79AFC401B022801D90320B8E65C4846
:101A5000006800F480700028F2D000BFA068012860
:101A600008D154486830006840F00100514968319D
:101A700008601DE0A06805280DD14E486830006858
:101A800040F004004B49683108600846006840F0A7
:101A9000010008600CE047486830006820F0010051
:101AA0004449683108600846006820F00400086076
:101AB00000BFA068A8B1FFF75FFC054609E0FFF78B
:101AC0005BFC401B41F28831884202D9032077E653
:101AD00026E0384868300068C0F340000028EED0A7
:101AE00013E0FFF749FC054608E0FFF745FC401B03
:101AF00041F28831884201D9032061E62D486830DF
:101B00000068C0F340000028EFD1012F07D1294819
:101B10003830006820F0805026493831086000BF16
:101B2000A069002845D02348006800F00C00082870
:101B30005DD0A069022845D100201F490866FFF743
:101B40001BFC054606E0FFF717FC401B022801D9E5
:101B5000032035E6174808380068C0F340600028C5
:101B6000F1D1D4E907010843616A40EA81110122F9
:101B7000A06AC2EB500041EA00412C20005D41EA1E
:101B800000600C49091F086001200B490866FFF737
:101B9000F3FB054606E0FFF7EFFB401B022801D9E7
:101BA00003200DE6034808380068C0F340600028B1
:101BB000F1D049E00838024000004742800E474219
:101BC00000700040002021490866FFF7D5FB05465C
:101BD00006E0FFF7D1FB401B022801D90320EFE507
:101BE0001B480068C0F340600028F2D12CE0A069D7
:101BF000012800D1E4E51648001D0668A069012807
:101C000020D006F48001E06981421BD106F03F013B
:101C1000206A814216D147F6C0703040616AB0EB4D
:101C2000811F0FD106F440310122A06AC2EB50009F
:101C3000B1EB004F06D106F070612C20005DB1EBD6
:101C4000006F01D00120BBE50020B9E5000047424C
:101C50000038024070B504462546681EB0F1807F0A
:101C600001D301200FE0681E4FF0E02148610F21F1
:101C70004FF0FF3001F028FB00204FF0E021886199
:101C800007200861002070BD7047704730B50246DC
:101C90000B4600BF92F83C00012801D1022030BD64
:101CA000012082F83C0000BF022082F83D0010684D
:101CB00044681068816824F0700418680443106850
:101CC0004460184D1068A8421BD01068B0F1804FD6
:101CD00017D0154D1068A84213D0144D1068A842B3
:101CE0000FD0134D1068A8420BD0124D1068A842B7
:101CF00007D0114D1068A84203D0104D1068A842BB
:101D000005D121F0800158680143106881600120ED
:101D100082F83D0000BF002082F83C0000BF00BFF9
:101D2000BDE7000000000140000400400008004042
:101D3000000C004000040140004001400018004039
:101D400010B504460CB9012010BD94F83D0028B927
:101D5000002084F83C00204600F026F8022084F899
:101D60003D00211D206800F0B1FF012084F84600ED
:101D700000BF84F83E0001213F200155402001555D
:101D80004120015500BF00BF012084F842004320DC
:101D90000155442001554520015500BF012084F81C
:101DA0003D000020D0E7000038B504460E49206809
:101DB000884217D100BF002000900C48006840F016
:101DC00002000A4908600846006800F0020000901E
:101DD00000BF00BF002211461D20FFF75BFB1D2046
:101DE000FFF744FB38BD00000004004040380240CB
:101DF000014691F83D00012801D0012070470220E2
:101E000081F83D001A4B086898421BD00868B0F171
:101E1000804F17D0174B0868984213D0164B0868AC
:101E200098420FD0154B086898420BD0144B0868A5
:101E3000984207D0134B0868984203D0124B0868A9
:101E400098420CD10868806800F00702062A0CD07E
:101E50000868006840F001000B68186005E0086839
:101E6000006840F001000B6818600020C6E7000021
:101E7000000001400004004000080040000C004049
:101E80000004014000400140001800402DE9F041ED
:101E900004460D46002700BF94F83C00012802D1FB
:101EA0000220BDE8F081012084F83C0000BF022040
:101EB00084F83D002068866826F0770626F47F4681
:101EC000206886602868502833D00CDC202850D049
:101ED00004DC00284BD0102851D149E0302849D0EB
:101EE00040284CD139E060282DD0702807D0B0F5BB
:101EF000805F03D0B0F5005F41D10DE041E0D5E94E
:101F000002136A68206800F055FF2068866846F072
:101F100077062068866034E0D5E902136A68206895
:101F200000F048FF2068806840F4804021688860A5
:101F300027E0EA686968206800F050FF50212068B7
:101F400000F043FF1DE0EA686968206800F059FF6F
:101F50006021206800F039FF13E0EA6869682068B2
:101F600000F03CFF4021206800F02FFF09E000BF97
:101F700000BF00BF2968206800F027FF01E00127AB
:101F800000BF00BF012084F83D0000BF002084F89E
:101F90003C0000BF384684E7704770B504462068AF
:101FA000C5682068066906F00200022819D105F00C
:101FB0000200022815D1401F216808610120207706
:101FC0002068806900F0030018B12046FFF7E4FFA5
:101FD00005E0204600F097F8204600F095F8002034
:101FE000207706F00400042819D105F00400042825
:101FF00015D1C043216808610220207720688069DC
:1020000000F4407018B12046FFF7C6FF05E02046F7
:1020100000F079F8204600F077F80020207706F0ED
:102020000800082819D105F00800082815D1C04378
:1020300021680861042020772068C06900F003004F
:1020400018B12046FFF7A8FF05E0204600F05BF836
:10205000204600F059F80020207706F010001028E4
:1020600019D105F01000102815D1C043216808616E
:10207000082020772068C06900F4407018B120461D
:10208000FFF78AFF05E0204600F03DF8204600F00B
:102090003BF80020207706F0010048B105F0010070
:1020A00030B16FF0010021680861204600F02DF882
:1020B00006F08000802809D105F08000802805D135
:1020C000C043216808612046FFF7DEFD06F04000AE
:1020D000402809D105F04000402805D1C0432168BF
:1020E0000861204600F012F806F02000202809D1EF
:1020F00005F02000202805D1C04321680861204652
:10210000FFF7C3FD70BD7047704770477047704759
:10211000704700002DE9F84F0446206805682068E4
:10212000C668206847694FF00009CA4605F00F09E4
:10213000B9F1000F0AD105F0200038B106F02000F7
:1021400020B1204600F0C1FEBDE8F88FB9F1000FC4
:102150007CD007F0010018B906F49070002875D003
:1021600005F0010030B106F4807018B1606C40F0E9
:102170000100606405F0040030B107F0010018B1FF
:10218000606C40F00200606405F0020030B107F0BE
:10219000010018B1606C40F00400606405F00800B4
:1021A00048B106F0200010B907F0010018B1606CCA
:1021B00040F008006064606C002846D005F0200004
:1021C00028B106F0200010B1204600F07EFE206805
:1021D0004069C0F3801A606C00F0080010B9BAF1D1
:1021E000000F2DD0204600F02AFE2068406900F044
:1021F0004000402820D100BF00BF2168143151E8C1
:10220000001F21F040002168143141E80002002A3B
:10221000F3D100BFE06B50B17748E16B0865E06B2C
:10222000FEF798FD88B1E06B016D88470DE0204610
:10223000FFF76EFF09E009E02046FFF769FF04E0C1
:102240002046FFF765FF002060647DE7206B0128D2
:1022500078D105F01000002874D006F01000002896
:10226000FAD000BF0020009020680068009020682D
:102270004068009000BF00BF2068406900F0400047
:10228000402860D1E06B006840681FFA80F8B8F120
:10229000000F56D0A08D404553DDA4F82E80E06B92
:1022A000C069B0F5807F43D000BF00BF21680C310A
:1022B00051E8001F21F4807021680C3141E80002D0
:1022C000002AF3D100BF00BF00BF2168143151E8DC
:1022D000001F21F001002168143141E80002002AAA
:1022E000F3D100BF00BF00BF2168143151E8001FC7
:1022F00021F040002168143141E80002002AF3D1A6
:1023000000BF202084F842000020206300BF00BFEF
:1023100021680C3151E8001F21F0100021680C31B8
:1023200041E80002002AF3D100BFE06BFEF7BCFCDD
:1023300002206063A08DE28D801A81B22046FFF7F3
:10234000E6FE01E742E0A08DE18D401A1FFA80F819
:10235000E08DD0B3B8F1000F37D000BF00BF2168C7
:102360000C3151E8001F21F4907021680C3141E8D4
:102370000002002AF3D100BF00BF00BF2168143162
:1023800051E8001F21F001002168143141E80002EA
:10239000002AF3D100BF202084F8420000202063EF
:1023A00000BF00BF21680C3151E8001F21F0100070
:1023B00021680C3141E80002002AF3D100BF02205D
:1023C000606341462046FFF7A2FEBDE605F08000AF
:1023D00030B106F0800018B1204600F02BFFB3E6C4
:1023E00005F0400030B106F0400018B1204600F082
:1023F0005CFDA9E600BFA7E62B2E000810B5044639
:102400000CB9012010BDA06900B100E000BF94F834
:10241000410028B9002084F84000204600F02AF846
:10242000242084F841002068C06820F4005021680E
:10243000C860204600F0C8FD2068006920F4904084
:10244000216808612068406920F02A0021684861FD
:102450002068C06840F400502168C86000206064B3
:10246000202084F8410084F842000020606300BF0F
:10247000C8E7000010B586B00446142101A8FDF796
:102480006AFF4E492068884257D100BF0020009063
:102490004B48006840F01000494908600846006851
:1024A00000F01000009000BF00BF00BF00200090AF
:1024B00043481438006840F001004149143908606D
:1024C0000846006800F00100009000BF00BF4FF414
:1024D000C06001900220029000200390032004902D
:1024E0000720059001A93748FEF73CFE36483749DA
:1024F00008604FF00060486040213448816000214E
:10250000C1604FF480610161002141618161C1615D
:1025100001624162FEF752FD08B1FEF76BF900BFA0
:102520002A48A063846300BF002211462520FEF7DD
:10253000B1FF2520FEF79AFF3DE02549206888423B
:1025400039D100BF002000901D48001F006840F4F2
:1025500000301B49091F08600846006800F400307D
:10256000009000BF00BF00BF002000901448143846
:10257000006840F0080012491439086008460068F5
:1025800000F00800009000BF00BF60200190022012
:10259000029000200390032004900720059001A9D9
:1025A0000C48FEF7DFFD002211462620FEF772FFE1
:1025B0002620FEF75BFF06B010BD000000100140B2
:1025C0004438024000000240B8640240FC01002090
:1025D00000440040000C024070B504460D4616460B
:1025E00094F8420020280BD105B10EB9012070BD2E
:1025F0000020206332462946204600F0FBFDF6E726
:102600000220F4E710B504460849206888420CD13E
:10261000074800F025F80B2205490648FFF7DCFFC4
:1026200005480068401C0449086010BD0044004093
:102630005C020020B40100204C000020704700BF65
:10264000FEE7000010B50446034804600B2203496E
:102650000068FFF7C1FF10BD680000200C030020D8
:1026600010B50446207855287ED16078512804D0D2
:1026700052283FD0532878D17CE0A078E17840EA16
:10268000012000B200EE100AB8EEC00ADFED5C0ACD
:1026900080EE201AB3EE000A21EE000A594880EDC0
:1026A000000A2079617940EA012000B200EE100AA8
:1026B000B8EEC00ADFED520A80EE201AB3EE000A2F
:1026C00021EE000A4F4880ED010AA079E17940EA45
:1026D000012000B200EE100AB8EEC00ADFED480A91
:1026E00080EE201AB3EE000A21EE000A454880ED84
:1026F000020A7DE0A078E17840EA012000B200EE15
:10270000100AB8EEC00ADFED3E0A80EE201A9FEDF7
:102710003E0A21EE000A3B4880ED030A20796179E8
:1027200040EA012000B200EE100AB8EEC00A9FEDA8
:10273000341AC0EE010A9FED340A20EE800A3148B7
:1027400080ED040AA079E17940EA012000B200EEB0
:10275000100AB8EEC00A9FED2A1AC0EE010A9FEDDA
:102760002A0A20EE800A01E043E040E0254880ED9F
:10277000050A3DE0A078E17840EA012000B200EED1
:10278000100AF8EEC00A9FED1E1A80EE810ADFEDF6
:102790001F0A20EE200A1B4880ED060A2079617985
:1027A00040EA012000B200EE100AB8EEC00ADFEDE8
:1027B000140A80EE201A9FED150A21EE000A114836
:1027C00080ED070AA079E17940EA012000B200EE2D
:1027D000100AF8EEC00A9FED0A1A80EE810ADFEDBA
:1027E0000B0A20EE200A074880ED080A00E000BF2F
:1027F00000BF0B22214606480068FFF7EDFE10BD22
:1028000000000047E80200200000FA4400003443C2
:102810006800002010B504460020E071FEF7ACFD12
:10282000A06010BD10B50446A07928B9A188012286
:102830002068FEF79BFD04E0A18800222068FEF7D7
:1028400095FD10BD10B50648FFF7ECFF0548FFF7F2
:10285000E9FF0548FFF7E6FF0448FFF7E3FF10BD77
:1028600000000020080000201000002018000020B8
:1028700010B50446A07928B9A18801222068FEF786
:1028800075FD04E0A18800222068FEF76FFD10BDF1
:1028900010B50446A07928B9A18800222068FEF767
:1028A00065FD04E0A18801222068FEF75FFD10BDF0
:1028B00010B50446A1882068FEF74EFD10BD00004B
:1028C0001FB50020009001900290039027482849EE
:1028D00008600020486000212548816001210161D5
:1028E0000176002180F820104FF08051C16249101C
:1028F00081620021C1600421C161012180F8301092
:102900004161FEF745F808B1FDF774FF082000901B
:10291000012001900620029069461548FDF76EFFE0
:1029200008B1FDF767FF0C20009002200190694676
:102930000F48FDF763FF08B1FDF75CFF0D20009025
:102940000320019069460A48FDF758FF08B1FDF7DA
:1029500051FF0E2000900420019069460448FDF7C5
:102960004DFF08B1FDF746FF1FBD000000200140EC
:102970007C00002008B500BF002000900E480068D1
:1029800040F480000C4908600846006800F48000AC
:10299000009000BF00BF002211463820FEF77AFDEC
:1029A0003820FEF763FD002211464620FEF772FD37
:1029B0004620FEF75BFD08BD3038024000B587B009
:1029C000142102A8FDF7C7FC00BF00200190494870
:1029D000006840F08000474908600846006800F041
:1029E0008000019000BF00BF00BF0020019008469A
:1029F000006840F0040008600846006800F0040029
:102A0000019000BF00BF00BF002001900846006891
:102A100040F0020008600846006800F002000190E3
:102A200000BF00BF00BF002001900846006840F0D2
:102A3000100008600846006800F01000019000BF18
:102A400000BF00BF002001900846006840F0080069
:102A500008600846006800F00800019000BF00BF51
:102A600000BF002001900846006840F001000860A7
:102A70000846006800F00100019000BF00BF01227D
:102A800091031D48FEF772FC012242F203011B482C
:102A9000FEF76CFC4FF48040029001200390002070
:102AA0000490059002A91448FEF75CFB4FF4004027
:102AB0000290002003900120049002A90E48FEF726
:102AC00051FB4FF40060029000200390012004901D
:102AD00002A90A48FEF746FB42F2030002900120D9
:102AE000039000200490059002A90448FEF73AFBE9
:102AF00007B000BD3038024000100240000C024018
:102B000000B587B0002003900490059006900190D6
:102B1000029015481549086042F6DF6048600021C0
:102B20001248816040F2F311C160002101618161AE
:102B3000FFF706F908B1FDF75DFE4FF480500390F2
:102B400003A90A48FFF7A2F908B1FDF753FE2020B8
:102B500001900020029001A90448FFF797F808B1FE
:102B6000FDF748FE07B000BD00040040240100202E
:102B700010B50B480B4908604FF4E1304860002164
:102B800008488160C16001610C21416100218161BF
:102B9000C161FFF733FC08B1FDF72CFE10BD00004A
:102BA000001001406C01002010B50B480B49086073
:102BB0004FF4E1304860002108488160C160016144
:102BC0000C21416100218161C161FFF717FC08B14F
:102BD000FDF710FE10BD000000440040B4010020CD
:102BE00000BFFEE700BFFEE77047704710B5FEF775
:102BF000C9FB10BD00B593B0302107A8FDF7ABFBB2
:102C0000142102A8FDF7A7FB00BF00200190244873
:102C1000006840F08050224908600846006800F0D3
:102C20008050019000BF00BF00BF002001901D48F0
:102C3000006840F480401B4908600846006800F4C2
:102C40008040019000BF00BF012007900004089061
:102C500002200D9041050E9108210F91F021109155
:102C6000022111910421129107A8FEF7A5FD08B1D8
:102C7000FDF7C0FD0F200290022003900020049079
:102C80004FF4A05005904FF480500690032102A805
:102C9000FEF752FC08B1FDF7ADFD13B000BD00001A
:102CA00040380240007000400348006840F4700063
:102CB000014908607047000088ED00E010B5024847
:102CC000FFF76BF910BD00002401002010B5026869
:102CD0002D4B98420ED0B0F1804F0BD02B4B984229
:102CE00008D02B4B984205D02A4B984202D02A4B51
:102CF000984203D122F070024B681A43224B98424B
:102D000020D0B0F1804F1DD0204B98421AD0204BDC
:102D1000984217D01F4B984214D01F4B984211D0A5
:102D20001E4B98420ED01E4B98420BD01D4B984222
:102D300008D01D4B984205D01C4B984202D01C4B2A
:102D4000984203D122F44072CB681A4322F08003E8
:102D50004C6943EA040202608B68C3620B688362B9
:102D6000094B984202D00C4B984201D10B69036386
:102D700001234361036903F001031BB1036923F0DD
:102D80000103036110BD0000000001400004004089
:102D900000080040000C00400004014000400140D9
:102DA000004401400048014000180040001C004061
:102DB0000020004030B50C46816821F47F4142EA92
:102DC000032525432943816030BD0A46816821F0EF
:102DD000700142F0070319438160704730B50B461C
:102DE0001446026A056A25F001050562816921F031
:102DF000F00141EA041122F00A021A4381610262E1
:102E000030BD30B50B461446026A056A25F0100540
:102E10000562816921F4704141EA043122F0A00287
:102E200042EA03128161026230BD70B50546AC6BA7
:102E30000020E085E0842046FFF76AF970BD00BFFE
:102E400000BF02680C3252E8002F22F49071026831
:102E50000C3242E80013002BF3D100BF00BF00BFCB
:102E60000268143252E8002F22F001010268143285
:102E700042E80013002BF3D100BF016B01290ED1F2
:102E800000BF00BF02680C3252E8002F22F0100190
:102E900002680C3242E80013002BF3D100BF20215E
:102EA00080F8421000210163704710B50446206885
:102EB000C06820F040002168C860202084F84100EC
:102EC0002046FFF7BBFB002010BDF8B5044694F880
:102ED0004200222875D1A068B0F5805F0CD120692E
:102EE00050B90025A66A20684068C0F30800308009
:102EF000A06A801CA06215E0A56A0026A068B0F553
:102F0000805F03D0A06828B9206918B9206840689C
:102F1000287004E02068406800F07F002870A06AF4
:102F2000401CA062E08D401E80B2E085002846D1A2
:102F30002068C06820F020002168C8602068C06850
:102F400020F480702168C8602068406920F001008A
:102F500021684861202084F8420000206063206BD3
:102F6000012826D10020206300BF00BF21680C315A
:102F700051E8001F21F0100021680C3141E80002E7
:102F8000002AF3D100BF2068006800F0100010286C
:102F90000AD100BF002000902068006800902068DF
:102FA0004068009000BF00BFA18D2046FFF7AFF83A
:102FB00002E02046FFF726FB0020F8BD01E00020DC
:102FC000FBE70220F9E700002DE9F84F04462068EE
:102FD000006920F44050E1680843216808612169D4
:102FE000A068084361690843E169084300902068CC
:102FF000C06849F20C618843009908432168C860A1
:103000002068406920F44070A16908432168486144
:1030100076492068884203D075492068884203D1E8
:10302000FEF762FB814602E0FEF74EFB8146E06957
:10303000B0F5004F6CD102206168A0FB015003463F
:103040001920A9FB007001462A463846FDF70CF905
:103050006421B0FBF1F04FEA001A02206168A0FB86
:1030600001510B461920A9FB00712A463846FDF78D
:10307000FBF8834602206168A0FB0150034619203B
:10308000A9FB00712A463846FDF7EEF86421B0FB33
:10309000F1F000EBC00101EB0010ABEB800032213E
:1030A00001EBC0006421B0FBF1F000F0F8000AEB86
:1030B000400A02206168A0FB015003461920A9FBC9
:1030C000007001462A463846FDF7CEF883460220B6
:1030D0006168A0FB015003461920A9FB00712A4634
:1030E0003846FDF7C1F86421B0FBF1F000EBC001F8
:1030F00001EB0010ABEB8000322101EBC00064213A
:10310000B0FBF1F000F007005044216888606AE0ED
:1031100004206168A0FB015003461920A9FB007040
:1031200001462A463846FDF79FF88246042061682A
:10313000A0FB015003461920A9FB007001462A4656
:103140003846FDF791F86421B0FBF1F000EBC001C7
:1031500001EB0010AAEB8000322101EB001064218A
:10316000B0FBF1F000F0F00A04206168A0FB0170F0
:1031700003461920A9FB00513A462846FDF774F88A
:103180006421B0FBF1F00AEB001A04206168A0FB97
:1031900001510B461920A9FB00712A463846FDF75C
:1031A00063F8834604206168A0FB015003461920A0
:1031B000A9FB007001462A463846FDF755F8642100
:1031C000B0FBF1F000EBC00101EB0010ABEB8000B5
:1031D000322101EB00106421B0FBF1F000F00F0090
:1031E000504421688860BDE8F88F0000001001405D
:1031F0000014014010B5034699629A85DA850020D3
:103200005864222083F84200186928B11868C06801
:1032100040F480701C68E0601868406940F001006C
:103220001C6860611868C06840F020001C68E0609D
:10323000002010BD014691F84100212828D188685E
:10324000B0F5805F0BD1086948B90A6A1088C0F3ED
:1032500008000B685860086A801C086205E00B6A69
:10326000581C086218780B685860C88C401E80B2E1
:10327000C88458B90868C06820F080000B68D8601E
:103280000868C06840F040000B68D86000207047B4
:103290000220FCE710B50248FEF73CFF10BD00001D
:1032A0006C01002010B50248FEF734FF10BD00008D
:1032B000B401002000BFFEE702480068C0F302200E
:1032C000704700000CED00E010B5002804DB0A0791
:1032D000130E054A135406E00A07140E034A00F0C1
:1032E0000F031B1FD45410BD00E400E018ED00E0F4
:1032F000FEF754F8FFF77EFCFFF760FBFFF73AFBA1
:10330000FFF752FCFFF734FCFFF7DAFAFFF7F8FBA0
:10331000C8202C49088048808880C880FFF792FA2E
:103320002948FFF777FA28480C30FFF773FA274847
:10333000FFF788F9FDF7A2F943E0FDF775F90446B8
:103340002348FDF78DF92348FFF792FA2248FFF74B
:103350008FFA2248FFF78CFA2148FFF789FA7CB9E7
:103360001C48FFF7A5FA1C48FFF7A2FA1B48FFF715
:103370009FFA1B48FFF79CFAC820FDF7DFFE17E015
:1033800004F0010010B11348FFF782FA04F00200C4
:1033900010B11148FFF77CFA04F0040010B10F4897
:1033A000FFF776FA04F0080010B10D48FFF770FA45
:1033B0003220FDF7C3FE0B480068401C0949086035
:1033C00000BFBAE77400002020000020B4010020F4
:1033D000380000200000002008000020100000201D
:1033E00018000020480000204FF04070E1EE100A65
:1033F00070470006101600061016000000000000BE
:103400000000010203040607080900000000010291
:103410000304000034340008000000207C00000099
:10342000C4010008B03400087C000020FC08000043
:10343000E0010008000C024001000000000C024006
:10344000020000000010024000400000000C02409A
:1034500000200000000C02400008000000000000F6
:10346000001002400080000000000000000000008A
:10347000000000000000000000000000000000004C
:10348000000000000000000000000000000000003C
:1034900010000000010000000024F4000000000003
:1034A0000000000000000000D007D007D007D007C0
:040000050800018965
:00000001FF
