:020000040800F2
:10000000C80B002069020008ED3C000831340008EC
:10001000E93C0008E107000865490008000000000D
:100020000000000000000000000000002140000867
:10003000D309000800000000813F000823400008A9
:10004000830200088302000883020008830200087C
:10005000830200088302000883020008830200086C
:10006000830200088302000883020008830200085C
:10007000830200088302000883020008830200084C
:10008000830200088302000883020008830200083C
:10009000830200088302000883020008830200082C
:1000A000830200088302000883020008830200081C
:1000B00083020008F540000883020008830200085C
:1000C00083020008830200088302000883020008FC
:1000D00083020008354900084549000855490008D1
:1000E00083020008830200088302000883020008DC
:1000F00083020008830200088302000883020008CC
:1001000083020008830200088302000883020008BB
:1001100083020008830200088302000883020008AB
:10012000A90800088302000883020008830200086F
:10013000830200088302000883020008830200088B
:10014000830200088302000883020008830200087B
:100150008302000883020008B9080008830200082F
:10016000830200088302000883020008830200085B
:1001700083020008830200088302000800000000D8
:10018000830200088302000800F002F800F05CF827
:100190000AA090E8000C82448344AAF10107DA45E2
:1001A00001D100F051F8AFF2090EBAE80F0013F0D8
:1001B000010F18BFFB1A43F00103184794660000B3
:1001C000B46600000A444FF0000C10F8013B13F035
:1001D000070408BF10F8014B1D1108BF10F8015BA0
:1001E000641E05D010F8016B641E01F8016BF9D193
:1001F00013F0080F1EBF10F8014BAD1C0C1B09D1EA
:100200006D1E58BF01F801CBFAD505E014F8016B5B
:1002100001F8016B6D1EF9D59142D6D370470000ED
:100220000023002400250026103A28BF78C1FBD8FF
:10023000520728BF30C148BF0B6070471FB506F09A
:100240005CFA1FBD10B510BD00F0E2F81146FFF7D3
:10025000F5FF05F079F900F000F903B4FFF7F2FFBC
:1002600003BC00F003F90000094880470948004733
:10027000FEE7FEE7FEE7FEE7FEE7FEE7FEE7FEE756
:10028000FEE7FEE704480549054A064B70470000B3
:10029000E140000889010008C8050020C80B0020C3
:1002A000C8070020C807002053EA020C00F069804C
:1002B0002DE9F04B4FF00006002B1FBFB3FA83F57A
:1002C00003FA05F424FA05F65E4012BF1643B2FAAB
:1002D00082F502FA05F4C5F120051EBF22FA05FCDD
:1002E00044EA0C04203556EA044C4FEA144418BF83
:1002F000641C4FF000084FF00009904271EB030CB2
:1003000039D3002919BFB1FA81F701FA07F6B0FA1B
:1003100080F700FA07F6C7F120071EBF20FA07FC96
:1003200046EA0C062037B6FBF4FCA7EB0507103FA6
:1003300007F01F0BCBF120060CFA0BFB2CFA06F68C
:1003400044BFB3460026202FA4BF5E464FF0000BEB
:100350005BEA060C08BF4FF0010B19EB0B09ABFB76
:10036000027C48EB0608C01B06FB02CC0BFB03CC4F
:1003700071EB0C01C1E70B46024641464846BDE819
:10038000F08B13B54FF000004FF00001AFF3008089
:10039000BDE81C4070474FF0000200B5134694467C
:1003A0009646203922BFA0E80C50A0E80C50B1F1CD
:1003B0002001BFF4F7AF090728BFA0E80C5048BFE1
:1003C0000CC05DF804EB890028BF40F8042B08BF7F
:1003D000704748BF20F8022B11F0804F18BF00F87B
:1003E000012B704770477047704710B500F008F850
:1003F000006810BD10B5044600F002F8046010BD9E
:1004000000487047640500200048704764050020DC
:100410007546FFF7F9FFAE4605006946534620F0E2
:100420000700854618B020B5FFF72CFFBDE8204037
:100430004FF000064FF000074FF000084FF0000BA0
:1004400021F00701AC46ACE8C009ACE8C009ACE853
:10045000C009ACE8C0098D46704710B50446AFF33B
:1004600000802046BDE81040FFF7F7BE0149182084
:10047000ABBEFEE7260002007047000010B5002169
:10048000074802F047FA0421054802F043FA002128
:10049000044802F03FFA0421024802F03BFA10BD82
:1004A000FC0100201C030020002810DB114AD26848
:1004B000824202D20F4AD26800E0024691B20D4A4F
:1004C0001268916300220B4B1B685A6310E0094AC3
:1004D000D26843429A4202D2064AD26800E04242BF
:1004E00091B20022034B1B689A63024A126851635F
:1004F00070470000FC010020002810DB114AD26880
:10050000824202D20F4AD26800E0024691B20E4AFD
:100510001268516300220C4B1B689A6310E0094A71
:10052000D26843429A4202D2064AD26800E042426E
:1005300091B20022044B1B685A63034A126891630C
:1005400070470000FC0100201C03002070B5054628
:10055000AC6B206C00F0500050BB206C40F400707D
:1005600020642068806800F04050E8B9207ED8B947
:100570002068C06A00F4700020B12068806800F430
:10058000806088B92068406820F0200021684860B9
:10059000206C20F480702064206C00F4805018B926
:1005A000206C40F001002064204600F005FB0BE0C9
:1005B000206C00F0100018B1204600F0FFFA03E0B4
:1005C000A06BC16C2846884770BD70B50546AC6B02
:1005D00040202064606C40F004006064204600F01D
:1005E000EDFA70BD70B50446A56B284600F0E5FA3B
:1005F00070BD000055494A6822F440324A604A689A
:1006000043681A434A600268526822F480720368A1
:100610005A6002685368026943EA022203685A601A
:100620000268526822F0407203685A600268526899
:1006300083681A4303685A600268926822F4006271
:1006400003689A6002689268C3681A4303689A60F4
:100650003F4B826A9A4218D00268926822F0706218
:1006600003689A6002689268836A1A4303689A6012
:100670000268926822F0405203689A6002689268A9
:10068000C36A1A4303689A600BE00268926822F01A
:10069000706203689A600268926822F040520368B0
:1006A0009A600268926822F0020203689A60026807
:1006B0009368027E43EA420203689A602022125C39
:1006C000A2B10268526842F4006203685A6002688C
:1006D000526822F4604203685A6002685368426AB2
:1006E000521E43EA423203685A6005E002685268CB
:1006F00022F4006203685A600268D26A22F470022F
:100700000368DA620268D36A828B521E43EA02529D
:100710000368DA620268926822F4007203689A60E1
:100720000268936890F8302043EA422203689A6096
:100730000268926822F4806203689A600268936893
:10074000426943EA822203689A60704700230140AD
:100750000100000F1D48008900EE900AB8EE600A03
:10076000DFED1B2A20EE220ADFED1A2A80EE223A64
:10077000F0EE431AB3EE030A21EE800AB0EE401AFF
:10078000B2EE080A31EE400ADFED132A80EE223A7B
:100790009FED120A23EE000AB0EE402A9FED0F0AE9
:1007A000B4EEC02AF1EE10FA02DD9FED0C0A70479C
:1007B000B2EE080A71EE402A9FED073A82EE830AF4
:1007C000DFED062A20EE220AF1E70000580500209E
:1007D00033335340000080459A9999400000C84245
:1007E00000BFFEE710B50024002309E0184600F022
:1007F0001BF818B1012098402043C4B2581CC3B262
:10080000042BF3DB204610BD10B5044801F088FC32
:1008100005220349034800F09FFA10BD8C02002016
:1008200058050020540100200146042901DB002066
:100830007047064830F81100054A32F811209042FE
:1008400001DA0120F4E70020F2E70000580500205B
:10085000D400002010B5002400F00AF808B144F0DC
:10086000010400F013F808B144F00204204610BD62
:1008700010B54FF48041044800F0A0FE08B90120F3
:1008800010BD0020FCE700000008024010B54FF446
:100890008051044800F092FE08B9012010BD0020EC
:1008A000FCE70000000C024010B5024800F098FB85
:1008B00010BD00009C01002010B5024800F090FB24
:1008C00010BD00003C0400200146087810381823B1
:1008D000B0FBF3F20848805CC865032A05D90868B4
:1008E0006FF30900001D886503E008686FF30900D5
:1008F0008865886D704700000E670008014600207B
:100900008A6A8B69CBB932B1012A0DD0022A03D091
:10091000032A10D10EE000BFCB6A03F08073B3F15D
:10092000807F00D1012007E0CB6AB3F1C07F00D106
:10093000012001E000E000BF34E08B69B3F5005F07
:100940001AD132B1012A07D0022A03D0032A11D1C9
:100950000AE000BF01200EE0CB6A03F08073B3F120
:10096000807F00D1012006E0CB6AB3F1C07F00D1C7
:10097000012000E000BF15E032B1012A05D0022AB3
:1009800004D0032A0CD103E000BF00BF012008E01F
:10099000CB6A03F08073B3F1807F00D1012000E0C7
:1009A00000BF00BF704730B50468246824F4802479
:1009B00005682C60046863608468402C04D1046876
:1009C000A2600468E16003E00468A1600468E2607A
:1009D00030BD7047014608680068406A03B28888E5
:1009E00080B21A1AB2F5004F01DBA2F5803212F57F
:1009F000004F01DA02F580324868104448604868C8
:100A0000704770B504460D462560002060600421E3
:100A1000206801F053FD70BD002102681268516228
:100A20004160704772B600BFFEE7000038B502466D
:100A30000020009000BF92F83C00012801D1022064
:100A400038BD012082F83C0000BF0868092816D98B
:100A50001068C0680C780A3C04EB44050724AC40DD
:100A6000A0431468E0600C780A3C04EB44048868F6
:100A7000A0401468E46820431468E06013E0106844
:100A800000690C7804EB44050724AC40A0431468CB
:100A900020610C7804EB44048868A0401468246941
:100AA0002043146820614868072817D21068406BFB
:100AB0000C79641E04EB84051F24AC40A043146829
:100AC0006063088880B20C79641E04EB8404A04043
:100AD0001468646B20431468606331E048680D2833
:100AE00017D21068006B0C79E41F04EB84051F24F7
:100AF000AC40A04314682063088880B20C79E41FDE
:100B000004EB8404A0401468246B20431468206321
:100B100016E01068C06A0C790D3C04EB84051F24B4
:100B2000AC40A0431468E062088880B20C790D3CA8
:100B300004EB8404A0401468E46A20431468E06273
:100B4000194B1A4C1068A04206D10868122803D12C
:100B5000586840F480005860144C1068A0421CD1C2
:100B60000868102802D00868112816D1586840F487
:100B700000005860086810280FD10D4800680D4C1F
:100B8000B0FBF4F000EB80004000009002E0009821
:100B9000401E009000980028F9D100BF002082F884
:100BA0003C0000BF00BF4BE7002301400020014094
:100BB000CC00002040420F00704770477047000093
:100BC00070B5044600250CB9012070BD1549A06A16
:100BD000884200D000BF206C30B9204600F024F8D5
:100BE0000020606484F83C00206C00F0100088B99C
:100BF000206C20F4885040F0020020642046FFF76B
:100C0000F9FC00206064206C20F0020040F001003C
:100C1000206400E0012500BF002084F83C0000BFF4
:100C20002846D2E70100000F10B586B00446142113
:100C300001A8FFF7B0FB4149206888427CD100BF82
:100C4000002000903E48006840F480703C490860F5
:100C50000846006800F48070009000BF00BF00BF2D
:100C60000020009036481438006840F004003449F1
:100C7000143908600846006800F00400009000BFC6
:100C800000BF00BF002000900846006840F001004F
:100C900008600846006800F00100009000BF00BF37
:100CA00000BF002000900846006840F00200086085
:100CB0000846006800F00200009000BF00BF1C2042
:100CC0000190032002900020039001A91D4800F02C
:100CD0007BFB80200190032002900020039001A95B
:100CE000194800F071FB01200190032002900020C0
:100CF000039001A9154800F067FB154815490860E5
:100D000000204860002113488160C1604FF4806179
:100D1000016149004161890081614911C16100217E
:100D20000162416200F07CFA08B1FFF77BFE00BF70
:100D30000848A063846300BF06B010BD00200140D6
:100D40004438024000080240000002400004024013
:100D5000106402409C010020F8B504460D4616467A
:100D60000020009000BF94F83C00012801D102202F
:100D7000F8BD012084F83C0000BF2068806800F0C6
:100D80000100A0B92068806840F0010021688860F7
:100D9000554800685549B0FBF1F000EB4000009069
:100DA00002E00098401E009000980028F9D12068C9
:100DB000806800F48070B0F5807F05D1206880687D
:100DC00020F48070216888602068806800F001004D
:100DD00000287ED0206C40F20161884340F480708E
:100DE00020642068406800F4806028B1206C20F402
:100DF000005040F480502064206C00F48050B0F526
:100E0000805F04D1606C20F00600606401E0002087
:100E1000606400BF002084F83C0000BF344F3548B8
:100E2000A16BC8633448A16B08643448A16BC864E3
:100E30006FF02200216808602068406840F0806000
:100E4000216848602068806840F48070216888606C
:100E5000226802F14C0133462A46A06B00F056FA94
:100E6000786800F01F0018BB25492068884213D01D
:100E700024492068884204D1381D006800F01F0012
:100E800050B12149206888422BD11948001D0068C3
:100E900000F01F00102824D22068806800F0405025
:100EA000F8B92068806840F080402168886018E0C8
:100EB00013492068884214D12068806800F04050AF
:100EC00078B92068806840F080402168886008E038
:100ED000FFE7206C40F010002064606C40F00100DF
:100EE0006064002044E70000CC00002040420F0076
:100EF000002301404D050008E5050008CB0500086A
:100F000000200140002101400022014070B504464C
:100F1000A56D00F061FB064694F83500022808D064
:100F20008020606500BF002084F8340000BF0120ED
:100F300070BD2068006820F01600216808602068F5
:100F4000406920F0800021684861206C08B9A06CDD
:100F500028B12068006820F0080021680860206837
:100F6000006820F001002168086010E000F034FB08
:100F7000801B05280BD920206065032084F83500EC
:100F800000BF002084F8340000BF0320D0E72068B1
:100F9000006800F001000028E8D194F85C103F20C0
:100FA0008840A860012084F8350000BF002084F844
:100FB000340000BF00BFBBE7014691F835000228AE
:100FC00003D08020486501207047052081F8350056
:100FD0000868006820F001000A6810600020F3E74C
:100FE000F8B50446002000908C4800684FF4165174
:100FF000B0FBF1F7A56D2E6894F85C1008208840CE
:10100000304098B12068006800F0040070B120689A
:10101000006820F004002168086094F85C10082043
:101020008840A860606D40F00100606594F85C1035
:1010300001208840304068B12068406900F080009D
:1010400040B194F85C1001208840A860606D40F0C9
:101050000200606594F85C1004208840304068B15C
:101060002068006800F0020040B194F85C10042091
:101070008840A860606D40F00400606594F85C10E2
:1010800010208840304078B32068006800F00800E5
:1010900050B394F85C1010208840A8602068006865
:1010A00000F4802080B12068006800F4002028B996
:1010B000206CC8B12046216C884715E0A06C98B11F
:1010C0002046A16C88470FE02068006800F480701B
:1010D00028B92068006820F0080021680860206CAA
:1010E00010B12046216C884794F85C10202088407D
:1010F0003040002865D02068006800F0100000280B
:101100005FD094F85C1020208840A86094F83500E7
:10111000052828D12068006820F0160021680860A2
:101120002068406920F0800021684861206C08B97F
:10113000A06C28B12068006820F0080021680860D1
:1011400094F85C103F208840A860012084F83500A6
:1011500000BF002084F8340000BF206D10B120468D
:10116000216D8847F8BD2068006800F4802080B1B8
:101170002068006800F4002028B9606C10B1204697
:10118000616C88471DE0E06BD8B12046E16B884771
:1011900017E02068006800F4807068B92068006873
:1011A00020F0100021680860012084F8350000BF9D
:1011B000002084F8340000BFE06B10B12046E16BE2
:1011C0008847606D38B3606D00F00100F0B1052014
:1011D00084F835002068006820F00100216808606C
:1011E00000BF0098401C0090B84200D905E020687C
:1011F000006800F001000028F3D100BF012084F84E
:10120000350000BF002084F8340000BFE06C10B14E
:101210002046E16C884700BFA4E70000CC00002016
:101220002DE9F0410446002500F0D6F9074614B92F
:101230000120BDE8F081606A00B100BF022084F89F
:10124000350000BF002084F8340000BF206800682B
:1012500020F00100216808600AE000F0BDF9C01B21
:10126000052805D920206065032084F83500E0E7D3
:101270002068006800F001000028EED120680568B1
:1012800021480540D4E901010843E1680843216988
:10129000084361690843A1690843E1690843216A79
:1012A00008430543606A042803D1D4E90B010843CD
:1012B0000543206805602068456925F00705606AD8
:1012C0000543606A04280DD1A06A0543E06A48B16D
:1012D0002046FFF713FB28B140206065012084F809
:1012E0003500A6E7206845612046FFF7EDFA06467F
:1012F00094F85C103F208840B060002060650120B9
:1013000084F83500002094E73F8010F02DE9F04785
:1013100004460D4616461F464FF00008D4F8589074
:1013200000BF94F83400012802D10220BDE8F08704
:10133000012084F8340000BF94F83500012825D13D
:10134000022084F83500002060653B46324629467D
:101350002046FFF728FB94F85C103F208840C9F82E
:1013600008002068006840F0160021680860206CC2
:1013700028B12068006840F00800216808602068F3
:10138000006840F001002168086006E000BF00200E
:1013900084F8340000BF4FF002084046C6E7000062
:1013A00070B5044600F018F906462546681C10B1D1
:1013B00004480078054400BF00F00EF9801BA842E5
:1013C000FAD370BDC8000020F8B502460B460025D0
:1013D000002400200021D6E0012606FA01F51E684F
:1013E00006EA0504AC4274D11E7906F00306012E0C
:1013F00004D01E7906F00306022E13D190684F0028
:101400000326BE40B0434F00DE68BE4030439060CC
:10141000506801268E40B0431E79C6F300168E40F8
:10142000304350601E7906F00306032E09D0D068C1
:101430004F000326BE40B0434F009E68BE4030437D
:10144000D0601E7906F00306022E13D1CF0802F1F8
:10145000200656F827004E07F70E0F26BE40B04371
:101460004F07FF0E1E69BE403043CF0802F1200631
:1014700046F8270010684F000326BE40B0431E798F
:1014800006F003064F00BE40304310605E6806F46D
:101490004036002E76D000BF002600963C4E3668BF
:1014A00046F480463A4F3E603E46366806F4804633
:1014B000009600BF00BF374E8F0856F827008E07F2
:1014C000370F0F26BE40B043334EB24202D1002642
:1014D00024E057E0314EB24201D101261EE0304EE9
:1014E000B24201D1022619E02E4EB24201D10326AA
:1014F00014E02D4EB24201D104260FE02B4EB24231
:1015000001D105260AE02A4EB24201D1062605E0A5
:10151000284EB24201D1072600E008268F073F0F70
:10152000BE4030431B4E8F0846F82700224E3068DD
:10153000A0435E6806F4801606B120431E4E30605C
:10154000361D3068A0435E6806F4001606B12043DD
:10155000194E361D3060184E361F3068A0435E6845
:1015600006F4003606B12043134E361F3060361F96
:101570003068A0435E6806F4803606B120430E4E04
:10158000083E3060491C1029FFF426AFF8BD00006A
:101590004438024008380140000002400004024084
:1015A00000080240000C02400010024000140240FB
:1015B00000180240001C0240083C0140024613692A
:1015C0000B400BB1012000E0002070470AB181619F
:1015D00001E00B0483617047014800687047000018
:1015E000C000002003480068034909780844014905
:1015F00008607047C0000020C800002010B50D48EA
:10160000006840F400700B4908600846006840F428
:10161000806008600846006840F48070086003201D
:1016200000F0A6F80F2000F007F800F02BF80020DB
:1016300010BD0000003C024070B504460E48007822
:101640004FF47A71B1FBF0F00C490968B1FBF0F589
:10165000284600F02FFC08B1012070BD102C07D2E5
:1016600000222146501E00F045F80548046001E0C4
:101670000120F2E70020F0E7C8000020CC000020A5
:10168000C400002008B500BF002000900E4800688C
:1016900040F480400C4908600846006800F480402F
:1016A000009000BF00BF00BF00200090081F00682E
:1016B00040F08050091F08600846006800F0805024
:1016C000009000BF00BF08BD4438024001460846F4
:1016D00000280DDB00BF00BF00F01F0301229A406D
:1016E00043099B0003F1E023C3F8002100BF00BFC2
:1016F00000BF70472DE9F05F80460D461646002773
:1017000003F04AF9074639462A46334601F00700F6
:10171000C0F1070ABAF1040F02D94FF0040A01E040
:10172000C0F1070AD14600F1040ABAF1070F02D24C
:101730004FF0000A01E0A0F1030AD4464FF0010A7D
:101740000AFA09FAAAF1010A0AEA020A0AFA0CFAE2
:101750004FF0010B0BFA0CFBABF1010B0BEA030B87
:101760004AEA0B042146404603F01EF9BDE8F09F0B
:1017700000BF00F00702064B19684FF6FF0319403F
:10178000044B0B4343EA0221014B196000BF704731
:101790000CED00E00000FA0570B504460D460CB9EA
:1017A000012070BD5848006800F00700A84209D227
:1017B00055490D700846006800F00700A84201D0A6
:1017C0000120EEE7207800F0020002281DD12078E9
:1017D00000F00400042805D14C48006840F4E050B3
:1017E0004A490860207800F00800082805D14748D9
:1017F000006840F46040454908604448006820F0B3
:10180000F000A168084341490860207800F0010019
:10181000A8B36068012807D13C4808380068C0F3C5
:101820004040B8B90120BCE76068022802D0606877
:10183000032807D1354808380068C0F3406048B92C
:101840000120AEE7314808380068C0F3400008B90D
:101850000120A6E72D48006820F0030061680843D6
:101860002A490860FFF7B8FE064609E0FFF7B4FE14
:10187000801B41F28831884202D9032091E707E0BA
:101880002248006800F00C006168B0EB810FEDD1D8
:101890001D48006800F00700A84209D91A490D70D8
:1018A0000846006800F00700A84201D0012078E750
:1018B000207800F00400042807D11448006820F4C0
:1018C000E050E168084311490860207800F0080002
:1018D000082808D10D48006820F46040216940EADA
:1018E000C1000A49086000F03FF808490968C1F3DF
:1018F0000311074A515CC840064908600648006861
:10190000FFF79AFE00204CE7003C024008380240F6
:1019100016670008CC000020C400002001480068C1
:1019200070470000CC00002000B5FFF7F7FF044926
:101930000968C1F38221034A515CC84000BD000020
:10194000083802402667000800B5FFF7E7FF0449A2
:101950000968C1F34231034A515CC84000BD000030
:1019600008380240266700082DE9F04700240025CA
:101970000026A1462548006800F00C0020B104288C
:1019800005D008283AD105E0DFF8849039E0DFF887
:10199000849036E01D48001F006800F03F041B489B
:1019A000001F006800F4800078B11A481749091F29
:1019B0000968C1F38811A0FB01700146224600238B
:1019C0003846FEF771FC05460EE011480F49091F25
:1019D0000968C1F38811A0FB01700146224600236B
:1019E0003846FEF761FC05460848001F0068C0F352
:1019F0000140401C4600B5FBF6F902E0DFF810900C
:101A000000BF00BF4846BDE8F0870000083802402C
:101A10000024F40000127A00F8B504460CB9012045
:101A2000F8BD207800F00100002874D0F948006863
:101A300000F00C0004280DD0F648006800F00C00FF
:101A4000082813D1F348001F006800F48000B0F5A7
:101A5000800F0BD1EF4808380068C0F340400028E1
:101A600059D06068002856D10120D9E700BF6068CE
:101A7000B0F5803F08D1E7480838006840F480306E
:101A8000E449083908601EE06068B0F5A02F0DD168
:101A9000E0480838006840F48020DE4908390860D2
:101AA0000846006840F4803008600CE0D9480838E7
:101AB000006820F48030D74908390860084600687B
:101AC00020F48020086000BF606890B1FFF784FDBB
:101AD000054606E0FFF780FD401B642801D903207E
:101AE0009EE7CC4808380068C0F340400028F1D099
:101AF00011E0FFF771FD054606E0FFF76DFD401BA5
:101B0000642801D903208BE7C24808380068C0F375
:101B100040400028F1D1207800F0020002285FD177
:101B2000BC48006800F00C0058B1BA48006800F0EA
:101B30000C0008281CD1B748001F006800F4800082
:101B4000B0B9B44808380068C0F3400020B1E0687C
:101B5000012801D0012063E7AE480838006820F072
:101B6000F800216940EAC100AA490839086037E055
:101B7000E06800B30120A8490860FFF72DFD054685
:101B800006E0FFF729FD401B022801D9032047E7A3
:101B9000A04808380068C0F340000028F1D09D48F4
:101BA0000838006820F0F800216940EAC10099492E
:101BB0000839086014E0002097490860FFF70CFD21
:101BC000054606E0FFF708FD401B022801D9032067
:101BD00026E7904808380068C0F340000028F1D19B
:101BE000207800F0080008282CD16069A8B10120F5
:101BF0008A490860FFF7F0FC054606E0FFF7ECFCB9
:101C0000401B022801D903200AE782486C30006893
:101C1000C0F340000028F1D014E000207F490860A4
:101C2000FFF7DAFC054606E0FFF7D6FC401B02286A
:101C300001D90320F4E677486C300068C0F3400017
:101C40000028F1D1207800F00400042870D100278A
:101C500070483830006800F0805090B900BF002014
:101C600000906C483830006840F080506949383145
:101C700008600846006800F08050009000BF00BF78
:101C800001276748006800F48070B0B964480068B4
:101C900040F4807062490860FFF79EFC054606E04C
:101CA000FFF79AFC401B022801D90320B8E65C48E4
:101CB000006800F480700028F2D000BFA0680128FE
:101CC00008D154486830006840F00100514968313B
:101CD00008601DE0A06805280DD14E4868300068F6
:101CE00040F004004B49683108600846006840F045
:101CF000010008600CE047486830006820F00100EF
:101D00004449683108600846006820F00400086013
:101D100000BFA068A8B1FFF75FFC054609E0FFF728
:101D20005BFC401B41F28831884202D9032077E6F0
:101D300026E0384868300068C0F340000028EED044
:101D400013E0FFF749FC054608E0FFF745FC401BA0
:101D500041F28831884201D9032061E62D4868307C
:101D60000068C0F340000028EFD1012F07D12948B7
:101D70003830006820F0805026493831086000BFB4
:101D8000A069002845D02348006800F00C0008280E
:101D90005DD0A069022845D100201F490866FFF7E1
:101DA0001BFC054606E0FFF717FC401B022801D983
:101DB000032035E6174808380068C0F34060002863
:101DC000F1D1D4E907010843616A40EA8111012297
:101DD000A06AC2EB500041EA00412C20005D41EABC
:101DE00000600C49091F086001200B490866FFF7D5
:101DF000F3FB054606E0FFF7EFFB401B022801D985
:101E000003200DE6034808380068C0F3406000284E
:101E1000F1D049E00838024000004742800E4742B6
:101E200000700040002021490866FFF7D5FB0546F9
:101E300006E0FFF7D1FB401B022801D90320EFE5A4
:101E40001B480068C0F340600028F2D12CE0A06974
:101E5000012800D1E4E51648001D0668A0690128A4
:101E600020D006F48001E06981421BD106F03F01D9
:101E7000206A814216D147F6C0703040616AB0EBEB
:101E8000811F0FD106F440310122A06AC2EB50003D
:101E9000B1EB004F06D106F070612C20005DB1EB74
:101EA000006F01D00120BBE50020B9E500004742EA
:101EB0000038024070B504462546681EB0F1807FA8
:101EC00001D301200FE0681E4FF0E02148610F218F
:101ED0004FF0FF3002F068FD00204FF0E0218861F4
:101EE00007200861002070BD7047704710B5034699
:101EF000002200BF93F83C00012801D1022010BD50
:101F0000012083F83C0000BF22F0FF00CC6840EACB
:101F1000040222F440708C6840EA040222F48060DB
:101F20004C6840EA040222F400600C6840EA0402B3
:101F300022F480500C6940EA040222F400504C69FB
:101F400040EA040222F48040CC6940EA04021868A6
:101F5000426400BF002083F83C0000BF00BFCEE712
:101F600030B502460B4600BF92F83C00012801D173
:101F7000022030BD012082F83C0000BF022082F820
:101F80003D00106844681068816824F07004186887
:101F9000044310684460184D1068A8421BD01068B4
:101FA000B0F1804F17D0154D1068A84213D0144DD2
:101FB0001068A8420FD0134D1068A8420BD0124DE4
:101FC0001068A84207D0114D1068A84203D0104DE8
:101FD0001068A84205D121F08001586801431068BB
:101FE0008160012082F83D0000BF002082F83C00A3
:101FF00000BF00BFBDE7000000000140000400403A
:1020000000080040000C0040000401400040014076
:102010000018004010B504460CB9012010BD94F81A
:102020003D0028B9002084F83C00204600F026F846
:10203000022084F83D00211D206802F063F8012091
:1020400084F8460000BF84F83E0001213F2001557E
:10205000402001554120015500BF00BF012084F8F8
:10206000420043200155442001554520015500BF41
:10207000012084F83D000020D0E7000038B5044678
:102080002349206888420FD100BF002000902148DA
:10209000006840F001001F4908600846006800F031
:1020A0000100009000BF32E01B49206888421AD12D
:1020B00000BF002000901748001F006840F0020099
:1020C0001449091F08600846006800F002000090EB
:1020D00000BF00BF002211461D20FFF70BFB1D2093
:1020E000FFF7F4FA13E00D49206888420FD100BFD2
:1020F000002000900748006840F4803005490860DF
:102100000846006800F48030009000BF00BF38BD72
:1021100000000140443802400004004000400140FB
:10212000014691F83D00012801D0012070470220AE
:1021300081F83D001A4B086898421BD00868B0F13E
:10214000804F17D0174B0868984213D0164B086879
:1021500098420FD0154B086898420BD0144B086872
:10216000984207D0134B0868984203D0124B086876
:1021700098420CD10868806800F00702062A0CD04B
:102180000868006840F001000B68186005E0086806
:10219000006840F001000B6818600020C6E70000EE
:1021A000000001400004004000080040000C004016
:1021B0000004014000400140001800402DE9F041BA
:1021C00004460D46002700BF94F83C00012802D1C8
:1021D0000220BDE8F081012084F83C0000BF02200D
:1021E00084F83D002068866826F0770626F47F464E
:1021F000206886602868502833D00CDC202850D016
:1022000004DC00284BD0102851D149E0302849D0B7
:1022100040284CD139E060282DD0702807D0B0F587
:10222000805F03D0B0F5005F41D10DE041E0D5E91A
:1022300002136A68206801F0EAFF2068866846F0A9
:1022400077062068866034E0D5E902136A68206862
:1022500001F0DDFF2068806840F4804021688860DC
:1022600027E0EA686968206802F0C2F85021206817
:1022700001F0D8FF1DE0EA686968206802F0CBF839
:102280006021206801F0CEFF13E0EA6869682068E9
:1022900002F0AEF84021206801F0C4FF09E000BF61
:1022A00000BF00BF2968206801F0BCFF01E00127E2
:1022B00000BF00BF012084F83D0000BF002084F86B
:1022C0003C0000BF384684E72DE9F04104460D4646
:1022D00014B90120BDE8F08194F83D0028B9002030
:1022E00084F83C00204600F053F8022084F83D00BA
:1022F0002068806844F20701884321688860211DB6
:10230000206801F0FFFE2068D0F808802068866908
:102310002068076A286840EA080840F203308643CC
:10232000A969A86840EA0120064340F60C408643AC
:102330004FF2F0008643E969E86840EA012006436D
:1023400028690001296A40EA0130064327F0220784
:1023500027F088076969686840EA01100743206828
:10236000C0F808802068866120680762012084F830
:10237000460084F83E0001213F200155012084F8E9
:10238000420043200155012084F83D000020A1E7D0
:1023900010B586B00446142101A8FDF7FCFF2068A3
:1023A000B0F1804F4CD100BF002000903F48006842
:1023B00040F001003D4908600846006800F0010057
:1023C000009000BF00BF00BF0020009037481038C9
:1023D000006840F00100354910390860084600687F
:1023E00000F00100009000BF00BF00BF002000907F
:1023F0000846006840F0020008600846006800F0E7
:102400000200009000BF00BF4FF400400190022086
:1024100002900020039004900120059001A9244817
:10242000FEF7D2FF082001900220029000200390C6
:1024300004900120059001A91E48FEF7C5FF32E077
:102440001D49206888422ED100BF00200090174807
:10245000006840F00800154908600846006800F070
:102460000800009000BF00BF00BF002000900F4890
:102470001038006840F001000C4910390860084627
:10248000006800F00100009000BF00BF0320019031
:10249000022002900020039004900220059001A9E0
:1024A0000348FEF791FF06B010BD0000403802401F
:1024B0000000024000040240000C00402DE9F043FF
:1024C00004460D4694F83E603F20075D94F8428034
:1024D000432010F804906DB9012E02D1B8F1010F1C
:1024E00002D00120BDE8F083022084F83E0084F889
:1024F000420025E0042D0CD1012F02D1B9F1010FCA
:1025000001D00120EEE702213F2001554320015573
:1025100016E0012E07D1012F05D1B8F1010F02D12C
:10252000B9F1010F01D00120DCE7022084F83E0060
:1025300002213F200155022084F84200432001552A
:1025400015B1042D0CD105E001220021206801F015
:102550004DFE10E001220421206801F047FE0AE050
:1025600001220021206801F041FE0122042120689F
:1025700001F03CFE00BF00BF2068006840F0010091
:10258000216808600020ADE7704770B504462068F8
:10259000C5682068066906F00200022819D105F016
:1025A0000200022815D1401F216808610120207710
:1025B0002068806900F0030018B12046FFF7E4FFAF
:1025C00005E0204600F0EEF8204600F0A2F90020D9
:1025D000207706F00400042819D105F0040004282F
:1025E00015D1C043216808610220207720688069E6
:1025F00000F4407018B12046FFF7C6FF05E0204602
:1026000000F0D0F8204600F084F90020207706F092
:102610000800082819D105F00800082815D1C04382
:1026200021680861042020772068C06900F0030059
:1026300018B12046FFF7A8FF05E0204600F0B2F8E9
:10264000204600F066F90020207706F010001028E0
:1026500019D105F01000102815D1C0432168086178
:10266000082020772068C06900F4407018B1204627
:10267000FFF78AFF05E0204600F094F8204600F0BE
:1026800048F90020207706F0010048B105F001006C
:1026900030B16FF0010021680861204600F0C0F9F8
:1026A00006F08000802809D105F08000802805D13F
:1026B000C043216808612046FFF716FC06F0400081
:1026C000402809D105F04000402805D1C0432168C9
:1026D0000861204600F0A5F906F02000202809D165
:1026E00005F02000202805D1C0432168086120465C
:1026F000FFF7FBFB70BD000010B586B00446142147
:1027000001A8FDF748FE2349206888421ED100BF7A
:10271000002000902048006840F010001E4908602A
:102720000846006800F01000009000BF00BF4FF4A2
:10273000206001900220029000200390049001206C
:10274000059001A91548FEF73FFE20E014492068D6
:1027500088421CD100BF002000900F48006840F064
:1027600010000D4908600846006800F01000009055
:1027700000BF00BF60200190022002900020039063
:1027800004900320059001A90448FEF71DFE06B041
:1027900010BD00000000014030380240001002402F
:1027A0000040014070472DE9F04104460D461646B1
:1027B000002700BF94F83C00012802D10220BDE8A8
:1027C000F081012084F83C0000BF36B1042E1BD0FC
:1027D000082E31D00C2E5ED145E02946206801F04C
:1027E0002BFD2068806940F008002168886120681E
:1027F000806920F004002168886120688069296967
:1028000008432168886148E02946206801F04CFDB2
:102810002068806940F400602168886120688069D0
:1028200020F480602168886120688069296940EA15
:1028300001202168886130E02946206801F072FD9E
:102840002068C06940F008002168C8612068C0693C
:1028500020F004002168C8612068C0692969084324
:102860002168C86119E02946206801F097FD2068B9
:10287000C06940F400602168C8612068C06920F424
:1028800080602168C8612068C069296940EA012028
:102890002168C86101E0012700BF00BF00BF002020
:1028A00084F83C0000BF384689E710B504460CB9EF
:1028B000012010BD94F83D0028B9002084F83C00A8
:1028C000204600F025F8022084F83D00211D2068F4
:1028D00001F018FC012084F8460000BF84F83E0097
:1028E00001213F200155402001554120015500BFE5
:1028F00000BF012084F842004320015544200155C7
:102900004520015500BF012084F83D000020D0E79C
:102910007047704770B504460D4615B994F83E00EF
:102920000BE0042D02D13F20005D06E0082D02D10E
:102930004020005D01E04120005D012801D0012020
:1029400070BD1DB9022084F83E000EE0042D03D1B5
:1029500002213F20015508E0082D03D1022140202B
:10296000015502E00221412001550122294620683B
:1029700001F03CFC23492068884203D022492068AA
:10298000884201D1012000E0002028B12068406C7D
:1029900040F40040216848641A49206888421BD0EE
:1029A0002068B0F1804F17D018492068884213D0B2
:1029B0001749206888420FD01649206888420BD0FA
:1029C00011492068884207D013492068884203D003
:1029D0001249206888420CD12068806800F0070600
:1029E000062E0CD02068006840F0010021680860C5
:1029F00005E02068006840F00100216808600020C0
:102A00009EE7000000000140000401400004004077
:102A100000080040000C0040004001400018004049
:102A200070477047704770472DE9F84F044620689B
:102A300005682068C668206847694FF00009CA46E3
:102A400005F00F09B9F1000F0AD105F0200038B1E7
:102A500006F0200020B1204601F041FDBDE8F88FCE
:102A6000B9F1000F7CD007F0010018B906F490709E
:102A7000002875D005F0010030B106F4807018B15F
:102A8000606C40F00100606405F0040030B107F0B4
:102A9000010018B1606C40F00200606405F00200B3
:102AA00030B107F0010018B1606C40F004006064C0
:102AB00005F0080048B106F0200010B907F0010049
:102AC00018B1606C40F008006064606C002846D06B
:102AD00005F0200028B106F0200010B1204601F0DA
:102AE000FEFC20684069C0F3801A606C00F00800AA
:102AF00010B9BAF1000F2DD0204601F0AAFC2068D1
:102B0000406900F04000402820D100BF00BF21688C
:102B1000143151E8001F21F040002168143141E8D0
:102B20000002002AF3D100BFE06B50B17748E16B9F
:102B30000865E06BFEF740FA88B1E06B016D8847ED
:102B40000DE02046FFF76FFF09E009E02046FFF7A0
:102B50006AFF04E02046FFF766FF002060647DE71F
:102B6000206B012878D105F01000002874D006F001
:102B700010000028FAD000BF0020009020680068F4
:102B8000009020684068009000BF00BF2068406946
:102B900000F04000402860D1E06B006840681FFAF8
:102BA00080F8B8F1000F56D0A08D404553DDA4F851
:102BB0002E80E06BC069B0F5807F43D000BF00BFBE
:102BC00021680C3151E8001F21F4807021680C311C
:102BD00041E80002002AF3D100BF00BF00BF216816
:102BE000143151E8001F21F001002168143141E83F
:102BF0000002002AF3D100BF00BF00BF21681431DA
:102C000051E8001F21F040002168143141E8000222
:102C1000002AF3D100BF202084F842000020206366
:102C200000BF00BF21680C3151E8001F21F01000E7
:102C300021680C3141E80002002AF3D100BFE06BAB
:102C4000FEF764F902206063A08DE28D801A81B2E4
:102C50002046FFF7E7FE01E742E0A08DE18D401A34
:102C60001FFA80F8E08DD0B3B8F1000F37D000BF65
:102C700000BF21680C3151E8001F21F490702168D9
:102C80000C3141E80002002AF3D100BF00BF00BFB1
:102C90002168143151E8001F21F00100216814312E
:102CA00041E80002002AF3D100BF202084F842004E
:102CB0000020206300BF00BF21680C3151E8001FD5
:102CC00021F0100021680C3141E80002002AF3D104
:102CD00000BF0220606341462046FFF7A3FEBDE629
:102CE00005F0800030B106F0800018B1204601F0F8
:102CF000ABFDB3E605F0400030B106F0400018B17E
:102D0000204601F0DCFBA9E600BFA7E63F4400082F
:102D100010B504460CB9012010BDA06900B100E057
:102D200000BF94F8410028B9002084F840002046F4
:102D300000F02AF8242084F841002068C06820F4BC
:102D400000502168C860204601F048FC20680069F6
:102D500020F49040216808612068406920F02A0032
:102D6000216848612068C06840F400502168C8604C
:102D700000206064202084F8410084F84200002094
:102D8000606300BFC8E7000010B586B00446142198
:102D900001A8FDF700FB6E492068884257D100BFAB
:102DA000002000906B48006840F0100069490860FE
:102DB0000846006800F01000009000BF00BF00BF90
:102DC0000020009063481438006840F00100614919
:102DD000143908600846006800F00100009000BF48
:102DE00000BF4FF4C06001900220029000200390C9
:102DF000032004900720059001A95748FEF7E4FA44
:102E00005648574908604FF00060486040215448D8
:102E100081600021C1604FF4806101610021416146
:102E20008161C16101624162FEF7FAF908B1FDF703
:102E3000F9FD00BF4A48A063846300BF0022114629
:102E40002520FEF757FC2520FEF740FC7DE0454994
:102E5000206888423AD100BF002000903D48001F02
:102E6000006840F400303B49091F086008460068CC
:102E700000F40030009000BF00BF00BF00200090B1
:102E800034481438006840F00800324914390860AA
:102E90000846006800F00800009000BF00BF6020F6
:102EA000019002200290002003900320049007204C
:102EB000059001A92C48FEF787FA0022114626202A
:102EC000FEF718FC2620FEF701FC3EE027492068AB
:102ED00088423AD100BF002000901E48001F0068C1
:102EE00040F480201B49091F08600846006800F470
:102EF0008020009000BF00BF00BF00200090154858
:102F00001438006840F0020012491439086008467D
:102F1000006800F00200009000BF00BF4FF4406066
:102F200001900220029000200390032004900720CB
:102F3000059001A90E48FEF747FA00221146272006
:102F4000FEF7D8FB2720FEF7C1FB06B010BD00003E
:102F5000001001404438024000000240B8640240C2
:102F60003C04002000440040000C024000480040A7
:102F70000004024070B504460D46164694F842001F
:102F800020280BD105B10EB9012070BD00202063AF
:102F900032462946204601F037FCF6E70220F4E7E6
:102FA00070B504460C492068884208D10B4800F0EF
:102FB00053FA0B2209490A48FFF7DCFF0AE00949E6
:102FC0002068884206D100F085F80578284600F090
:102FD000A1F900BF70BD0000004400409C04002027
:102FE000AC030020004800402DE9F84F04460E468F
:102FF000174699464FF0000A94F84100202850D116
:1030000006B117B90120BDE8F88F002060642120C7
:1030100084F84100FEF7E0FA8246A784E784A068BE
:10302000B0F5805F04D1206910B90025B04602E0F8
:1030300035464FF000081EE053460022802120460E
:10304000CDF8009001F030FC20B1202084F8410040
:103050000320D8E745B9B8F80000C0F3080021689C
:10306000486008F1020803E02878216848606D1C78
:10307000E08C401EE084E08C0028DDD15346002225
:1030800040212046CDF8009001F00EFC20B1202018
:1030900084F841000320B6E7202084F84100002096
:1030A000B1E70220AFE7704710B5FEF795FA044983
:1030B0000968401AC82802D900200249087010BDCA
:1030C000E8000020E100002001480078704700007F
:1030D000E000002000487047EC00002010B50446D6
:1030E00003480460012203490068FFF743FF10BD55
:1030F000DC000020EC0000202DE9F04F2DED088BC6
:1031000085B0F0EE408AB0EE609AB0EE418AF0EE03
:10311000619AB0EE42AAF0EE62AAB0EE43BAF2EEC5
:10312000040AB6EE000A08EEA00AF0EE408AF2EEBB
:10313000040AB6EE000A09EE200AB0EE409A9FEDAE
:103140006F0AF4EEC08AF1EE10FA02D29FED6B0A1C
:103150000BE09FED6B0AF4EEC08AF1EE10FA02DD8F
:103160009FED670A01E0B0EE680AF0EE408A9FED3D
:10317000630AB4EEC09AF1EE10FA02D29FED5F0A34
:103180000BE09FED5F0AB4EEC09AF1EE10FA02DD9B
:103190009FED5B0A01E0B0EE490AB0EE409A9FED68
:1031A000590AF4EEC09AF1EE10FA02D29FED550AD8
:1031B0000BE09FED550AF4EEC09AF1EE10FA02DD35
:1031C0009FED510A01E0B0EE690AF0EE409A9FEDE2
:1031D0004D0AB4EEC0AAF1EE10FA02D29FED490AF0
:1031E0000BE09FED490AB4EEC0AAF1EE10FA02DD41
:1031F0009FED450A01E0B0EE4A0AB0EE40AABDEEEE
:10320000E80A10EE100A06B2BDEEC90A10EE100A66
:1032100007B2BDEEE90A10EE100A4FFA80F8BDEED3
:10322000CA0A10EE100A4FFA80F9BDEEEA0A10EE53
:10323000100A40B20490BDEECB0A10EE100A0FFA4D
:1032400080FA05E09FED310A38EE000AB0EE408AC0
:10325000B5EEC08AF1EE10FAF4D305E09FED2B0A2B
:1032600038EE400AB0EE408A9FED280AB4EEC08ADC
:10327000F1EE10FAF2DAF2EE040AB6EE000A08EE07
:10328000200ABCEEC00A10EE100A1FFA80FB0020D4
:103290000090019002900390AA208DF800000DF19B
:1032A000010426806780A4F804B084F8068084F8BE
:1032B0000790BCEEEA0A10EE100A2072A4F809A0EA
:1032C0000025012005E01DF800102944CDB2411C65
:1032D000C8B20B28F7D98DF80C5055208DF80D0089
:1032E0004FF0FF330E22694609480068FFF77CFE65
:1032F00005B0BDEC088BBDE8F08F0000000000C7F2
:1033000000FEFF460000C8C20000C8420000B443EF
:10331000DC00002010B50446FEF75EF93A49096862
:10332000401AC82805D93948007810B1002037491B
:1033300008703648007806285DD2DFE800F00310F8
:103340001B26313DAA2C09D10020314908700120EB
:103350002E490870FEF740F92B4908604BE02D48D4
:1033600004702B480078204429490870022027491E
:10337000087040E02848047025480078204424491B
:10338000087003202149087035E023484470204824
:10339000007820441E49087004201C4908702AE067
:1033A0001B480078A04203D105201849087002E0AC
:1033B0000020164908701EE0002014490870552CA2
:1033C00018D114480078012814D11348007840B26D
:1033D000124908701048407840B211490870012025
:1033E000104908700D48007820B90D48007808B9D8
:1033F0000220087000BF00BF01220B490B48006883
:10340000FFF7B8FD10BD0000F4000020F10000201F
:10341000F0000020E0000020E2000020ED0000208D
:10342000EE000020EF000020EC000020DC00002077
:1034300000BFFEE7004870472805002010B504468D
:10344000034804600B2203490068FFF793FD10BD99
:10345000D00000204C05002010B5044620785528E7
:103460007ED16078512804D052283FD0532878D19B
:103470007CE0A078E17840EA012000B200EE100A7A
:10348000B8EEC00ADFED5C0A80EE201AB3EE000A47
:1034900021EE000A594880ED000A2079617940EA5E
:1034A000012000B200EE100AB8EEC00ADFED520AA9
:1034B00080EE201AB3EE000A21EE000A4F4880ED9C
:1034C000010AA079E17940EA012000B200EE100A79
:1034D000B8EEC00ADFED480A80EE201AB3EE000A0B
:1034E00021EE000A454880ED020A7DE0A078E178EF
:1034F00040EA012000B200EE100AB8EEC00ADFED8B
:103500003E0A80EE201A9FED3E0A21EE000A3B485B
:1035100080ED030A2079617940EA012000B200EED3
:10352000100AB8EEC00A9FED341AC0EE010A9FEDF2
:10353000340A20EE800A314880ED040AA079E1794E
:1035400040EA012000B200EE100AB8EEC00A9FED7A
:103550002A1AC0EE010A9FED2A0A20EE800A01E035
:1035600043E040E0254880ED050A3DE0A078E178A1
:1035700040EA012000B200EE100AF8EEC00A9FED0A
:103580001E1A80EE810ADFED1F0A20EE200A1B487A
:1035900080ED060A2079617940EA012000B200EE50
:1035A000100AB8EEC00ADFED140A80EE201A9FED73
:1035B000150A21EE000A114880ED070AA079E17989
:1035C00040EA012000B200EE100AF8EEC00A9FEDBA
:1035D0000A1A80EE810ADFED0B0A20EE200A074866
:1035E00080ED080A00E000BF00BF0B22214606481C
:1035F0000068FFF7BFFC10BD000000472805002051
:103600000000FA4400003443D00000200146C8798D
:10361000704710B504460020E071FDF7DDFFA060A3
:1036200010BD2DE9F0410446FDF7D6FF0546A188FF
:103630002068FDF7C3FF0646A07920B90EB9012026
:1036400006E0002004E0012E01D1012000E000206E
:103650000746E07930B1012810D002280BD00328AA
:1036600018D114E037B1A068281A322802D90220F4
:10367000E071A5600EE00120E0710BE037B9A068B1
:10368000281A322802D90320E071A56002E0002048
:10369000E07100BF00BFBDE8F08110B50446A0791D
:1036A00028B9A18801222068FDF790FF04E0A188D5
:1036B00000222068FDF78AFF10BD000010B5064803
:1036C000FFF7EBFF0548FFF7E8FF0548FFF7E5FFC9
:1036D0000448FFF7E2FF10BD0000002008000020B2
:1036E00010000020180000201FB50020009001905D
:1036F000029003902C482D4908600020486000216A
:103700002A488160012101610176002180F82010A2
:103710004FF08051C162491081620021C1600521D2
:10372000C161012180F830104161FDF749FA08B10B
:10373000FDF778F908200090012001900620029002
:1037400069461A48FDF772F908B1FDF76BF90C20CC
:1037500000900220019069461448FDF767F908B10E
:10376000FDF760F90D2000900320019069460F4895
:10377000FDF75CF908B1FDF755F90E200090042023
:10378000019069460948FDF751F908B1FDF74AF97A
:10379000072000900520019069460448FDF746F98E
:1037A00008B1FDF73FF91FBD002001405401002082
:1037B00008B500BF002000900E48006840F480006B
:1037C0000C4908600846006800F48000009000BFC3
:1037D00000BF002211463820FDF78CFF3820FDF78E
:1037E00075FF002211464620FDF784FF4620FDF7B5
:1037F0006DFF08BD3038024000B587B0142102A823
:10380000FCF7C9FD00BF002001904F48006840F060
:1038100010004D4908600846006800F01000019053
:1038200000BF00BF00BF002001900846006840F0C4
:10383000040008600846006800F00400019000BF22
:1038400000BF00BF002001900846006840F08000E3
:1038500008600846006800F08000019000BF00BFCB
:1038600000BF002001900846006840F00100086099
:103870000846006800F00100019000BF00BF00BFD3
:10388000002001900846006840F0020008600846E9
:10389000006800F00200019000BF00BF00BF0020E0
:1038A00001900846006840F008000860084600687B
:1038B00000F00800019000BF00BF012291032348DF
:1038C000FDF784FE012242F203012148FDF77EFE4E
:1038D0004FF480400290002003900120049002A940
:1038E0001C48FDF771FD4FF48040029001200390C9
:1038F00000200490059002A91448FDF765FD4FF4DF
:1039000000400290002003900120049002A90F487B
:10391000FDF75AFD4FF4C0500290002003900120A3
:10392000049002A90A48FDF74FFD42F203000290FD
:103930000120039000200490059002A90448FDF79F
:1039400043FD07B000BD00003038024000100240C7
:10395000000C02400008024000B595B00020119014
:103960001290139014900F9010901C2108A8FCF74F
:1039700012FD20216846FCF70EFD2F482F490860F4
:103980007720486000212D4881606321C1600021BB
:10399000016141618161FEF73DFB08B1FDF742F82D
:1039A0004FF48050119011A92448FEF707FC08B18C
:1039B000FDF738F82148FEF778FF08B1FDF732F837
:1039C00000200F9010900FA91C48FEF7C9FA08B10B
:1039D000FDF728F8602008903220099000200A9016
:1039E0000B900C900D900E90002208A91348FEF742
:1039F000DAFE08B1FDF716F8042208A90F48FEF711
:103A0000D2FE08B1FDF70EF8002000900190029060
:103A1000039004904FF400500590002007906946F1
:103A20000648FEF763FA08B1FCF7FCFF0348FEF70F
:103A300063FE15B000BD000000000140FC01002045
:103A400000B58BB0242102A8FCF7A5FC0020009053
:103A500001904FF080401749086000204860002125
:103A6000144881604FF6FF71C160002101618161DE
:103A70000320029000200390012004900020059074
:103A80000690079001200890002009900A9002A952
:103A90000848FEF719FC08B1FCF7C4FF00200090AD
:103AA000019069460348FEF75BFA08B1FCF7BAFFDC
:103AB0000BB000BD4402002000B587B00020039089
:103AC00004900590069001900290154815490860F1
:103AD00042F6DF60486000211248816040F2F31135
:103AE000C160002101618161FEF794FA08B1FCF721
:103AF00099FF4FF48050039003A90A48FEF75EFB3C
:103B000008B1FCF78FFF202001900020029001A94E
:103B10000448FEF725FA08B1FCF784FF07B000BDA2
:103B2000000400408C02002000B58BB0242102A8C4
:103B3000FCF731FC002000900190184818490860FB
:103B4000002048600021164881604FF6FF71C16077
:103B50000021016181610320029000200390012077
:103B60000490002005900690079001200890002006
:103B700009900A9002A90A48FEF7A6FB08B1FCF7D3
:103B800051FF00200090019069460548FEF7E8F9D2
:103B900008B1FCF747FF0BB000BD0000000C00406F
:103BA000D402002000B58BB0002007900890099047
:103BB0000A901C216846FCF7EEFB1F481F4908606D
:103BC0007720486000211D4881606321C160002189
:103BD00001618161FEF71EFA08B1FCF723FF4FF483
:103BE0008050079007A91548FEF7E8FA08B1FCF7DE
:103BF00019FF1248FEF759FE08B1FCF713FF6020C9
:103C0000009032200190002002900490002269462A
:103C10000A48FEF7C8FD08B1FCF704FF0422694614
:103C20000648FEF7C0FD08B1FCF7FCFE0348FEF7AE
:103C300063FD0BB000BD0000004001401C030020EC
:103C400010B50B480B4908604FF4E1304860002183
:103C500008488160C16001610C21416100218161DE
:103C6000C161FFF755F808B1FCF7DCFE10BD00009C
:103C7000001001406403002010B50B480B49086098
:103C80004FF4E1304860002108488160C160016163
:103C90000C21416100218161C161FFF739F808B150
:103CA000FCF7C0FE10BD000000440040AC03002043
:103CB00010B50B480B4908604FF4165048600021BE
:103CC00008488160C16001610C214161002181616E
:103CD000C161FFF71DF808B1FCF7A4FE10BD00009C
:103CE00000480040F403002000BFFEE700BFFEE7ED
:103CF00010B52DED028BB0EE408A444890ED000ADD
:103D000038EE400A424880ED000A424890ED000A31
:103D10003F48D0ED000A30EE200A3E4880ED000A10
:103D200090ED000ADFED3C0AB4EEE00AF1EE10FA85
:103D300004DD9FED390A80ED000A0DE0354890ED75
:103D4000000ADFED360AB4EEE00AF1EE10FA03D213
:103D50009FED320A80ED000A2D4890ED000A3048B0
:103D6000D0ED000A30EE600A2E4880ED000A2E48A1
:103D700090ED000A2648D0ED000A20EE200A2B48DC
:103D8000D0ED000A234890ED001A00EE810A284881
:103D9000D0ED000A234890ED001A00EE810A254874
:103DA00080ED000A90ED000ADFED1B0AB4EEE00A98
:103DB000F1EE10FA04DD9FED180A80ED000A0DE027
:103DC0001C4890ED000ADFED150AB4EEE00AF1EEB2
:103DD00010FA03D29FED110A80ED000A154991ED0A
:103DE000000AF1EE0C0A20EE200ABDEEC00A10EE29
:103DF000101A08B2FCF758FB054890ED000A084875
:103E000080ED000ABDEC028B10BD0000080100200F
:103E100024010020280100200000C6420000C6C284
:103E2000200100202C010020140100201801002096
:103E30001C0100203001002010B52DED028BB0EEEA
:103E4000408A444890ED000A38EE400A424880ED2E
:103E5000000A424890ED000A3F48D0ED000A30EEDB
:103E6000200A3E4880ED000A90ED000ADFED3C0A92
:103E7000B4EEE00AF1EE10FA04DD9FED390A80EDB0
:103E8000000A0DE0354890ED000ADFED360AB4EE89
:103E9000E00AF1EE10FA03D29FED320A80ED000A3B
:103EA0002D4890ED000A3048D0ED000A30EE600A4F
:103EB0002E4880ED000A2E4890ED000A2648D0EDED
:103EC000000A20EE200A2B48D0ED000A234890ED8E
:103ED000001A00EE810A2848D0ED000A234890ED30
:103EE000001A00EE810A254880ED000A90ED000AD4
:103EF000DFED1B0AB4EEE00AF1EE10FA04DD9FEDEF
:103F0000180A80ED000A0DE01C4890ED000ADFED74
:103F1000150AB4EEE00AF1EE10FA03D29FED110A91
:103F200080ED000A154991ED000AF1EE0C0A20EE31
:103F3000200ABDEEC00A10EE101A08B2FCF7DCFA37
:103F4000054890ED000A084880ED000ABDEC028BA0
:103F500010BD00000C010020440100204801002099
:103F60000000C6420000C6C2400100204C010020F3
:103F700034010020380100203C01002050010020C5
:103F8000704700002DE9F04104460D4617461E46D5
:103F9000DDF81880FFF74EFA1A4908609FED1A0AFB
:103FA00087ED000A85ED000A84ED000A00203060EC
:103FB000FCF77AFA0020FCF79FFA9FED130A1348EA
:103FC00080ED000A9FED100A114880ED000A4FF0C5
:103FD000000800200F4908600A48006890ED080AB0
:103FE0000D4880ED000A0748006890ED080A0A486D
:103FF000D0ED000A30EE600A084880ED000ABDE806
:10400000F08100005000002000000000540000205B
:104010005800002090000020700000206400002064
:10402000704710B5FDF7DEFA10BD000000B593B083
:10403000302107A8FCF7AFF9142102A8FCF7ABF96F
:1040400000BF002001902448006840F080502249C1
:1040500008600846006800F08050019000BF00BF73
:1040600000BF002001901D48006840F480401B49BB
:1040700008600846006800F48040019000BF00BF5F
:10408000012007900004089002200D9041050E9138
:1040900008210F91F0211091022111910421129118
:1040A00007A8FDF7B9FC08B1FCF7BCFC0F20029093
:1040B00002200390002004904FF4A05005904FF48C
:1040C00080500690032102A8FDF766FB08B1FCF7BB
:1040D000A9FC13B000BD0000403802400070004051
:1040E0000348006840F47000014908607047000010
:1040F00088ED00E010B50248FEF747FA10BD000059
:104100008C02002010B502682D4B98420ED0B0F101
:10411000804F0BD02B4B984208D02B4B984205D0A8
:104120002A4B984202D02A4B984203D122F07002C7
:104130004B681A43224B984220D0B0F1804F1DD0DB
:10414000204B98421AD0204B984217D01F4B9842D0
:1041500014D01F4B984211D01E4B98420ED01E4BCC
:1041600098420BD01D4B984208D01D4B984205D069
:104170001C4B984202D01C4B984203D122F440724F
:10418000CB681A4322F080034C6943EA04020260C0
:104190008B68C3620B688362094B984202D00C4B58
:1041A000984201D10B69036301234361036903F062
:1041B00001031BB1036923F00103036110BD00007B
:1041C000000001400004004000080040000C0040D6
:1041D000000401400040014000440140004801400B
:1041E00000180040001C00400020004030B501F0E5
:1041F0001F05012404FA05F3046A9C430462046A5F
:1042000001F01F0502FA05F52C43046230BD30B5FC
:104210000C46816821F47F4142EA03252543294366
:10422000816030BD0A46816821F0700142F00703C9
:10423000194381607047000030B5026A056A25F0B5
:10424000010505624368846924F0700424F00304C6
:104250000D682C4322F002028D682A43104DA842BB
:1042600000D103E00F4DA84206D100BF22F00802A2
:10427000CD682A4322F00402094DA84202D0094D1C
:10428000A84207D123F4807323F400734D692B43B4
:104290008D692B43436084614D684563026230BD84
:1042A000000001400004014030B5026A056A25F0B3
:1042B000100505624368846924F4E04424F44074E2
:1042C0000D6844EA052422F020028D6842EA0512B6
:1042D000124DA84200D103E0114DA84207D100BF02
:1042E00022F08002CD6842EA051222F040020B4D16
:1042F000A84202D00A4DA84209D123F4806323F4D6
:1043000000634D6943EA85038D6943EA8503436091
:1043100084614D688563026230BD00000000014089
:104320000004014030B5026A056A25F48075056213
:104330004368C46924F0700424F003040D682C431E
:1043400022F400728D6842EA0522124DA84200D183
:1043500003E0114DA84207D100BF22F40062CD68EE
:1043600042EA052222F480620A4DA84202D00A4D98
:10437000A84209D123F4805323F400534D6943EA42
:1043800005138D6943EA05134360C4614D68C56335
:10439000026230BD000001400004014030B5036AF4
:1043A000056A25F4805505624468C26922F4E0423A
:1043B00022F440720D6842EA052223F400538D680E
:1043C00043EA0533084DA84202D0084DA84204D163
:1043D00024F480444D6944EA85144460C2614D6808
:1043E0000564036230BD000000000140000401408C
:1043F00030B50B461446026A056A25F001050562D0
:10440000816921F0F00141EA041122F00A021A4305
:104410008161026230BD30B50B461446026A056AFE
:1044200025F010050562816921F4704141EA0431EB
:1044300022F0A00242EA03128161026230BD70B52F
:104440000546AC6B0020E085E0842046FEF7EBFAE1
:1044500070BD00BF00BF02680C3252E8002F22F48A
:10446000907102680C3242E80013002BF3D100BFB8
:1044700000BF00BF0268143252E8002F22F0010191
:104480000268143242E80013002BF3D100BF016B25
:1044900001290ED100BF00BF02680C3252E8002F84
:1044A00022F0100102680C3242E80013002BF3D115
:1044B00000BF202180F8421000210163704710B531
:1044C00004462068C06820F040002168C8602020B1
:1044D00084F841002046FEF7E6FD002010BDF8B547
:1044E000044694F84200222875D1A068B0F5805F98
:1044F0000CD1206950B90025A66A20684068C0F335
:1045000008003080A06A801CA06215E0A56A002621
:10451000A068B0F5805F03D0A06828B9206918B9F9
:1045200020684068287004E02068406800F07F0040
:104530002870A06A401CA062E08D401E80B2E08519
:10454000002846D12068C06820F020002168C8609B
:104550002068C06820F480702168C86020684069C5
:1045600020F0010021684861202084F842000020EA
:104570006063206B012826D10020206300BF00BFAC
:1045800021680C3151E8001F21F0100021680C3126
:1045900041E80002002AF3D100BF2068006800F063
:1045A000100010280AD100BF002000902068006889
:1045B000009020684068009000BF00BFA18D204699
:1045C000FEF730FA02E02046FEF7EAFC0020F8BDD4
:1045D00001E00020FBE70220F9E700002DE9F84F99
:1045E00004462068006920F44050E16808432168CF
:1045F00008612169A068084361690843E1690843CB
:1046000000902068C06849F20C6188430099084313
:104610002168C8602068406920F44070A16908439F
:104620002168486176492068884203D0754920682E
:10463000884203D1FDF788F9814602E0FDF774F95D
:104640008146E069B0F5004F6CD102206168A0FBA3
:10465000015003461920A9FB007001462A4638463E
:10466000FBF722FE6421B0FBF1F04FEA001A0220B2
:104670006168A0FB01510B461920A9FB00712A4675
:104680003846FBF711FE834602206168A0FB01500B
:1046900003461920A9FB00712A463846FBF704FEA1
:1046A0006421B0FBF1F000EBC00101EB0010ABEBBB
:1046B0008000322101EBC0006421B0FBF1F000F07A
:1046C000F8000AEB400A02206168A0FB0150034693
:1046D0001920A9FB007001462A463846FBF7E4FD85
:1046E000834602206168A0FB015003461920A9FB04
:1046F00000712A463846FBF7D7FD6421B0FBF1F084
:1047000000EBC00101EB0010ABEB8000322101EBAC
:10471000C0006421B0FBF1F000F0070050442168B4
:1047200088606AE004206168A0FB015003461920FC
:10473000A9FB007001462A463846FBF7B5FD8246C4
:1047400004206168A0FB015003461920A9FB0070FA
:1047500001462A463846FBF7A7FD6421B0FBF1F07D
:1047600000EBC00101EB0010AAEB8000322101EB4D
:1047700000106421B0FBF1F000F0F00A0420616841
:10478000A0FB017003461920A9FB00513A462846B8
:10479000FBF78AFD6421B0FBF1F00AEB001A04205C
:1047A0006168A0FB01510B461920A9FB00712A4644
:1047B0003846FBF779FD834604206168A0FB015071
:1047C00003461920A9FB007001462A463846FBF72C
:1047D0006BFD6421B0FBF1F000EBC00101EB0010B8
:1047E000ABEB8000322101EB00106421B0FBF1F053
:1047F00000F00F00504421688860BDE8F88F000089
:10480000001001400014014010B5034699629A85DA
:10481000DA8500205864222083F84200186928B104
:104820001868C06840F480701C68E06018684069CF
:1048300040F001001C6860611868C06840F020000A
:104840001C68E060002010BD014691F8410021285D
:1048500028D18868B0F5805F0BD1086948B90A6A29
:104860001088C0F308000B685860086A801C086252
:1048700005E00B6A581C086218780B685860C88CF1
:10488000401E80B2C88458B90868C06820F0800013
:104890000B68D8600868C06840F040000B68D860BA
:1048A000002070470220FCE72DE9F84304460D463E
:1048B00017469846089E31E0701C70B3FCF78CFEDA
:1048C000A0EB0800B04200D816B90320BDE8F88379
:1048D0002068C06800F00400F8B1802D1ED0402D83
:1048E0001CD020680068C0F3C000B0B100BF002039
:1048F000009020680068009020684068009000BF29
:1049000000BF2046FFF7A5FD0820606400BF00201F
:1049100084F8400000BF0120D8E7FFE72068006866
:104920002840A84201D1012000E00020B842C3D0B5
:104930000020CBE710B50248FEF776F810BD000066
:104940006403002010B50248FEF76EF810BD0000A9
:10495000AC03002010B50248FEF766F810BD000059
:10496000F403002000BFFEE703B401984100009863
:1049700050EAC12018BF04204A0D18BF40F00100C2
:1049800040F2FF72B2EB515F08BF40F00200012815
:1049900008BF052002B0704702480068C0F302203B
:1049A000704700000CED00E010B5002804DB0A079A
:1049B000130E054A135406E00A07140E034A00F0CA
:1049C0000F031B1FD45410BD00E400E018ED00E0FD
:1049D00010B52F499FED2C1B2DED020B84B00598CF
:1049E00020F000408842D8BF9DED040B2DDD294901
:1049F000884209D1049840B94FF00100FBF7FAFC56
:104A000000F0AEFC06B010BD05DB9DED040B00F020
:104A10009BFC06B010BD68469DED040B00F0ACF8A1
:104A200010F0030004BF9DED021B9DED000B0CD0A8
:104A300001280ED09DED021B9DED000B022817D022
:104A4000012000F0E9FB06B010BD00F0B1FA06B09D
:104A500010BD9DED021B9DED000B012000F0DCFB65
:104A600051EC100B01F04CF906B041EC100B10BDED
:104A700000F09EFA51EC100B01F042F906B041EC47
:104A8000100B10BD0000000000000000000000003E
:104A9000FB21E93F0000F07F2DED020B019820F093
:104AA000004001909DED000B02B070470000000037
:104AB00010B52F499FED2C1B2DED020B84B00598EE
:104AC00020F000408842DCBF00209DED040B32DD69
:104AD0002849884209D1049840B94FF00100FBF7FA
:104AE00089FC00F03DFC06B010BD05DB9DED040B1C
:104AF00000F02AFC06B010BD68469DED040B00F0E6
:104B00003BF810F0030011D0012818D09DED021BD6
:104B10009DED000B02281AD000F04AFA51EC100B60
:104B200001F0EEF806B041EC100B10BD9DED021B3C
:104B30009DED000B012000F06FFB06B010BD9DED58
:104B4000021B9DED000B00F033FA06B010BD0120F2
:104B500000F062FB51EC100B01F0D2F806B041EC12
:104B6000100B10BD0000000000000000000000005D
:104B7000FB21E93F0000F07F2DE9F14F04462DEDC8
:104B8000020B2DED088B8AB09FEDE70B80ED020B39
:104B9000139EE74826F0004585420ADC9DED120B86
:104BA000002084ED000B0AB0BDEC088B03B0BDE81B
:104BB000F08FE0489FEDE0AB9FEDE1BBA84247DD01
:104BC000E14F9FEDE39B9FEDE48B9DED120B53ECCA
:104BD0001A2B51EC100B002E1CDD01F033FC41ECC4
:104BE000100BBD4208D053EC1B2B51EC100B01F005
:104BF00029FCC4E900010BE053EC192B51EC100B1C
:104C000001F020FC53EC182B01F01CFCC4E900015E
:104C10000120C8E701F0B2F841EC100BBD4208D00A
:104C200053EC1B2B51EC100B01F0A8F8C4E9000168
:104C30000BE053EC192B51EC100B01F09FF853ECE7
:104C4000182B01F09BF8C4E900014FF0FF30AAE7F0
:104C5000C348A84279DB9DED120B51EC100B00F01C
:104C60009FFB41EC180B9FEDC00B53EC102B01F098
:104C7000DFFA9FEDBF1B53EC112B01F07FF801F021
:104C80007DFA074601F0A9FA41EC190B53EC1A2BF7
:104C900001F0CEFA53EC182B01F0C8FB41EC180BD5
:104CA00053EC1B2B51EC190B01F0C2FADFF8C8A230
:104CB00041EC100B4FEA15580125FA4453EC102B28
:104CC00051EC180B01F0BEFB032DC4E900013DD0EF
:104CD000C1F30A5005EB4511A8EB000011398142E0
:104CE00034DA0AEB051BB0EE48AA9BED000BF0EEA0
:104CF00068AA53EC102B51EC190B01F099FA41EC16
:104D00001B0B51EC1A0B53EC1B2B01F09BFB41ECE2
:104D1000180B51EC1A0B53EC182B01F093FB53ECCE
:104D20001B2B01F08FFB9BED020B41EC1A0B53EC9C
:104D3000102B51EC190B01F07BFA53EC1A2B01F0FC
:104D400081FB41EC100B6D1CB8E70EE0002EA8BFF4
:104D50003846BFF628AF94ED000B51EC100B00F075
:104D6000CFFFC4E9000178421DE7C6F3130040F409
:104D7000801EC6F30A50A0F2F530471100F01F055F
:104D8000C5F12000DDF848B008900020069007909B
:104D90000520EC467949002D07EB0002794408BF55
:104DA00051F8221009D051F8223001EB8201AB40BA
:104DB0004A68089922FA01F11943A1FB0E26A1FBCA
:104DC0000B131A449A4234BF0123002303EB060855
:104DD0000CEB8003D3E901A60E448E4234BF0121BF
:104DE000002192448A4411B1924502D903E09245D0
:104DF00001D2012100E00021C3E901A641444CF8A1
:104E00002010011EA0F10100C4DC029800F1005046
:104E1000850F0298DDE903678000DDF8148001F05A
:104E2000DCF941EC1A0B304601F0EEF99FED541B12
:104E300053EC112B01F0FCF941EC1B0B384601F04F
:104E4000E3F99FED511B53EC112B01F0F1F941EC0B
:104E5000180B404601F0D8F99FED4D1B53EC112B78
:104E600001F0E6F941EC190B51EC180B53EC192B3E
:104E700000F084FF53EC1B2B00F080FF53EC1A2B47
:104E800000F07CFFCDE90801002008909DED080BA3
:104E900053EC1A2B51EC100B01F0D4FA53EC1B2BF2
:104EA00001F0D0FA53EC182B01F0CCFA53EC192B8B
:104EB00001F0BCFA9FED381B53EC112B01F0B8F94F
:104EC0009FED370B41EC180B53EC102B9DED080BAD
:104ED00051EC100B01F0ACF953EC182B00F04EFF25
:104EE0009FED310B41EC180B53EC102B9DED080B93
:104EF00051EC100B01F09CF953EC182B00F03EFF25
:104F000041EC100B139810F0004F06D06D4251EC9D
:104F1000100B00F0F5FE41EC100B284684ED000B61
:104F200041E600000000000000000000000000005A
:104F3000FB21E93F7CD9024000004054FB21F93FAE
:104F40003163621A61B4D03DFB21F93F00000000DB
:104F50000000601A61B4D03D7370032E8A19A33B20
:104F6000FB2139410000000083C8C96D305FE43F78
:104F7000000000000000E03FA21A0000F01900004D
:104F8000000000000000103E000000000000103C87
:104F9000000000000000103A182D4454FB21F93D98
:104FA0003326A611460B113C00000054FB21F93DAD
:104FB00010B52DED040B2DED088B82B0B0EE419AAB
:104FC000F0EE619A0B9820F000449FED4BABB4F1EA
:104FD000795F11DA9DED0A0B51EC100B01F0CEF860
:104FE000002801BFB0EE4A0AF0EE6A0A02B0BDEC3A
:104FF000088B04BF04B010BD9DED0A0B53EC102BC1
:1050000051EC100B01F014F941EC180B3C4806214F
:10501000B0EE480AF0EE680A784400F081F853ECEC
:10502000182B51EC100B01F003F99DED0A0B41EC2C
:105030001B0B53EC192B51EC100B01F0F9F841EC60
:10504000190B53EC1B2B51EC180B01F0F1F853EC3E
:10505000192B01F0F7F99FED2C0B41EC190B53ECD8
:10506000102B51EC180B01F0E3F841EC100B284821
:10507000844210DA53EC192B51EC100B01F0E2F9D9
:1050800053EC1A2B01F0D2F941EC100B02B0BDEC3D
:10509000088B04B010BD1F48A042BCBF9FED1E1B73
:1050A0008DED001B06DBA4F50010019000200090A0
:1050B0009DED001B51EC100B53EC112B01F0C2F9CC
:1050C0009DED000B41EC180B53EC102B51EC1A0B1F
:1050D00001F0B8F941EC1A0B53EC192B51EC180BF9
:1050E00001F0B0F953EC1A2B01F0A0F941EC100BD0
:1050F000CCE7000000000000000000000000F03FCE
:105100001417000000000000000000000000E03F55
:105110003333D33F0000E93F000000000000D23FDE
:1051200070B504462DED028B4D1E00EBC500B0EEB0
:10513000408AF0EE608A90ED000B35F0060017D043
:1051400053EC182B51EC100B01F072F841EC100BE2
:105150006D1E04EBC50090ED001B51EC100B53ECE1
:10516000112B00F00BFE41EC100B35F00600E7D1DF
:10517000022D36D0042D1CD0062D1CBFBDEC028B99
:1051800070BD53EC182B51EC100B01F051F894ED5D
:105190000A1B53EC112B00F0F1FD53EC182B01F01E
:1051A00047F894ED081B53EC112B00F0E7FD41ECA0
:1051B000100B53EC182B51EC100B01F039F894ED57
:1051C000061B53EC112B00F0D9FD53EC182B01F00A
:1051D0002FF894ED040B53EC102B00F0CFFD41ECB5
:1051E000100B53EC182B51EC100B01F021F894ED3F
:1051F000021B53EC112B00F0C1FD53EC182B01F0F6
:1052000017F894ED001B53EC112B00F0B7FDBDEC2B
:10521000028B41EC100B70BD31B504462DED040B33
:105220002DED0A8BB0EE41BAF0EE61BA0B989DED10
:105230000A0B20F00040B0F1795F0DDA51EC100B51
:10524000FFF792FB042808BF00F09AF89DED0A0BC7
:10525000BDEC0A8B05B030BD53EC102B51EC100B9C
:1052600000F0E6FF41EC180B9DED0A0B53EC182BF8
:1052700051EC100B00F0DCFF41EC190B2C48B0EEA8
:10528000480AF0EE680A05217844FFF749FF9FEDD0
:105290002ACBB0EE40AAF0EE60AA9CB353EC1C2BD4
:1052A00051EC190B00F0C4FF41EC1C0B53EC1A2B12
:1052B00051EC190B00F0BCFF9FED210B41EC190BD9
:1052C00053EC102B51EC1B0B00F0B2FF53EC192BDD
:1052D00001F0B8F853EC182B00F0AAFF53EC1B2B8D
:1052E00001F0B0F853EC1C2B01F0ACF89DED0A1B5B
:1052F00053EC112B01F09AF8BDEC0A8B05B041EC90
:10530000100B30BDFFE753EC1A2B51EC180B00F0DB
:105310008FFF53EC1C2B00F031FD53EC192B00F0E8
:1053200087FF9DED0A1B53EC112B00F027FDE3E7EF
:105330009C15000000000000495555555555C5BF46
:10534000000000000000E03F10B553EC102B51ECC2
:10535000100B00F013FD41EC100B10BD000000001D
:105360009FED050B10B553EC102B51EC100B00F01A
:10537000ADFD41EC100B10BD00000000000000006E
:105380009FED050B10B553EC102B51EC100B00F0FA
:105390004FFF41EC100B10BD00000000000000109A
:1053A00082B0CDE9000121F0004001909DED000B9D
:1053B00002B051EC100B704770B52DED068B044612
:1053C00025480068254908602046FBF703FB224971
:1053D0000860224800680968401A204908600846A9
:1053E000006800EE100AF8EEC00A1D4890ED001AA1
:1053F00080EE810AB3EE041AC0EE010A9FED191A7D
:1054000080EE810ADFED180A20EE200AF0EE000A95
:1054100020EE200A10EE105A284601F0FDF841EC6B
:105420001A0B9FED120B53EC102B00F001FF41EC17
:10543000190B9FED100B53EC102B00F047FD41ECC6
:10544000180B00F069FC0D490860084690ED000A51
:10545000BDEC068B70BD0000F800002000010020AC
:105460001001002000007C42000008421F85EB5123
:10547000B81E094000000000000024400801002080
:1054800070B52DED068B0446254800682549086057
:105490002046FBF79FFA40422149086021480068F6
:1054A0000968401A1F4908600846006800EE100AA3
:1054B000F8EEC00A1C4890ED001A80EE810AB3EEA7
:1054C000041AC0EE010A9FED191A80EE810ADFED81
:1054D000180A20EE200AF0EE000A20EE200A10EE54
:1054E000105A284601F098F841EC1A0B9FED110B69
:1054F00053EC102B00F09CFE41EC190B9FED0F0BB1
:1055000053EC102B00F0E2FC41EC180B00F004FC13
:105510000C490860084690ED000ABDEC068B70BD92
:10552000FC000020040100201001002000007C424B
:10553000000008421F85EB51B81E09400000000022
:10554000000024400C0100202DED108B82B0FCF7F0
:1055500055F8FEF76BFDFEF74FF9FEF729F9FEF758
:105560008BFBFEF76DFBFEF7BFF8FEF7A5FAFEF723
:10557000F3F9FEF717FBFEF763FAFEF7D5FAFEF72D
:1055800097FBFEF79BF8FE48FEF743F8FC480C300B
:10559000FEF73FF8FB48FDF751FFFBF735F9FAF747
:1055A0006DFFF948FDF79AFDF849F948FBF729FA2C
:1055B000F849F948FBF725FAF548FBF72DFAF648C4
:1055C000FBF72AFA0EE3FBF7C5F8F44880ED000A72
:1055D000FBF740F9F2490870FBF704F9F14908704C
:1055E000FDF728FFF04908600020FBF71DF9EF499F
:1055F00008700120FBF718F9ED4908700220FBF74D
:1056000013F9EC4908700320FBF70EF9EA4908701A
:10561000DB48FEF706F8DA480C30FEF702F8D84807
:10562000FDF7F4FF022806D10020E4490870E449A0
:105630000860E4490870D2480C30FDF7E7FF022803
:1056400002D10120DE490860DD48006818B1FDF78D
:105650003BFDDA490870D948007800287DD0012840
:1056600002D002287AD185E0D748007802280BD1F1
:105670009FEDD60AD64880ED000AD64880ED000A94
:105680000020D54908601AE0CF480078012816D1DB
:10569000D148006898B9D14890F9000000EE100A8E
:1056A000B8EEC00ACB4880ED000ACD4890F9000062
:1056B00000EE100AB8EEC00AC54880ED000A0020CE
:1056C000C1490870B648007840B9C648006801284A
:1056D0001FD19FEDC50A00F0A3FA1AE0FDF7AAFE5C
:1056E000B1490860BF48006898B90846006890ED65
:1056F000080ABE4880ED000AB9EE040AB54880EDFC
:10570000000AB9EE040AB24880ED000A0120B5494A
:105710000860A448007840B9AF480068012828D143
:10572000B3EE0E0A00F07CFA23E0FDF783FE9E49FB
:105730000860A9480068E0B90846006890ED080ACA
:10574000AA4880ED000A0020FAF7AEFE0020FAF722
:10575000D3FEB9EE040A9F4801E09DE0A6E080ED8B
:10576000000AB9EE040A9A4880ED000A01209A491D
:1057700008609BE08A48007888BB9A48006850B966
:10578000B3EE020A934880ED000AB0EE080A904892
:1057900080ED000A72E093480068012804D19FED73
:1057A000940A00F03DFA69E08E48006802280DD1A5
:1057B000B9EE040A874880ED000AB1EE040A844875
:1057C00080ED000A00208749086057E0854800689E
:1057D000032853D19FED870A00F022FA4EE0FFE73D
:1057E000FDF728FE704908607E48006818BB08462F
:1057F000006890ED080A7D4880ED000A684800784E
:10580000012802D17749086038E06548007802280D
:105810000AD1B9EE040A6F4880ED000AB1EE040A1D
:105820006B4880ED000A29E05D480078032825D107
:105830006C49086022E06B480068012804D19FEDA4
:105840006C0A00F0EDF919E06648006802280DD1F5
:10585000B9EE040A5F4880ED000AB1EE040A5C4824
:1058600080ED000A00205F49086007E05D4800689D
:10587000032803D19FED5F0A00F0D2F94948007870
:1058800048B1B9EE040A534880ED000AB9EE040AA3
:105890004F4880ED000A09E052480068564B574ACD
:1058A000574900905748FEF76DFB00BF00BF3848CE
:1058B000FFF782FD544880ED000A3748FFF7E0FD0E
:1058C000524880ED000A434890ED000AFEF710FAB6
:1058D0003F4890ED000AFEF7AFFAFDF7ABFD324905
:1058E0000860454800680A2806D10846006890ED1F
:1058F000080A474880ED000A2B48006890ED080A26
:105900004348D0ED000A30EE600A424880ED000ABC
:105910003D4890ED000A3D48D0ED000A30EE200AE7
:10592000F0EE000A80EE201A11EE104A204600F038
:1059300073FE41EC1B0B9FED380B53EC102B00F06A
:1059400077FC41EC1A0B9FED360B53EC102B00F05B
:105950006FFC41EC190B9FED340B53EC102B00F056
:10596000B5FA41EC180B00F0D7F931490860194835
:1059700090ED000A1648D0ED000AF1EE600A59E0F9
:1059800020000020AC030020F4030020D4020020FB
:10599000B000002044020020B80000208000002059
:1059A0007D0000207C00002050000020AC00002082
:1059B000AD000020AE000020AF000020A0000020BD
:1059C000A8000020E0000020EF0000200000000000
:1059D000580000205400002090000020ED0000201E
:1059E000EE0000208C00002000002F4394000020D7
:1059F00000007042000020424C000020780000208F
:105A0000600000205C000020680000206C00002086
:105A10007000002064000020000000000000F43F3F
:105A200000000000000049400000000000408F40DE
:105A300074000020B4EE600AF1EE10FA04D11FEDFC
:105A40001D0A084680ED000A674890ED000AB1EE95
:105A5000400A10EE100A00F0DFFD41EC1F0B9FED35
:105A6000630B53EC102B00F0E3FB41EC1E0B9FED9E
:105A7000610B53EC102B00F029FA41EC1D0BB0EE3A
:105A80004D0AF0EE6D0AFFF713F8B0EE40BAF0EEF3
:105A900060BA5A48006800F0BFFD41EC1C0B53ECA3
:105AA0001B2B00F0C5FB41EC190B5548006800F0BA
:105AB000B3FD41EC1A0B53EC192B00F05FF941ECEC
:105AC000180B00F029F94E490860474890ED000A8C
:105AD000B1EE400A10EE100A00F09EFD41EC1F0BE3
