:020000040800F2
:10000000B80A00202902000809360008832D0008DC
:1000100005360008F9060008B53E0008000000009B
:100020000000000000000000000000000F36000883
:1000300047080008000000000D36000811360008CF
:10004000430200084302000843020008430200087C
:10005000430200084302000843020008430200086C
:10006000430200084302000843020008430200085C
:10007000430200084302000843020008430200084C
:10008000430200084302000843020008430200083C
:10009000430200084302000843020008430200082C
:1000A000430200084302000843020008430200081C
:1000B00043020008E136000843020008430200083A
:1000C00043020008430200084302000843020008FC
:1000D00043020008953E0008A53E000843020008C0
:1000E00043020008430200084302000843020008DC
:1000F00043020008430200084302000843020008CC
:1001000043020008430200084302000843020008BB
:1001100043020008430200084302000843020008AB
:100120001D070008430200084302000843020008BC
:10013000430200084302000843020008430200088B
:10014000430200084302000843020008430200087B
:1001500043020008430200082D070008430200087C
:10016000430200084302000843020008430200085B
:100170004302000843020008430200080000000098
:10018000430200084302000800F002F800F03CF8C7
:100190000AA090E8000C82448344AAF10107DA45E2
:1001A00001D100F031F8AFF2090EBAE80F0013F0F8
:1001B000010F18BFFB1A43F001031847643E00000B
:1001C000843E0000103A24BF78C878C1FAD852079C
:1001D00024BF30C830C144BF04680C6070470000C1
:1001E0000023002400250026103A28BF78C1FBD840
:1001F000520728BF30C148BF0B6070471FB503F0DE
:10020000F9FE1FBD10B510BD00F0CFF81146FFF785
:10021000F5FF03F06DFE00F0EDF803B4FFF7F2FF19
:1002200003BC00F0F5F80000094880470948004782
:10023000FEE7FEE7FEE7FEE7FEE7FEE7FEE7FEE796
:10024000FEE7FEE704480549054A064B70470000F3
:10025000CD36000889010008B8040020B80A002043
:10026000B8060020B806002053EA020C00F06980AE
:100270002DE9F04B4FF00006002B1FBFB3FA83F5BA
:1002800003FA05F424FA05F65E4012BF1643B2FAEB
:1002900082F502FA05F4C5F120051EBF22FA05FC1D
:1002A00044EA0C04203556EA044C4FEA144418BFC3
:1002B000641C4FF000084FF00009904271EB030CF2
:1002C00039D3002919BFB1FA81F701FA07F6B0FA5C
:1002D00080F700FA07F6C7F120071EBF20FA07FCD7
:1002E00046EA0C062037B6FBF4FCA7EB0507103FE7
:1002F00007F01F0BCBF120060CFA0BFB2CFA06F6CD
:1003000044BFB3460026202FA4BF5E464FF0000B2B
:100310005BEA060C08BF4FF0010B19EB0B09ABFBB6
:10032000027C48EB0608C01B06FB02CC0BFB03CC8F
:1003300071EB0C01C1E70B46024641464846BDE859
:10034000F08B13B54FF000004FF00001AFF30080C9
:10035000BDE81C4070474FF0000200B513469446BC
:100360009646203922BFA0E80C50A0E80C50B1F10D
:100370002001BFF4F7AF090728BFA0E80C5048BF21
:100380000CC05DF804EB890028BF40F8042B08BFBF
:10039000704748BF20F8022B11F0804F18BF00F8BB
:1003A000012B7047704770477047754600F02CF876
:1003B000AE4605006946534620F00700854618B052
:1003C00020B5FFF73FFFBDE820404FF000064FF09B
:1003D00000074FF000084FF0000B21F00701AC467A
:1003E000ACE8C009ACE8C009ACE8C009ACE8C00999
:1003F0008D46704710B50446AFF300802046BDE837
:100400001040FFF70ABF0000004870475404002066
:1004100001491820ABBEFEE726000200704700002D
:1004200010B50021074802F08DF90421054802F0BB
:1004300089F90021044802F085F90421024802F0FC
:1004400081F910BD4001002060020020002810DB6F
:10045000114AD268824202D20F4AD26800E00246B4
:1004600091B20D4A1268916300220B4B1B685A63CC
:1004700010E0094AD26843429A4202D2064AD26840
:1004800000E0424291B20022034B1B689A63024A89
:10049000126851637047000040010020002810DB03
:1004A000114AD268824202D20F4AD26800E0024664
:1004B00091B20E4A1268516300220C4B1B689A637A
:1004C00010E0094AD26843429A4202D2064AD268F0
:1004D00000E0424291B20022044B1B685A63034A77
:1004E0001268916370470000400100206002002004
:1004F00070B50546AC6B206C00F0500050BB206C12
:1005000040F4007020642068806800F04050E8B932
:10051000207ED8B92068C06A00F4700020B120683D
:10052000806800F4806088B92068406820F020006E
:1005300021684860206C20F480702064206C00F4F6
:10054000805018B9206C40F001002064204600F073
:100550006DFA0BE0206C00F0100018B1204600F09E
:1005600067FA03E0A06BC16C2846884770BD70B580
:100570000546AC6B40202064606C40F00400606471
:10058000204600F055FA70BD70B50446A56B2846AC
:1005900000F04DFA70BD000055494A6822F440321F
:1005A0004A604A6843681A434A600268526822F403
:1005B000807203685A6002685368026943EA022243
:1005C00003685A600268526822F0407203685A60F9
:1005D0000268526883681A4303685A600268926826
:1005E00022F4006203689A6002689268C3681A4342
:1005F00003689A603F4B826A9A4218D002689268F8
:1006000022F0706203689A6002689268836A1A43F3
:1006100003689A600268926822F0405203689A6008
:1006200002689268C36A1A4303689A600BE0026822
:10063000926822F0706203689A600268926822F001
:10064000405203689A600268926822F002020368CE
:100650009A6002689368027E43EA420203689A60E5
:100660002022125CA2B10268526842F40062036860
:100670005A600268526822F4604203685A60026855
:100680005368426A521E43EA423203685A6005E0E8
:100690000268526822F4006203685A600268D26AF3
:1006A00022F470020368DA620268D36A828B521EF7
:1006B00043EA02520368DA620268926822F4007226
:1006C00003689A600268936890F8302043EA4222F7
:1006D00003689A600268926822F4806203689A60F4
:1006E00002689368426943EA822203689A6070470D
:1006F000002301400100000F00BFFEE710B50448D1
:1007000001F026FC04220349034800F045FA10BD1D
:10071000D0010020880000209800002010B5024879
:1007200000F07EFB10BD0000E000002010B5024884
:1007300000F076FB10BD0000380300200146087869
:1007400010381823B0FBF3F20848805CC865032A10
:1007500005D908686FF30900001D886503E0086883
:100760006FF309008865886D70470000FE3F000840
:10077000014600208A6A8B69CBB932B1012A0DD0BB
:10078000022A03D0032A10D10EE000BFCB6A03F087
:100790008073B3F1807F00D1012007E0CB6AB3F111
:1007A000C07F00D1012001E000E000BF34E08B6990
:1007B000B3F5005F1AD132B1012A07D0022A03D063
:1007C000032A11D10AE000BF01200EE0CB6A03F03A
:1007D0008073B3F1807F00D1012006E0CB6AB3F1D2
:1007E000C07F00D1012000E000BF15E032B1012A36
:1007F00005D0022A04D0032A0CD103E000BF00BFB9
:10080000012008E0CB6A03F08073B3F1807F00D150
:10081000012000E000BF00BF704730B504682468C5
:1008200024F4802405682C60046863608468402C8C
:1008300004D10468A2600468E16003E00468A16078
:100840000468E26030BD7047014608680068406A8D
:1008500003B2888880B21A1AB2F5004F01DBA2F504
:10086000803212F5004F01DA02F5803248681044F8
:1008700048604868704770B504460D462560002002
:1008800060600421206801F031FD70BD0021026824
:10089000126851624160704772B600BFFEE7000007
:1008A00038B502460020009000BF92F83C000128B5
:1008B00001D1022038BD012082F83C0000BF086849
:1008C000092816D91068C0680C780A3C04EB440566
:1008D0000724AC40A0431468E0600C780A3C04EBA9
:1008E00044048868A0401468E46820431468E06009
:1008F00013E0106800690C7804EB44050724AC4051
:10090000A043146820610C7804EB44048868A0407C
:10091000146824692043146820614868072817D2A6
:100920001068406B0C79641E04EB84051F24AC40F6
:10093000A04314686063088880B20C79641E04EBDD
:100940008404A0401468646B20431468606331E041
:1009500048680D2817D21068006B0C79E41F04EB6F
:1009600084051F24AC40A04314682063088880B22B
:100970000C79E41F04EB8404A0401468246B20432A
:100980001468206316E01068C06A0C790D3C04EB13
:1009900084051F24AC40A0431468E062088880B23C
:1009A0000C790D3C04EB8404A0401468E46A2043F5
:1009B0001468E062194B1A4C1068A04206D108680E
:1009C000122803D1586840F480005860144C106815
:1009D000A0421CD10868102802D00868112816D13E
:1009E000586840F400005860086810280FD10D487E
:1009F00000680D4CB0FBF4F000EB8000400000906C
:100A000002E00098401E009000980028F9D100BF35
:100A1000002082F83C0000BF00BF4BE700230140EC
:100A2000002001408000002040420F0070477047C6
:100A30007047000070B5044600250CB9012070BD58
:100A40001549A06A884200D000BF206C30B920460A
:100A500000F024F80020606484F83C00206C00F072
:100A6000100088B9206C20F4885040F00200206407
:100A70002046FFF791FD00206064206C20F002000A
:100A800040F00100206400E0012500BF002084F850
:100A90003C0000BF2846D2E70100000F10B586B029
:100AA0000446142101A8FFF756FC35492068884206
:100AB00063D100BF002000903248006840F480708D
:100AC000304908600846006800F48070009000BF5C
:100AD00000BF00BF002000902A481438006840F092
:100AE00004002849143908600846006800F0040032
:100AF000009000BF00BF00BF0020009008460068C3
:100B000040F0020008600846006800F00200009013
:100B100000BF00BF1C200190032002900020039022
:100B200001A9194800F070FB0120019003200290F8
:100B30000020039001A9154800F066FB14481549F0
:100B4000086000204860002112488160C1604FF4B5
:100B50008061016149004161890081614911C16180
:100B600000210162416200F07BFA08B1FFF794FEB8
:100B700000BF0848A063846300BF06B010BD00003A
:100B800000200140443802400008024000040240B6
:100B900010640240E0000020F8B504460D461646F9
:100BA0000020009000BF94F83C00012801D10220F1
:100BB000F8BD012084F83C0000BF2068806800F088
:100BC0000100A0B92068806840F0010021688860B9
:100BD000554800685549B0FBF1F000EB400000902B
:100BE00002E00098401E009000980028F9D120688B
:100BF000806800F48070B0F5807F05D1206880683F
:100C000020F48070216888602068806800F001000E
:100C100000287ED0206C40F20161884340F480704F
:100C200020642068406800F4806028B1206C20F4C3
:100C3000005040F480502064206C00F48050B0F5E7
:100C4000805F04D1606C20F00600606401E0002049
:100C5000606400BF002084F83C0000BF344F35487A
:100C6000A16BC8633448A16B08643448A16BC864A5
:100C70006FF02200216808602068406840F08060C2
:100C8000216848602068806840F48070216888602E
:100C9000226802F14C0133462A46A06B00F056FA56
:100CA000786800F01F0018BB25492068884213D0DF
:100CB00024492068884204D1381D006800F01F00D4
:100CC00050B12149206888422BD11948001D006885
:100CD00000F01F00102824D22068806800F04050E7
:100CE000F8B92068806840F080402168886018E08A
:100CF00013492068884214D12068806800F0405071
:100D000078B92068806840F080402168886008E0F9
:100D1000FFE7206C40F010002064606C40F00100A0
:100D20006064002044E700008000002040420F0083
:100D300000230140F1040008890500086F05000840
:100D400000200140002101400022014070B504460E
:100D5000A56D00F059FB064694F83500022808D02E
:100D60008020606500BF002084F8340000BF0120AF
:100D700070BD2068006820F01600216808602068B7
:100D8000406920F0800021684861206C08B9A06C9F
:100D900028B12068006820F00800216808602068F9
:100DA000006820F001002168086010E000F02CFBD2
:100DB000801B05280BD920206065032084F83500AE
:100DC00000BF002084F8340000BF0320D0E7206873
:100DD000006800F001000028E8D194F85C103F2082
:100DE0008840A860012084F8350000BF002084F806
:100DF000340000BF00BFBBE7014691F83500022870
:100E000003D08020486501207047052081F8350017
:100E10000868006820F001000A6810600020F3E70D
:100E2000F8B50446002000908C4800684FF4165135
:100E3000B0FBF1F7A56D2E6894F85C10082088408F
:100E4000304098B12068006800F0040070B120685C
:100E5000006820F004002168086094F85C10082005
:100E60008840A860606D40F00100606594F85C10F7
:100E700001208840304068B12068406900F080005F
:100E800040B194F85C1001208840A860606D40F08B
:100E90000200606594F85C1004208840304068B11E
:100EA0002068006800F0020040B194F85C10042053
:100EB0008840A860606D40F00400606594F85C10A4
:100EC00010208840304078B32068006800F00800A7
:100ED00050B394F85C1010208840A8602068006827
:100EE00000F4802080B12068006800F4002028B958
:100EF000206CC8B12046216C884715E0A06C98B1E1
:100F00002046A16C88470FE02068006800F48070DC
:100F100028B92068006820F0080021680860206C6B
:100F200010B12046216C884794F85C10202088403E
:100F30003040002865D02068006800F010000028CC
:100F40005FD094F85C1020208840A86094F83500A9
:100F5000052828D12068006820F016002168086064
:100F60002068406920F0800021684861206C08B941
:100F7000A06C28B12068006820F008002168086093
:100F800094F85C103F208840A860012084F8350068
:100F900000BF002084F8340000BF206D10B120464F
:100FA000216D8847F8BD2068006800F4802080B17A
:100FB0002068006800F4002028B9606C10B1204659
:100FC000616C88471DE0E06BD8B12046E16B884733
:100FD00017E02068006800F4807068B92068006835
:100FE00020F0100021680860012084F8350000BF5F
:100FF000002084F8340000BFE06B10B12046E16BA4
:101000008847606D38B3606D00F00100F0B10520D5
:1010100084F835002068006820F00100216808602D
:1010200000BF0098401C0090B84200D905E020683D
:10103000006800F001000028F3D100BF012084F80F
:10104000350000BF002084F8340000BFE06C10B110
:101050002046E16C884700BFA4E700008000002024
:101060002DE9F0410446002500F0CEF9074614B9F9
:101070000120BDE8F081606A00B100BF022084F861
:10108000350000BF002084F8340000BF20680068ED
:1010900020F00100216808600AE000F0B5F9C01BEB
:1010A000052805D920206065032084F83500E0E795
:1010B0002068006800F001000028EED12068056873
:1010C00021480540D4E901010843E168084321694A
:1010D000084361690843A1690843E1690843216A3B
:1010E00008430543606A042803D1D4E90B0108438F
:1010F0000543206805602068456925F00705606A9A
:101100000543606A04280DD1A06A0543E06A48B12E
:101110002046FFF72DFB28B140206065012084F8B0
:101120003500A6E7206845612046FFF707FB064625
:1011300094F85C103F208840B0600020606501207A
:1011400084F83500002094E73F8010F02DE9F04747
:1011500004460D4616461F464FF00008D4F8589036
:1011600000BF94F83400012802D10220BDE8F087C6
:10117000012084F8340000BF94F83500012825D1FF
:10118000022084F83500002060653B46324629463F
:101190002046FFF742FB94F85C103F208840C9F8D6
:1011A00008002068006840F0160021680860206C84
:1011B00028B12068006840F00800216808602068B5
:1011C000006840F001002168086006E000BF0020D0
:1011D00084F8340000BF4FF002084046C6E7000024
:1011E00070B5044600F010F906462546681C10B19B
:1011F00004480078054400BF00F006F9801BA842AF
:10120000FAD370BD7C000020F8B502460B460025DD
:10121000002400200021D6E0012606FA01F51E6810
:1012200006EA0504AC4274D11E7906F00306012ECD
:1012300004D01E7906F00306022E13D190684F00E9
:101240000326BE40B0434F00DE68BE40304390608E
:10125000506801268E40B0431E79C6F300168E40BA
:10126000304350601E7906F00306032E09D0D06883
:101270004F000326BE40B0434F009E68BE4030433F
:10128000D0601E7906F00306022E13D1CF0802F1BA
:10129000200656F827004E07F70E0F26BE40B04333
:1012A0004F07FF0E1E69BE403043CF0802F12006F3
:1012B00046F8270010684F000326BE40B0431E7951
:1012C00006F003064F00BE40304310605E6806F42F
:1012D0004036002E76D000BF002600963C4E366881
:1012E00046F480463A4F3E603E46366806F48046F5
:1012F000009600BF00BF374E8F0856F827008E07B4
:10130000370F0F26BE40B043334EB24202D1002603
:1013100024E057E0314EB24201D101261EE0304EAA
:10132000B24201D1022619E02E4EB24201D103266B
:1013300014E02D4EB24201D104260FE02B4EB242F2
:1013400001D105260AE02A4EB24201D1062605E067
:10135000284EB24201D1072600E008268F073F0F32
:10136000BE4030431B4E8F0846F82700224E30689F
:10137000A0435E6806F4801606B120431E4E30601E
:10138000361D3068A0435E6806F4001606B120439F
:10139000194E361D3060184E361F3068A0435E6807
:1013A00006F4003606B12043134E361F3060361F58
:1013B0003068A0435E6806F4803606B120430E4EC6
:1013C000083E3060491C1029FFF426AFF8BD00002C
:1013D0004438024008380140000002400004024046
:1013E00000080240000C02400010024000140240BD
:1013F00000180240001C0240083C01400AB1816113
:1014000001E00B04836170470148006870470000E9
:101410007400002003480068034909780844014922
:1014200008607047740000207C00002010B50D4853
:10143000006840F400700B4908600846006840F4FA
:10144000806008600846006840F4807008600320EF
:1014500000F0A6F80F2000F007F800F02BF80020AD
:1014600010BD0000003C024070B504460E480078F4
:101470004FF47A71B1FBF0F00C490968B1FBF0F55B
:10148000284600F02FFC08B1012070BD102C07D2B7
:1014900000222146501E00F045F80548046001E096
:1014A0000120F2E70020F0E77C000020800000200F
:1014B0007800002008B500BF002000900E480068AA
:1014C00040F480400C4908600846006800F4804001
:1014D000009000BF00BF00BF00200090081F006800
:1014E00040F08050091F08600846006800F08050F6
:1014F000009000BF00BF08BD4438024001460846C6
:1015000000280DDB00BF00BF00F01F0301229A403E
:1015100043099B0003F1E023C3F8002100BF00BF93
:1015200000BF70472DE9F05F80460D461646002744
:1015300002F0C2FC074639462A46334601F007004E
:10154000C0F1070ABAF1040F02D94FF0040A01E012
:10155000C0F1070AD14600F1040ABAF1070F02D21E
:101560004FF0000A01E0A0F1030AD4464FF0010A4F
:101570000AFA09FAAAF1010A0AEA020A0AFA0CFAB4
:101580004FF0010B0BFA0CFBABF1010B0BEA030B59
:101590004AEA0B042146404602F096FCBDE8F09F63
:1015A00000BF00F00702064B19684FF6FF03194011
:1015B000044B0B4343EA0221014B196000BF704703
:1015C0000CED00E00000FA0570B504460D460CB9BC
:1015D000012070BD5848006800F00700A84209D2F9
:1015E00055490D700846006800F00700A84201D078
:1015F0000120EEE7207800F0020002281DD12078BB
:1016000000F00400042805D14C48006840F4E05084
:101610004A490860207800F00800082805D14748AA
:10162000006840F46040454908604448006820F084
:10163000F000A168084341490860207800F00100EB
:10164000A8B36068012807D13C4808380068C0F397
:101650004040B8B90120BCE76068022802D0606849
:10166000032807D1354808380068C0F3406048B9FE
:101670000120AEE7314808380068C0F3400008B9DF
:101680000120A6E72D48006820F0030061680843A8
:101690002A490860FFF7B8FE064609E0FFF7B4FEE6
:1016A000801B41F28831884202D9032091E707E08C
:1016B0002248006800F00C006168B0EB810FEDD1AA
:1016C0001D48006800F00700A84209D91A490D70AA
:1016D0000846006800F00700A84201D0012078E722
:1016E000207800F00400042807D11448006820F492
:1016F000E050E168084311490860207800F00800D4
:10170000082808D10D48006820F46040216940EAAB
:10171000C1000A49086000F03FF808490968C1F3B0
:101720000311074A515CC840064908600648006832
:10173000FFF79AFE00204CE7003C024008380240C8
:101740000640000880000020780000200148006862
:10175000704700008000002000B5FFF7F7FF044944
:101760000968C1F38221034A515CC84000BD0000F2
:10177000083802401640000800B5FFF7E7FF0449AB
:101780000968C1F34231034A515CC84000BD000002
:1017900008380240164000082DE9F04700240025D3
:1017A0000026A1462548006800F00C0020B104285E
:1017B00005D008283AD105E0DFF8849039E0DFF859
:1017C000849036E01D48001F006800F03F041B486D
:1017D000001F006800F4800078B11A481749091FFB
:1017E0000968C1F38811A0FB01700146224600235D
:1017F0003846FEF739FD05460EE011480F49091F2E
:101800000968C1F38811A0FB01700146224600233C
:101810003846FEF729FD05460848001F0068C0F35A
:101820000140401C4600B5FBF6F902E0DFF81090DD
:1018300000BF00BF4846BDE8F087000008380240FE
:101840000024F40000127A00F8B504460CB9012017
:10185000F8BD207800F00100002874D0F948006835
:1018600000F00C0004280DD0F648006800F00C00D1
:10187000082813D1F348001F006800F48000B0F579
:10188000800F0BD1EF4808380068C0F340400028B3
:1018900059D06068002856D10120D9E700BF6068A0
:1018A000B0F5803F08D1E7480838006840F4803040
:1018B000E449083908601EE06068B0F5A02F0DD13A
:1018C000E0480838006840F48020DE4908390860A4
:1018D0000846006840F4803008600CE0D9480838B9
:1018E000006820F48030D74908390860084600684D
:1018F00020F48020086000BF606890B1FFF784FD8D
:10190000054606E0FFF780FD401B642801D903204F
:101910009EE7CC4808380068C0F340400028F1D06A
:1019200011E0FFF771FD054606E0FFF76DFD401B76
:10193000642801D903208BE7C24808380068C0F347
:1019400040400028F1D1207800F0020002285FD149
:10195000BC48006800F00C0058B1BA48006800F0BC
:101960000C0008281CD1B748001F006800F4800054
:10197000B0B9B44808380068C0F3400020B1E0684E
:10198000012801D0012063E7AE480838006820F044
:10199000F800216940EAC100AA490839086037E027
:1019A000E06800B30120A8490860FFF72DFD054657
:1019B00006E0FFF729FD401B022801D9032047E775
:1019C000A04808380068C0F340000028F1D09D48C6
:1019D0000838006820F0F800216940EAC100994900
:1019E0000839086014E0002097490860FFF70CFDF3
:1019F000054606E0FFF708FD401B022801D9032039
:101A000026E7904808380068C0F340000028F1D16C
:101A1000207800F0080008282CD16069A8B10120C6
:101A20008A490860FFF7F0FC054606E0FFF7ECFC8A
:101A3000401B022801D903200AE782486C30006865
:101A4000C0F340000028F1D014E000207F49086076
:101A5000FFF7DAFC054606E0FFF7D6FC401B02283C
:101A600001D90320F4E677486C300068C0F34000E9
:101A70000028F1D1207800F00400042870D100275C
:101A800070483830006800F0805090B900BF0020E6
:101A900000906C483830006840F080506949383117
:101AA00008600846006800F08050009000BF00BF4A
:101AB00001276748006800F48070B0B96448006886
:101AC00040F4807062490860FFF79EFC054606E01E
:101AD000FFF79AFC401B022801D90320B8E65C48B6
:101AE000006800F480700028F2D000BFA0680128D0
:101AF00008D154486830006840F00100514968310D
:101B000008601DE0A06805280DD14E4868300068C7
:101B100040F004004B49683108600846006840F016
:101B2000010008600CE047486830006820F00100C0
:101B30004449683108600846006820F004000860E5
:101B400000BFA068A8B1FFF75FFC054609E0FFF7FA
:101B50005BFC401B41F28831884202D9032077E6C2
:101B600026E0384868300068C0F340000028EED016
:101B700013E0FFF749FC054608E0FFF745FC401B72
:101B800041F28831884201D9032061E62D4868304E
:101B90000068C0F340000028EFD1012F07D1294889
:101BA0003830006820F0805026493831086000BF86
:101BB000A069002845D02348006800F00C000828E0
:101BC0005DD0A069022845D100201F490866FFF7B3
:101BD0001BFC054606E0FFF717FC401B022801D955
:101BE000032035E6174808380068C0F34060002835
:101BF000F1D1D4E907010843616A40EA8111012269
:101C0000A06AC2EB500041EA00412C20005D41EA8D
:101C100000600C49091F086001200B490866FFF7A6
:101C2000F3FB054606E0FFF7EFFB401B022801D956
:101C300003200DE6034808380068C0F34060002820
:101C4000F1D049E00838024000004742800E474288
:101C500000700040002021490866FFF7D5FB0546CB
:101C600006E0FFF7D1FB401B022801D90320EFE576
:101C70001B480068C0F340600028F2D12CE0A06946
:101C8000012800D1E4E51648001D0668A069012876
:101C900020D006F48001E06981421BD106F03F01AB
:101CA000206A814216D147F6C0703040616AB0EBBD
:101CB000811F0FD106F440310122A06AC2EB50000F
:101CC000B1EB004F06D106F070612C20005DB1EB46
:101CD000006F01D00120BBE50020B9E500004742BC
:101CE0000038024070B504462546681EB0F1807F7A
:101CF00001D301200FE0681E4FF0E02148610F2161
:101D00004FF0FF3002F0E0F800204FF0E021886152
:101D100007200861002070BD7047704710B503466A
:101D2000002200BF93F83C00012801D1022010BD21
:101D3000012083F83C0000BF22F0FF00CC6840EA9D
:101D4000040222F440708C6840EA040222F48060AD
:101D50004C6840EA040222F400600C6840EA040285
:101D600022F480500C6940EA040222F400504C69CD
:101D700040EA040222F48040CC6940EA0402186878
:101D8000426400BF002083F83C0000BF00BFCEE7E4
:101D900030B502460B4600BF92F83C00012801D145
:101DA000022030BD012082F83C0000BF022082F8F2
:101DB0003D00106844681068816824F07004186859
:101DC000044310684460184D1068A8421BD0106886
:101DD000B0F1804F17D0154D1068A84213D0144DA4
:101DE0001068A8420FD0134D1068A8420BD0124DB6
:101DF0001068A84207D0114D1068A84203D0104DBA
:101E00001068A84205D121F080015868014310688C
:101E10008160012082F83D0000BF002082F83C0074
:101E200000BF00BFBDE7000000000140000400400B
:101E300000080040000C0040000401400040014048
:101E40000018004010B504460CB9012010BD94F8EC
:101E50003D0028B9002084F83C00204600F026F818
:101E6000022084F83D00211D206801F041FC012082
:101E700084F8460000BF84F83E0001213F20015550
:101E8000402001554120015500BF00BF012084F8CA
:101E9000420043200155442001554520015500BF13
:101EA000012084F83D000020D0E7000038B504464A
:101EB0002349206888420FD100BF002000902148AC
:101EC000006840F001001F4908600846006800F003
:101ED0000100009000BF32E01B49206888421AD1FF
:101EE00000BF002000901748001F006840F002006B
:101EF0001449091F08600846006800F002000090BD
:101F000000BF00BF002211461D20FFF70BFB1D2064
:101F1000FFF7F4FA13E00D49206888420FD100BFA3
:101F2000002000900748006840F4803005490860B0
:101F30000846006800F48030009000BF00BF38BD44
:101F400000000140443802400004004000400140CD
:101F5000014691F83D00012801D001207047022080
:101F600081F83D001A4B086898421BD00868B0F110
:101F7000804F17D0174B0868984213D0164B08684B
:101F800098420FD0154B086898420BD0144B086844
:101F9000984207D0134B0868984203D0124B086848
:101FA00098420CD10868806800F00702062A0CD01D
:101FB0000868006840F001000B68186005E00868D8
:101FC000006840F001000B6818600020C6E70000C0
:101FD000000001400004004000080040000C0040E8
:101FE0000004014000400140001800402DE9F0418C
:101FF00004460D46002700BF94F83C00012802D19A
:102000000220BDE8F081012084F83C0000BF0220DE
:1020100084F83D002068866826F0770626F47F461F
:10202000206886602868502833D00CDC202850D0E7
:1020300004DC00284BD0102851D149E0302849D089
:1020400040284CD139E060282DD0702807D0B0F559
:10205000805F03D0B0F5005F41D10DE041E0D5E9EC
:1020600002136A68206801F0C8FB2068866846F0A1
:1020700077062068866034E0D5E902136A68206834
:1020800001F0BBFB2068806840F4804021688860D4
:1020900027E0EA686968206801F0A0FC5021206808
:1020A00001F0B6FB1DE0EA686968206801F0A9FC50
:1020B0006021206801F0ACFB13E0EA6869682068E1
:1020C00001F08CFC4021206801F0A2FB09E000BF78
:1020D00000BF00BF2968206801F09AFB01E00127DA
:1020E00000BF00BF012084F83D0000BF002084F83D
:1020F0003C0000BF384684E72DE9F04104460D4618
:1021000014B90120BDE8F08194F83D0028B9002001
:1021100084F83C00204600F053F8022084F83D008B
:102120002068806844F20701884321688860211D87
:10213000206801F0DDFA2068D0F808802068866900
:102140002068076A286840EA080840F2033086439E
:10215000A969A86840EA0120064340F60C4086437E
:102160004FF2F0008643E969E86840EA012006433F
:1021700028690001296A40EA0130064327F0220756
:1021800027F088076969686840EA011007432068FA
:10219000C0F808802068866120680762012084F802
:1021A000460084F83E0001213F200155012084F8BB
:1021B000420043200155012084F83D000020A1E7A2
:1021C00010B586B00446142101A8FEF7C4F82068B3
:1021D000B0F1804F4CD100BF002000903F48006814
:1021E00040F001003D4908600846006800F0010029
:1021F000009000BF00BF00BF00200090374810389B
:10220000006840F001003549103908600846006850
:1022100000F00100009000BF00BF00BF0020009050
:102220000846006840F0020008600846006800F0B8
:102230000200009000BF00BF4FF400400190022058
:1022400002900020039004900120059001A92448E9
:10225000FEF7DAFF08200190022002900020039090
:1022600004900120059001A91E48FEF7CDFF32E041
:102270001D49206888422ED100BF002000901748D9
:10228000006840F00800154908600846006800F042
:102290000800009000BF00BF00BF002000900F4862
:1022A0001038006840F001000C49103908600846F9
:1022B000006800F00100009000BF00BF0320019003
:1022C000022002900020039004900220059001A9B2
:1022D0000348FEF799FF06B010BD000040380240E9
:1022E0000000024000040240000C00402DE9F043D1
:1022F00004460D4694F83E603F20075D94F8428006
:10230000432010F804906DB9012E02D1B8F1010FED
:1023100002D00120BDE8F083022084F83E0084F85A
:10232000420025E0042D0CD1012F02D1B9F1010F9B
:1023300001D00120EEE702213F2001554320015545
:1023400016E0012E07D1012F05D1B8F1010F02D1FE
:10235000B9F1010F01D00120DCE7022084F83E0032
:1023600002213F200155022084F8420043200155FC
:1023700015B1042D0CD105E001220021206801F0E7
:102380002BFA10E001220421206801F025FA0AE06E
:1023900001220021206801F01FFA01220421206897
:1023A00001F01AFA00BF00BF2068006840F0010089
:1023B000216808600020ADE7704770B504462068CA
:1023C000C5682068066906F00200022819D105F0E8
:1023D0000200022815D1401F2168086101202077E2
:1023E0002068806900F0030018B12046FFF7E4FF81
:1023F00005E0204600F0EEF8204600F0A2F90020AB
:10240000207706F00400042819D105F00400042800
:1024100015D1C043216808610220207720688069B7
:1024200000F4407018B12046FFF7C6FF05E02046D3
:1024300000F0D0F8204600F084F90020207706F064
:102440000800082819D105F00800082815D1C04354
:1024500021680861042020772068C06900F003002B
:1024600018B12046FFF7A8FF05E0204600F0B2F8BB
:10247000204600F066F90020207706F010001028B2
:1024800019D105F01000102815D1C043216808614A
:10249000082020772068C06900F4407018B12046F9
:1024A000FFF78AFF05E0204600F094F8204600F090
:1024B00048F90020207706F0010048B105F001003E
:1024C00030B16FF0010021680861204600F0C0F9CA
:1024D00006F08000802809D105F08000802805D111
:1024E000C043216808612046FFF716FC06F0400053
:1024F000402809D105F04000402805D1C04321689B
:102500000861204600F0A5F906F02000202809D136
:1025100005F02000202805D1C0432168086120462D
:10252000FFF7FBFB70BD000010B586B00446142118
:1025300001A8FDF710FF2349206888421ED100BF83
:10254000002000902048006840F010001E490860FC
:102550000846006800F01000009000BF00BF4FF474
:10256000206001900220029000200390049001203E
:10257000059001A91548FEF747FE20E014492068A0
:1025800088421CD100BF002000900F48006840F036
:1025900010000D4908600846006800F01000009027
:1025A00000BF00BF60200190022002900020039035
:1025B00004900320059001A90448FEF725FE06B00B
:1025C00010BD000000000140303802400010024001
:1025D0000040014070472DE9F04104460D46164683
:1025E000002700BF94F83C00012802D10220BDE87A
:1025F000F081012084F83C0000BF36B1042E1BD0CE
:10260000082E31D00C2E5ED145E02946206801F01D
:1026100009F92068806940F0080021688861206815
:10262000806920F004002168886120688069296938
:1026300008432168886148E02946206801F02AF9AA
:102640002068806940F400602168886120688069A2
:1026500020F480602168886120688069296940EAE7
:1026600001202168886130E02946206801F050F996
:102670002068C06940F008002168C8612068C0690E
:1026800020F004002168C8612068C06929690843F6
:102690002168C86119E02946206801F075F92068B1
:1026A000C06940F400602168C8612068C06920F4F6
:1026B00080602168C8612068C069296940EA0120FA
:1026C0002168C86101E0012700BF00BF00BF0020F2
:1026D00084F83C0000BF384689E710B504460CB9C1
:1026E000012010BD94F83D0028B9002084F83C007A
:1026F000204600F025F8022084F83D00211D2068C6
:1027000000F0F6FF012084F8460000BF84F83E0088
:1027100001213F200155402001554120015500BFB6
:1027200000BF012084F84200432001554420015598
:102730004520015500BF012084F83D000020D0E76E
:102740007047704770B504460D4615B994F83E00C1
:102750000BE0042D02D13F20005D06E0082D02D1E0
:102760004020005D01E04120005D012801D00120F2
:1027700070BD1DB9022084F83E000EE0042D03D187
:1027800002213F20015508E0082D03D102214020FD
:10279000015502E00221412001550122294620680D
:1027A00001F01AF823492068884203D022492068A2
:1027B000884201D1012000E0002028B12068406C4F
:1027C00040F40040216848641A49206888421BD0C0
:1027D0002068B0F1804F17D018492068884213D084
:1027E0001749206888420FD01649206888420BD0CC
:1027F00011492068884207D013492068884203D0D5
:102800001249206888420CD12068806800F00706D1
:10281000062E0CD02068006840F001002168086096
:1028200005E02068006840F0010021680860002091
:102830009EE7000000000140000401400004004049
:1028400000080040000C004000400140001800401B
:1028500070477047704770472DE9F84F044620686D
:1028600005682068C668206847694FF00009CA46B5
:1028700005F00F09B9F1000F0AD105F0200038B1B9
:1028800006F0200020B1204601F01FF9BDE8F88FC6
:10289000B9F1000F7CD007F0010018B906F4907070
:1028A000002875D005F0010030B106F4807018B131
:1028B000606C40F00100606405F0040030B107F086
:1028C000010018B1606C40F00200606405F0020085
:1028D00030B107F0010018B1606C40F00400606492
:1028E00005F0080048B106F0200010B907F001001B
:1028F00018B1606C40F008006064606C002846D03D
:1029000005F0200028B106F0200010B1204601F0AB
:10291000DCF820684069C0F3801A606C00F00800A1
:1029200010B9BAF1000F2DD0204601F088F82068C8
:10293000406900F04000402820D100BF00BF21685E
:10294000143151E8001F21F040002168143141E8A2
:102950000002002AF3D100BFE06B50B17748E16B71
:102960000865E06BFEF748FA88B1E06B016D8847B7
:102970000DE02046FFF76FFF09E009E02046FFF772
:102980006AFF04E02046FFF766FF002060647DE7F1
:10299000206B012878D105F01000002874D006F0D3
:1029A00010000028FAD000BF0020009020680068C6
:1029B000009020684068009000BF00BF2068406918
:1029C00000F04000402860D1E06B006840681FFACA
:1029D00080F8B8F1000F56D0A08D404553DDA4F823
:1029E0002E80E06BC069B0F5807F43D000BF00BF90
:1029F00021680C3151E8001F21F4807021680C31EE
:102A000041E80002002AF3D100BF00BF00BF2168E7
:102A1000143151E8001F21F001002168143141E810
:102A20000002002AF3D100BF00BF00BF21681431AB
:102A300051E8001F21F040002168143141E80002F4
:102A4000002AF3D100BF202084F842000020206338
:102A500000BF00BF21680C3151E8001F21F01000B9
:102A600021680C3141E80002002AF3D100BFE06B7D
:102A7000FEF76CF902206063A08DE28D801A81B2AE
:102A80002046FFF7E7FE01E742E0A08DE18D401A06
:102A90001FFA80F8E08DD0B3B8F1000F37D000BF37
:102AA00000BF21680C3151E8001F21F490702168AB
:102AB0000C3141E80002002AF3D100BF00BF00BF83
:102AC0002168143151E8001F21F001002168143100
:102AD00041E80002002AF3D100BF202084F8420020
:102AE0000020206300BF00BF21680C3151E8001FA7
:102AF00021F0100021680C3141E80002002AF3D1D6
:102B000000BF0220606341462046FFF7A3FEBDE6FA
:102B100005F0800030B106F0800018B1204601F0C9
:102B200089F9B3E605F0400030B106F0400018B175
:102B3000204600F0BAFFA9E600BFA7E62B3A00083E
:102B400010B504460CB9012010BDA06900B100E029
:102B500000BF94F8410028B9002084F840002046C6
:102B600000F02AF8242084F841002068C06820F48E
:102B700000502168C860204601F026F820680069EE
:102B800020F49040216808612068406920F02A0004
:102B9000216848612068C06840F400502168C8601E
:102BA00000206064202084F8410084F84200002066
:102BB000606300BFC8E7000010B586B0044614216A
:102BC00001A8FDF7C8FB4E492068884257D100BFD5
:102BD000002000904B48006840F010004949086010
:102BE0000846006800F01000009000BF00BF00BF62
:102BF0000020009043481438006840F0010041492B
:102C0000143908600846006800F00100009000BF19
:102C100000BF4FF4C060019002200290002003909A
:102C2000032004900720059001A93748FEF7ECFA2D
:102C30003648374908604FF000604860402134480A
:102C400081600021C1604FF4806101610021416118
:102C50008161C16101624162FEF702FA08B1FDF7CC
:102C60001BFE00BF2A48A063846300BF00221146F8
:102C70002520FEF757FC2520FEF740FC3DE02549C6
:102C80002068884239D100BF002000901D48001FF5
:102C9000006840F400301B49091F086008460068BE
:102CA00000F40030009000BF00BF00BF0020009083
:102CB00014481438006840F00800124914390860BC
:102CC0000846006800F00800009000BF00BF6020C8
:102CD000019002200290002003900320049007201E
:102CE000059001A90C48FEF78FFA00221146262014
:102CF000FEF718FC2620FEF701FC06B010BD000010
:102D0000001001404438024000000240B864024014
:102D10003803002000440040000C024070B5044617
:102D20000D46164694F8420020280BD105B10EB985
:102D3000012070BD0020206332462946204601F064
:102D400059F8F6E70220F4E710B504460849206870
:102D500088420CD1074800F029F80B2205490648A3
:102D6000FFF7DCFF05480068401C0449086010BDFF
:102D70000044004098030020F00200205C00002086
:102D8000704700BFFEE700000048704724040020A1
:102D900010B50446034804600B2203490068FFF79E
:102DA000BDFF10BD840000204804002010B504467B
:102DB000207855287ED16078512804D052283FD001
:102DC000532878D17CE0A078E17840EA012000B275
:102DD00000EE100AB8EEC00ADFED5C0A80EE201AA1
:102DE000B3EE000A21EE000A594880ED000A20796E
:102DF000617940EA012000B200EE100AB8EEC00A84
:102E0000DFED520A80EE201AB3EE000A21EE000A2E
:102E10004F4880ED010AA079E17940EA012000B233
:102E200000EE100AB8EEC00ADFED480A80EE201A64
:102E3000B3EE000A21EE000A454880ED020A7DE06B
:102E4000A078E17840EA012000B200EE100AB8EE66
:102E5000C00ADFED3E0A80EE201A9FED3E0A21EE09
:102E6000000A3B4880ED030A2079617940EA01209D
:102E700000B200EE100AB8EEC00A9FED341AC0EEA0
:102E8000010A9FED340A20EE800A314880ED040AE1
:102E9000A079E17940EA012000B200EE100AB8EE14
:102EA000C00A9FED2A1AC0EE010A9FED2A0A20EE01
:102EB000800A01E043E040E0254880ED050A3DE05E
:102EC000A078E17840EA012000B200EE100AF8EEA6
:102ED000C00A9FED1E1A80EE810ADFED1F0A20EE68
:102EE000200A1B4880ED060A2079617940EA01201A
:102EF00000B200EE100AB8EEC00ADFED140A80EE50
:102F0000201A9FED150A21EE000A114880ED070AEC
:102F1000A079E17940EA012000B200EE100AF8EE53
:102F2000C00A9FED0A1A80EE810ADFED0B0A20EE3F
:102F3000200A074880ED080A00E000BF00BF0B220E
:102F4000214606480068FFF7E9FE10BD0000004773
:102F5000240400200000FA440000344384000020D0
:102F600010B504460020E071FEF74EFAA06010BDD7
:102F700010B50446A07928B9A18801222068FEF77F
:102F80003DFA04E0A18800222068FEF737FA10BD60
:102F900010B50648FFF7ECFF0548FFF7E9FF0548C5
:102FA000FFF7E6FF0448FFF7E3FF10BD0000002035
:102FB00008000020100000201800002010B5044672
:102FC000A07928B9A18801222068FEF717FA04E049
:102FD000A18800222068FEF711FA10BD10B5044642
:102FE000A07928B9A18800222068FEF707FA04E03A
:102FF000A18801222068FEF701FA10BD10B5104823
:10300000FFF7ECFF0F48FFF7E9FF0F48FFF7E6FF78
:103010000E48FFF7E3FF4FF4FA70FEF7E1F80848B7
:10302000FFF7CCFF0748FFF7C9FF0748FFF7C6FFC8
:103030000648FFF7C3FF4FF4FA70FEF7D1F810BD52
:1030400000000020080000201000002018000020D0
:103050001FB5002000900190029003902748284956
:10306000086000204860002125488160012101613D
:103070000176002180F820104FF08051C162491084
:1030800081620021C1600421C161012180F83010FA
:103090004161FDF7CFFC08B1FDF7FEFB0820009071
:1030A000012001900620029069461548FDF7F8FBC3
:1030B00008B1FDF7F1FB0C20009002200190694659
:1030C0000F48FDF7EDFB08B1FDF7E6FB0D20009082
:1030D0000320019069460A48FDF7E2FB08B1FDF7BD
:1030E000DBFB0E2000900420019069460448FDF7A8
:1030F000D7FB08B1FDF7D0FB1FBD00000020014049
:103100009800002008B500BF002000900E4800681D
:1031100040F480000C4908600846006800F4800014
:10312000009000BF00BF002211463820FEF7FAF9D8
:103130003820FEF7E3F9002211464620FEF7F2F9A7
:103140004620FEF7DBF908BD3038024000B587B0F5
:10315000142102A8FDF7FFF800BF002001904F489E
:10316000006840F010004D4908600846006800F013
:103170001000019000BF00BF00BF00200190084672
:10318000006840F0040008600846006800F0040091
:10319000019000BF00BF00BF0020019008460068FA
:1031A00040F0800008600846006800F08000019050
:1031B00000BF00BF00BF002001900846006840F03B
:1031C000010008600846006800F00100019000BF9F
:1031D00000BF00BF002001900846006840F00200D8
:1031E00008600846006800F00200019000BF00BFC0
:1031F00000BF002001900846006840F00800086009
:103200000846006800F00800019000BF00BF0122DE
:1032100091032348FEF7F2F8012242F2030121480C
:10322000FEF7ECF84FF4804002900020039001205C
:10323000049002A91C48FDF7E7FF4FF4804002907C
:103240000120039000200490059002A91448FDF786
:10325000DBFF4FF400400290002003900120049017
:1032600002A90F48FDF7D0FF4FF4C0500290002094
:1032700003900120049002A90A48FDF7C5FF42F21D
:10328000030002900120039000200490059002A901
:103290000448FDF7B9FF07B000BD00003038024018
:1032A00000100240000C02400008024000B595B03A
:1032B000002011901290139014900F9010901C21E8
:1032C00008A8FDF748F820216846FDF744F82F4884
:1032D0002F4908607720486000212D4881606321D4
:1032E000C1600021016141618161FEF7ABFD08B160
:1032F000FDF7D2FA4FF48050119011A92448FEF73F
:1033000075FE08B1FDF7C8FA2148FFF7E6F908B1E4
:10331000FDF7C2FA00200F9010900FA91C48FEF78D
:1033200037FD08B1FDF7B8FA602008903220099007
:1033300000200A900B900C900D900E90002208A98E
:103340001348FFF748F908B1FDF7A6FA042208A9C7
:103350000F48FFF740F908B1FDF79EFA00200090F2
:1033600001900290039004904FF4005005900020CB
:10337000079069460648FEF7D1FC08B1FDF78CFAC4
:103380000348FFF7D1F815B000BD00000000014070
:103390004001002000B58BB0242102A8FCF7DBFF20
:1033A0000020009001904FF08040174908600020F5
:1033B00048600021144881604FF6FF71C160002110
:1033C000016181610320029000200390012004909C
:1033D0000020059006900790012008900020099099
:1033E0000A9002A90848FEF787FE08B1FDF754FAD3
:1033F00000200090019069460348FEF7C9FC08B11F
:10340000FDF74AFA0BB000BD8801002000B587B077
:1034100000200390049005900690019002901548BA
:103420001549086042F6DF6048600021124881605B
:1034300040F2F311C160002101618161FEF702FDDC
:1034400008B1FDF729FA4FF48050039003A90A4808
:10345000FEF7CCFD08B1FDF71FFA202001900020F7
:10346000029001A90448FEF793FC08B1FDF714FA95
:1034700007B000BD00040040D001002000B58BB0B3
:10348000242102A8FCF767FF002000900190184853
:1034900018490860002048600021164881604FF6F6
:1034A000FF71C16000210161816103200290002051
:1034B00003900120049000200590069007900120C1
:1034C0000890002009900A9002A90A48FEF714FE0D
:1034D00008B1FDF7E1F90020009001906946054828
:1034E000FEF756FC08B1FDF7D7F90BB000BD0000A0
:1034F000000C00401802002000B58BB0002007909F
:10350000089009900A901C216846FCF724FF1F4888
:103510001F4908607720486000211D4881606321B1
:10352000C160002101618161FEF78CFC08B1FDF7EB
:10353000B3F94FF48050079007A91548FEF756FDE0
:1035400008B1FDF7A9F91248FFF7C7F808B1FDF770
:10355000A3F9602000903220019000200290049096
:10356000002269460A48FFF736F808B1FDF794F9DA
:10357000042269460648FFF72EF808B1FDF78CF9DA
:103580000348FEF7D1FF0BB000BD00000040014032
:103590006002002010B50B480B4908604FF4E13081
:1035A0004860002108488160C16001610C214161CF
:1035B00000218161C161FFF7C3FA08B1FDF76CF921
:1035C00010BD000000100140A802002010B50B48FB
:1035D0000B4908604FF4E1304860002108488160E1
:1035E000C16001610C21416100218161C161FFF76E
:1035F000A7FA08B1FDF750F910BD000000440040E3
:10360000F002002000BFFEE700BFFEE770477047F2
:1036100010B5FDF7FFFE10BD00B593B0302107A82F
:10362000FCF799FE142102A8FCF795FE00BF0020CC
:1036300001902448006840F0805022490860084604
:10364000006800F08050019000BF00BF00BF002064
:1036500001901D48006840F480401B4908600846FE
:10366000006800F48040019000BF00BF0120079077
:103670000004089002200D9041050E9108210F9141
:10368000F0211091022111910421129107A8FEF757
:10369000DBF808B1FDF700F90F200290022003903B
:1036A000002004904FF4A05005904FF480500690F5
:1036B000032102A8FDF788FF08B1FDF7EDF813B06C
:1036C00000BD000040380240007000400348006820
:1036D00040F47000014908607047000088ED00E088
:1036E00010B50248FEF769FE10BD0000D0010020B1
:1036F00010B502682D4B98420ED0B0F1804F0BD020
:103700002B4B984208D02B4B984205D02A4B98421D
:1037100002D02A4B984203D122F070024B681A4320
:10372000224B984220D0B0F1804F1DD0204B9842C0
:103730001AD0204B984217D01F4B984214D01F4BE1
:10374000984211D01E4B98420ED01E4B98420BD07F
:103750001D4B984208D01D4B984205D01C4B9842F7
:1037600002D01C4B984203D122F44072CB681A431A
:1037700022F080034C6943EA040202608B68C36252
:103780000B688362094B984202D00C4B984201D1DE
:103790000B69036301234361036903F001031BB158
:1037A000036923F00103036110BD00000000014024
:1037B0000004004000080040000C004000040140EC
:1037C0000040014000440140004801400018004012
:1037D000001C00400020004030B501F01F0501240E
:1037E00004FA05F3046A9C430462046A01F01F05AD
:1037F00002FA05F52C43046230BD30B50C468168F1
:1038000021F47F4142EA032525432943816030BDED
:103810000A46816821F0700142F007031943816074
:103820007047000030B5026A056A25F0010505629F
:103830004368846924F0700424F003040D682C4369
:1038400022F002028D682A43104DA84200D103E005
:103850000F4DA84206D100BF22F00802CD682A43CE
:1038600022F00402094DA84202D0094DA84207D116
:1038700023F4807323F400734D692B438D692B432C
:10388000436084614D684563026230BD00000140C1
:103890000004014030B5026A056A25F01005056292
:1038A0004368846924F4E04424F440740D6844EAD5
:1038B000052422F020028D6842EA0512124DA8422A
:1038C00000D103E0114DA84207D100BF22F08002D1
:1038D000CD6842EA051222F040020B4DA84202D008
:1038E0000A4DA84209D123F4806323F400634D6993
:1038F00043EA85038D6943EA8503436084614D682B
:103900008563026230BD00000000014000040140F8
:1039100030B5026A056A25F4807505624368C4699A
:1039200024F0700424F003040D682C4322F4007288
:103930008D6842EA0522124DA84200D103E0114DE4
:10394000A84207D100BF22F40062CD6842EA0522F6
:1039500022F480620A4DA84202D00A4DA84209D141
:1039600023F4805323F400534D6943EA05138D6912
:1039700043EA05134360C4614D68C563026230BD0C
:10398000000001400004014030B5036A056A25F4D7
:10399000805505624468C26922F4E04222F4407214
:1039A0000D6842EA052223F400538D6843EA05338B
:1039B000084DA84202D0084DA84204D124F4804406
:1039C0004D6944EA85144460C2614D680564036230
:1039D00030BD0000000001400004014030B50B463E
:1039E0001446026A056A25F001050562816921F025
:1039F000F00141EA041122F00A021A4381610262D5
:103A000030BD30B50B461446026A056A25F0100534
:103A10000562816921F4704141EA043122F0A0027B
:103A200042EA03128161026230BD70B50546AC6B9B
:103A30000020E085E0842046FEF70DFF70BD00BF4A
:103A400000BF02680C3252E8002F22F49071026825
:103A50000C3242E80013002BF3D100BF00BF00BFBF
:103A60000268143252E8002F22F001010268143279
:103A700042E80013002BF3D100BF016B01290ED1E6
:103A800000BF00BF02680C3252E8002F22F0100184
:103A900002680C3242E80013002BF3D100BF202152
:103AA00080F8421000210163704710B50446206879
:103AB000C06820F040002168C860202084F84100E0
:103AC0002046FFF75DF9002010BDF8B5044694F8D4
:103AD0004200222875D1A068B0F5805F0CD1206922
:103AE00050B90025A66A20684068C0F308003080FD
:103AF000A06A801CA06215E0A56A0026A068B0F547
:103B0000805F03D0A06828B9206918B92068406890
:103B1000287004E02068406800F07F002870A06AE8
:103B2000401CA062E08D401E80B2E085002846D196
:103B30002068C06820F020002168C8602068C06844
:103B400020F480702168C8602068406920F001007E
:103B500021684861202084F8420000206063206BC7
:103B6000012826D10020206300BF00BF21680C314E
:103B700051E8001F21F0100021680C3141E80002DB
:103B8000002AF3D100BF2068006800F01000102860
:103B90000AD100BF002000902068006800902068D3
:103BA0004068009000BF00BFA18D2046FEF752FE86
:103BB00002E02046FFF7C8F80020F8BD01E0002031
:103BC000FBE70220F9E700002DE9F84F04462068E2
:103BD000006920F44050E1680843216808612169C8
:103BE000A068084361690843E169084300902068C0
:103BF000C06849F20C618843009908432168C86095
:103C00002068406920F44070A16908432168486138
:103C100076492068884203D075492068884203D1DC
:103C2000FDF7AAFD814602E0FDF796FD8146E069B9
:103C3000B0F5004F6CD102206168A0FB0150034633
:103C40001920A9FB007001462A463846FCF70CFBF8
:103C50006421B0FBF1F04FEA001A02206168A0FB7A
:103C600001510B461920A9FB00712A463846FCF782
:103C7000FBFA834602206168A0FB0150034619202D
:103C8000A9FB00712A463846FCF7EEFA6421B0FB26
:103C9000F1F000EBC00101EB0010ABEB8000322132
:103CA00001EBC0006421B0FBF1F000F0F8000AEB7A
:103CB000400A02206168A0FB015003461920A9FBBD
:103CC000007001462A463846FCF7CEFA83460220A9
:103CD0006168A0FB015003461920A9FB00712A4628
:103CE0003846FCF7C1FA6421B0FBF1F000EBC001EB
:103CF00001EB0010ABEB8000322101EBC00064212E
:103D0000B0FBF1F000F007005044216888606AE0E1
:103D100004206168A0FB015003461920A9FB007034
:103D200001462A463846FCF79FFA8246042061681D
:103D3000A0FB015003461920A9FB007001462A464A
:103D40003846FCF791FA6421B0FBF1F000EBC001BA
:103D500001EB0010AAEB8000322101EB001064217E
:103D6000B0FBF1F000F0F00A04206168A0FB0170E4
:103D700003461920A9FB00513A462846FCF774FA7D
:103D80006421B0FBF1F00AEB001A04206168A0FB8B
:103D900001510B461920A9FB00712A463846FCF751
:103DA00063FA834604206168A0FB01500346192092
:103DB000A9FB007001462A463846FCF755FA6421F3
:103DC000B0FBF1F000EBC00101EB0010ABEB8000A9
:103DD000322101EB00106421B0FBF1F000F00F0084
:103DE000504421688860BDE8F88F00000010014051
:103DF0000014014010B5034699629A85DA850020C7
:103E00005864222083F84200186928B11868C068F5
:103E100040F480701C68E0601868406940F0010060
:103E20001C6860611868C06840F020001C68E06091
:103E3000002010BD014691F84100212828D1886852
:103E4000B0F5805F0BD1086948B90A6A1088C0F3E1
:103E500008000B685860086A801C086205E00B6A5D
:103E6000581C086218780B685860C88C401E80B2D5
:103E7000C88458B90868C06820F080000B68D86012
:103E80000868C06840F040000B68D86000207047A8
:103E90000220FCE710B50248FEF7DEFC10BD000072
:103EA000A802002010B50248FEF7D6FC10BD0000A5
:103EB000F002002000BFFEE702480068C0F30220C5
:103EC000704700000CED00E010B5002804DB0A0785
:103ED000130E054A135406E00A07140E034A00F0B5
:103EE0000F031B1FD45410BD00E400E018ED00E0E8
:103EF000FDF79CFAFFF790FBFFF728F9FFF702F9AF
:103F0000FFF764FBFFF746FBFFF7A2F8FFF77EFA27
:103F1000FFF7CCF9FFF7F0FAFFF73CFAFFF7AEFA3C
:103F2000C8202849088048808880C880FFF730F87A
:103F30002548FFF715F824480C30FFF711F82348FF
:103F4000FEF726FFFCF7DAFBFCF76AFA2049214866
:103F5000FCF791FC20492148FCF78DFC1D48FCF73B
:103F600095FC1E48FCF792FC2BE0FEF70DFF1C4968
:103F70000860FFF743F81B48C06840000321B0FB0E
:103F8000F1F004B22046FCF761FA1648C0684042DE
:103F90000321B0FBF1F004B22046FCF77FFA0D4894
:103FA000FCF752FC104908600C48FCF74DFC0F4927
:103FB00008600F480068401C0D4908606420FDF748
:103FC0000FF9D2E79000002020000020F00200202E
:103FD0008801002038000020180200204000002046
:103FE0007000002040010020680000206C000020CC
:103FF000580000204FF04070E1EE100A70470006B4
:10400000101600061016000000000000000001025B
:104010000304060708090000000001020304000071
:10402000404000080000002098000000C401000883
:10403000D840000898000020200A0000E001000895
:10404000000C024001000000000C024002000000D1
:104050000010024000400000000C02400020000060
:10406000000C0240000800000000000000100240A8
:1040700000800000000000000000000000000000C0
:104080000000000000000000000000000000000030
:104090000000000000000000000000000000000020
:1040A0000000000000000000000000000000000010
:1040B00000000000000000001000000001000000EF
:1040C0000024F400000000000000000000000000D8
:0840D000D007D007D007D0078C
:040000050800018965
:00000001FF
