:020000040800F2
:1000000038070020290200087F1300081F1100088C
:100010007D1300081F0400089D1600080000000062
:100020000000000000000000000000008313000832
:100030002104000800000000811300088513000857
:10004000430200084302000843020008430200087C
:10005000430200084302000843020008430200086C
:10006000430200084302000843020008430200085C
:10007000430200084302000843020008430200084C
:10008000430200084302000843020008430200083C
:10009000430200084302000843020008430200082C
:1000A000430200084302000843020008430200081C
:1000B000430200084302000843020008430200080C
:1000C00043020008430200084302000843020008FC
:1000D000430200084302000891160008430200088A
:1000E00043020008430200084302000843020008DC
:1000F00043020008430200084302000843020008CC
:1001000043020008430200084302000843020008BB
:1001100043020008430200084302000843020008AB
:10012000430200084302000843020008430200089B
:10013000430200084302000843020008430200088B
:10014000430200084302000843020008430200087B
:10015000430200084302000843020008430200086B
:10016000430200084302000843020008430200085B
:100170004302000843020008430200080000000098
:10018000430200084302000800F002F800F03CF8C7
:100190000AA090E8000C82448344AAF10107DA45E2
:1001A00001D100F031F8AFF2090EBAE80F0013F0F8
:1001B000010F18BFFB1A43F0010318479015000008
:1001C000B0150000103A24BF78C878C1FAD8520799
:1001D00024BF30C830C144BF04680C6070470000C1
:1001E0000023002400250026103A28BF78C1FBD840
:1001F000520728BF30C148BF0B6070471FB501F0E0
:1002000093FA1FBD10B510BD00F0CFF81146FFF7EF
:10021000F5FF01F055FA00F0EDF803B4FFF7F2FF37
:1002200003BC00F0F5F80000094880470948004782
:10023000FEE7FEE7FEE7FEE7FEE7FEE7FEE7FEE796
:10024000FEE7FEE704480549054A064B70470000F3
:100250001D1400088901000838010020380700201B
:10026000380300203803002053EA020C00F06980B4
:100270002DE9F04B4FF00006002B1FBFB3FA83F5BA
:1002800003FA05F424FA05F65E4012BF1643B2FAEB
:1002900082F502FA05F4C5F120051EBF22FA05FC1D
:1002A00044EA0C04203556EA044C4FEA144418BFC3
:1002B000641C4FF000084FF00009904271EB030CF2
:1002C00039D3002919BFB1FA81F701FA07F6B0FA5C
:1002D00080F700FA07F6C7F120071EBF20FA07FCD7
:1002E00046EA0C062037B6FBF4FCA7EB0507103FE7
:1002F00007F01F0BCBF120060CFA0BFB2CFA06F6CD
:1003000044BFB3460026202FA4BF5E464FF0000B2B
:100310005BEA060C08BF4FF0010B19EB0B09ABFBB6
:10032000027C48EB0608C01B06FB02CC0BFB03CC8F
:1003300071EB0C01C1E70B46024641464846BDE859
:10034000F08B13B54FF000004FF00001AFF30080C9
:10035000BDE81C4070474FF0000200B513469446BC
:100360009646203922BFA0E80C50A0E80C50B1F10D
:100370002001BFF4F7AF090728BFA0E80C5048BF21
:100380000CC05DF804EB890028BF40F8042B08BFBF
:10039000704748BF20F8022B11F0804F18BF00F8BB
:1003A000012B7047704770477047754600F02CF876
:1003B000AE4605006946534620F00700854618B052
:1003C00020B5FFF73FFFBDE820404FF000064FF09B
:1003D00000074FF000084FF0000B21F00701AC467A
:1003E000ACE8C009ACE8C009ACE8C009ACE8C00999
:1003F0008D46704710B50446AFF300802046BDE837
:100400001040FFF70ABF000000487047D8000020E6
:1004100001491820ABBEFEE7260002007047FEE748
:1004200070472DE9F0410446876D00F053F9064608
:1004300094F835000025022806D08020606584F8F5
:1004400034500120BDE8F0812068016821F01601D8
:1004500001602068416921F080014161206C08B988
:10046000A06C20B12068016821F0080101602068BB
:10047000016821F0010101600CE000F02BF9801B04
:10048000052807D920206065032084F8350084F80A
:100490003450D7E720680068C007EED194F85C10AC
:1004A0003F208840B860012084F8350084F834503B
:1004B0000020C7E790F83510022903D0802141655C
:1004C00001207047052180F835100068016821F08F
:1004D00001010160002070472DE9F84FDFF8BCA151
:1004E0000022012503264FF00F090AF1040BAAF19F
:1004F000040E00BF0B6805FA02F42340A34270D13A
:100500000F7907F00307012F01D0022F16D187685A
:100510004FEA420806FA08FC27EA0C07D1F80CC09B
:100520000CFA08FC4CEA070CC0F808C04768A7435F
:100530000C79C4F3001494403C4344600C79E443C8
:10054000A4070AD0C4684FEA420C06FA0CF7BC4371
:100550008F6807FA0CF72743C7600C7904F003048F
:10056000022C12D1D40800EB840CDCF82040570791
:10057000FF0E09FA07F824EA0804D1F8108008FAF7
:1005800007F848EA0408CCF8208004684FEA420CD7
:1005900006FA0CF7BC430F7907F0030707FA0CF7CC
:1005A000274307604C6814F4403F70D03C4C2768E8
:1005B00047F480472760246822F0030704F480444E
:1005C0000094384C07EB040CDCF8084897074FEA16
:1005D000177809FA08F7BC43334FB84202D1002715
:1005E00024E054E0314FB84201D101271EE0304FE2
:1005F000B84201D1022719E02E4FB84201D103279A
:1006000014E02D4FB84201D104270FE02B4FB84220
:1006100001D105270AE02A4FB84201D1062705E09B
:10062000284FB84201D1072700E0082707FA08F74A
:100630002743CCF80878DAF800405746D1F804C0D0
:100640009C435FEACC2C00D51C433C60DBF80040A7
:100650005F46D1F804C09C435FEA8C2C00D51C4354
:100660003C60DEF800407746D1F804C09C435FEA66
:100670008C3C00D51C433C60084F083F3C68D1F8D7
:1006800004C09C435FEACC3C00D51C433C60521C38
:10069000102AFFF42FAFBDE8F88F0000083C01409E
:1006A0004438024000300140000002400004024093
:1006B00000080240000C02400010024000140240FA
:1006C00000180240001C02400AB181617047090411
:1006D000FBE70000014880687047000040000020F0
:1006E0000248816802781144816070474000002010
:1006F0000B4810B5016841F400710160016841F4D4
:1007000080610160016841F480710160032000F0A4
:100710006FF80F2000F006F800F024F8002010BD5C
:10072000003C024070B50D4D04464FF47A712878B4
:10073000B1FBF0F00A490968B1FBF0F000F00AFBE8
:1007400048B9102C07D200222146501E00F030F884
:1007500000206C6070BD012070BD000040000020D2
:100760004C0000200A4808B5016841F4804101604E
:10077000006800F4804000900548001F016841F0C7
:1007800080510160006800F08050009008BD0000BA
:1007900044380240002809DB00F01F02012191408B
:1007A0004009800000F1E020C0F80011704700000F
:1007B000F0B40E4B1B680C46C3F30223C3F10705CC
:1007C000042D00D90425191D072901D2002300E0BA
:1007D000DB1E012606FA05F1491E214099409E4084
:1007E000761E16403143F0BC00F059BF0CED00E01E
:1007F000064900F0070208684FF6FF03184040EA78
:100800000220034A10430860704700000CED00E02E
:100810000000FA052DE9F0470E46050065D0DFF827
:100820001481D8F80000F7B200F00700B04207D2F8
:1008300088F80070D8F8000000F00700B04254D1EA
:1008400028683D4C810712D5400703D5206840F445
:10085000E05020602878000703D5206840F460400D
:1008600020602068A96820F0F00008432060287804
:10087000C0072DD0304968680839012812D00228F5
:1008800013D0032811D00968890700292DDA2168BF
:1008900021F0030101432160FFF71CFF814641F273
:1008A000883A0EE009688903EFE709688901ECE7F7
:1008B000FFF710FFA0EB0901514502D90320BDE865
:1008C000F0872068696800F00C00B0EB810FEFD171
:1008D000D8F80010404601F00701B14207D907706F
:1008E000006800F00700B04201D00120E7E7287857
:1008F000400705D52068E96820F4E05008432060EF
:100900002878000706D52068296920F4604040EA6D
:10091000C100206000F038F82168084AC1F30311D3
:10092000515CC8400649086006480068FFF7FAFEB7
:100930000020C4E7003C024008380240321700089B
:100940004C00002044000020044805490068096864
:10095000044AC1F38221515CC84070474C0000201A
:100960000838024042170008044805490068096831
:10097000044AC1F34231515CC84070474C0000202A
:100980000838024042170008154810B5006810F0FA
:100990000C02144813D04110042A0FD0082A0ED19B
:1009A0000F4C241F2268236802F03F025B0207D528
:1009B0002068C0F38810A0FB010106E0084610BDC6
:1009C0002168C1F38811A1FB00010023FFF74CFC53
:1009D0002168C1F30141491C4900B0FBF1F010BD91
:1009E000083802400024F4002DE9F84F04006ED0CE
:1009F0002078DFF84C93C007A9F104054AD009F12B
:100A000004000168C1F38101012908D00068C0F326
:100A1000810002280AD1D9F80000400206D52868D2
:100A2000800337D560680028E1D033E06068B0F516
:100A3000803F10D0B0F5A02F286810D020F480306F
:100A40002860286820F4802028606068A8B1FFF73B
:100A500041FE06460DE0286840F48030F4E740F49B
:100A600080202860F7E700BFFFF734FE801B642872
:100A700073D828688003F7D50CE0FFF72BFE0646F5
:100A800005E000BFFFF726FE801B6428F0D8286829
:100A90008003F7D42078DFF8AC8280074FF0000A9B
:100AA0003ED5A748001D016811F00C0F08D0006862
:100AB000C0F3810002280BD1D9F80000400207D40E
:100AC0002868800716D5E068012800D112E033E1DC
:100AD000E068B8B10120C8F80000FFF7FBFD06464A
:100AE00005E000BFFFF7F6FD801B0228C0D828688C
:100AF0008007F7D52868216920F0F80040EAC10096
:100B000028600DE0C8F800A0FFF7E4FD064604E009
:100B1000FFF7E0FD801B02281FD828688007F7D464
:100B20002078000722D5864F87486169703771B1F8
:100B300001210160FFF7CEFD064604E0FFF7CAFD84
:100B4000801B022809D838688007F7D50EE0C0F866
:100B500000A0FFF7BFFD064605E082E0FFF7BAFD03
:100B6000801B02287DD838688007F7D4207840079A
:100B700068D5DFF8CCB100270BF13C0BDBF80000A7
:100B8000C0000BD4DBF8001041F08051CBF800100E
:100B9000DBF80000012700F0805000906B4E3068B9
:100BA000C00510D4306840F480703060FFF792FDCB
:100BB000009005E0FFF78EFD0099401A022850D8FA
:100BC0003068C005F6D55E4EA0686C3601280FD09F
:100BD0000528306810D020F001003060306820F027
:100BE00004003060A068B8B1FFF774FD00900FE01A
:100BF000306840F00100F4E740F004003060F7E7AF
:100C0000FFF768FD0099411A41F28830814266D8A9
:100C100030688007F4D50EE0FFF75CFD009007E038
:100C2000FFF758FD0099411A41F28830814256D8A9
:100C300030688007F4D42FB1DBF8001021F0805128
:100C4000CBF80010A069C8B33D49091D0968C1F37C
:100C5000810102294AD00228504607D0C8F8600016
:100C600000E03CE0FFF736FD04463BE04746C8F8AD
:100C70006000FFF72FFD064605E000BFFFF72AFDE5
:100C8000801B02282BD828688001F7D4D4E90701FB
:100C90000843A16A2E4A490802EB0141626A41EA0F
:100CA0008211084394F82C1040EA0161C9F8001041
:100CB00001203866FFF70EFD044606E03EE000BF67
:100CC000FFF708FD001B022809D828688001F7D526
:100CD00034E000BFFFF7FEFC001B022802D903200E
:100CE000BDE8F88F28688001F4D427E00128F7D008
:100CF000D9F80000E26900F4800191421CD1226A17
:100D000000F03F01914217D147F6C071626A01407D
:100D1000B1EB821F10D1A26A4FF0FF3300F44031D3
:100D200003EB5202B1EB024F06D194F82C1000F005
:100D30007060B0EB016F01D00120D1E70020CFE758
:100D40000438024000004742800E474200700040D5
:100D50000000FFFF10B5401EB0F1807F01D30120DD
:100D600010BD4FF0E02460610F21601700F097FC88
:100D70000020A06107202061002010BD704770474F
:100D8000F8B5016804460868CA684B6910F00F0F8F
:100D90004FF0000559D003F0010602F49077374375
:100DA00065D0C10705D0D10503D5616C41F00101C3
:100DB0006164410705D5D90703D0616C41F0020198
:100DC0006164810705D5D90703D0616C41F0040146
:100DD0006164010707D502F02001314303D0616C43
:100DE00041F008016164616C00293AD0800604D5A5
:100DF000900602D5204600F048FB20684069616CEF
:100E0000C0F38010090700D460B3204600F016FB41
:100E100020684069400621D52068143050E8001F42
:100E200021F0400140E80012002AF5D1E06BA8B1A2
:100E30006E490165E06BFFF73DFB002811D0E06BC8
:100E4000016D01B0BDE8F040084783060FD5930659
:100E50000DD52046BDE8F84000F017BB2046FFF74F
:100E60008EFFF8BD2046FFF78AFF6564F8BD266B4C
:100E70002023012E7DD1C6067BD5D60679D50868FC
:100E80004868009048694FF00206400641D5E16B82
:100E9000086840680004000CE8D0A28D8242E5D9C1
:100EA000E085C869B0F5807F2DD020680C3050E80F
:100EB000001F21F4807140E80012002AF5D120685B
:100EC000143050E8001F21F0010140E80012002A10
:100ED000F5D12068143050E8001F21F0400140E8AF
:100EE0000012002AF5D184F84230256320680C30C6
:100EF00050E8001F21F0100140E80012002AF5D14F
:100F0000E06BFFF78EFA6663A08DE18D401A81B227
:100F10002AE0A08DE18D401A81B2E08D0028A5D095
:100F20000029A3D022680C3252E8000F20F4907000
:100F300042E80007002FF5D12068143050E8002F58
:100F400022F0010240E80027002FF5D184F842305A
:100F5000256320680C3050E8002F22F0100240E892
:100F60000023002BF5D166632046FFF707FFF8BD8D
:100F7000FFE705062BD5150629D594F84100212851
:100F8000F5D1A068B0F5805F01D12069B0B1206AC9
:100F9000411C2162216800784860E08C401E0004FA
:100FA000000CE084E3D12068C16821F08001C160B9
:100FB0002068C16841F04001C160D8E7206A00881C
:100FC000C0F308004860206A801C2062E5E7400604
:100FD000CDD55006CBD5CA68204622F04002CA6063
:100FE00084F8413000F09AF8C1E700002D140008A1
:100FF00070B5040004D094F84100002510B106E05B
:10100000012070BD84F84050204600F023F82420D1
:1010100084F841002068C16821F40051C160204675
:1010200000F094FA2068016921F490410161206880
:10103000416921F02A0141612068C16841F40051F1
:10104000C1606564202084F8410084F84200656333
:10105000002070BD10B586B0044614216846FFF725
:101060007AF917492068884228D116480021026879
:1010700042F400320260006800F40030059011482C
:101080001038026842F008020260006800F00800B0
:101090000590602000900220CDE90101032003901B
:1010A0000720049069460848FFF716FA0022114607
:1010B0002620FFF77DFB2620FFF76CFB06B010BD56
:1010C0000044004040380240000C024090F842309A
:1010D000202B01D00220704721B11AB100230363F5
:1010E00000F0BABA0120704710B50068084988427C
:1010F0000CD1084800F022F806490B22A1F1480063
:10110000FFF7E4FF04484168491C416010BD00003E
:10111000004400409C000020000000207047FEE7D3
:1011200000487047B400002002490B2208600249C1
:10113000FFF7CCBF50000020A800002001785529FF
:101140007ED142789FED410A4149512A04D0522A6A
:1011500029D0532A74D14DE0B0F9022000EE902A34
:10116000F8EEE00A20EE801AF3EE000A21EE201AD3
:1011700081ED001AB0F9042001EE102AB8EEC11A70
:1011800021EE001A21EE201A81ED011AB0F9062095
:1011900001EE102AB8EEC11A21EE000A20EE200A54
:1011A00081ED020A4CE0B0F9022000EE902AF8EE40
:1011B000E00A20EE801ADFED270A21EE201A81EDE9
:1011C000031AB0F9042001EE102AB8EEC11A21EE7C
:1011D000001A21EE201A81ED041AB0F9062001EE62
:1011E000102AB8EEC11A21EE000A20EE200A81ED85
:1011F000050A25E0B0F9022000EE902AF8EEE00A98
:1012000020EE801ADFED140A21EE201A81ED061A75
:10121000B0F9042001EE102AB8EEC11A21EE001A2E
:1012200021EE201A81ED071AB0F9062001EE102AEE
:10123000B8EEC11A21EE000A20EE200A81ED080A5C
:10124000014606480B220068FFF740BF0000003847
:10125000B40000200000FA44000034435000002095
:1012600010B504460020E071FFF734FAA06010BD0D
:101270008279818803681AB100221846FFF724BAE0
:101280000122FAE710B50848FFF7F2FF06480830D8
:10129000FFF7EEFF04481030FFF7EAFF0248BDE811
:1012A00010401830FFF7E4BF080000202DE9F0419E
:1012B00086B014216846FFF74EF82D4800240168D7
:1012C00041F080010160016801F080010591016831
:1012D00041F010010160016801F010010591016801
:1012E00041F008010160016801F008010591016801
:1012F00041F00101016000681E4F00F001000590FF
:1013000000224FF446513846FFF7DEF901229103DF
:101310003846FFF7D9F9DFF8608042F20306012270
:1013200031464046FFF7D0F94FF4E34000900125E5
:10133000CDE90154694638460394FFF7CDF8E80338
:101340008DE8310069463846FFF7C6F8E8028DE8B7
:10135000310069464046FFF7BFF80096CDE90154D9
:10136000694640460394FFF7B7F806B0BDE8F08140
:101370003038024000100240000C0240FEE7FEE759
:1013800070477047FFF7ACB930B593B0302168466D
:10139000FEF7E1FF14210CA8FEF7DDFF1D48002534
:1013A000016841F080510160006800F080501190A8
:1013B0001948016841F4804101600068022400F48A
:1013C0008040119001200090000401908001CDE93F
:1013D000064008200890F020CDE9090404200B9075
:1013E0006846FFF701FB08B172B6FEE70CA90F20B3
:1013F00081E831004FF4A0500F904FF480501090CE
:1014000003210CA8FFF706FA002801D072B6FEE708
:1014100013B030BD403802400070004002480168FF
:1014200041F470010160704788ED00E010B5806BF9
:101430000021C185C184FFF7A2FC10BD01680C31F9
:1014400051E8002F22F4907241E80023002BF5D1DF
:101450000168143151E8002F22F0010241E8002315
:10146000002BF5D1016B012909D101680C3151E83C
:10147000002F22F0100241E80023002BF5D120219B
:1014800080F8421000210163704708B590F84210BF
:10149000222901D0022008BD82684FF480539A426D
:1014A00001D1016921B1816A9A421BD04AB10AE097
:1014B0000268816A5268C2F308020A80816A891C44
:1014C00008E0026972B10268526802F07F020A7095
:1014D000816A491C8162C18D491E0904090CC185BC
:1014E00003D01BE002685268F1E70168CA6822F085
:1014F0002002CA600168CA6822F48072CA6001686A
:101500004A6922F001024A61202180F8421000213C
:101510004163026B012A03D0FFF7E6FD002008BDFE
:10152000016301680C3151E8002F22F0100241E8FC
:101530000023002BF5D101680A68D20602D50A689B
:1015400049680091818DFFF719FCE7E770B5044603
:1015500000680169E26821F4405111430161216989
:10156000A068E26908436169114308432168CA68B9
:1015700049F20C639A430243CA6020684169A26938
:1015800021F440711143416131492068884202D001
:101590003049884202D1FFF7E7F901E0FFF7D4F9BB
:1015A000E2690023192164253226B2F5004F6268F2
:1015B00028D0A0FB0101930F9200FEF755FE0146D3
:1015C000B0FBF5F06FF01802504301EB800006EB22
:1015D0000010B0FBF5F000F0F002B1FBF5F002EB0B
:1015E0000012B1FBF5F06FF01803584301EB8000D7
:1015F00006EB0010B0FBF5F000F00F00216810447E
:10160000886070BDA0FB010192185B41FEF72CFEC3
:101610000146B0FBF5F00201B1FBF5F06FF01803E5
:10162000584301EB800006EBC000B0FBF5F000F082
:10163000F80002EB4002B1FBF5F0584301EB8000EB
:1016400006EBC000B0FBF5F000F00700D6E70000A5
:10165000001001400014014081628285C285002192
:101660004164222180F84210016921B10168CA68F1
:1016700042F48072CA6001684A6942F001024A611C
:101680000068C16841F02001C1600020704700007F
:101690000148FFF775BB000054000020FEE7090772
:1016A000090E002804DB00F1E02080F800147047E8
:1016B00000F00F0000F1E02080F8141D70470000DA
:1016C000FFF716F8FFF760FEFFF7F0FD1448134927
:1016D0000C2201604FF4E131416000218160C16062
:1016E000C0E904128161C161FFF782FC08B172B6E2
:1016F000FEE7FFF7C7FD0B48FFF7B2FD09480C30C6
:10170000FFF7AEFD0648FFF70FFD064CB4F12804C5
:10171000FFF706FD2068401C2060F9E70044004008
:1017200054000020280000204FF04070E1EE100A25
:1017300070470000000000000000010203040607DB
:101740000809000000000102030400006C170008F3
:101750000000002054000000C4010008C017000869
:1017600054000020E4060000E00100080000000032
:1017700000000000000C024001000000000C0240CC
:10178000020000000010024000400000000C024077
:1017900000200000000C02400008000000000000D3
:1017A0000010024000800000000000000100000066
:1017B00010000000000000000024F4000000000001
:040000050800018965
:00000001FF
